{
  "contractName": "Auth",
  "abi": [
    {
      "anonymous": false,
      "inputs": [
        {
          "indexed": true,
          "internalType": "address",
          "name": "userAddress",
          "type": "address"
        },
        {
          "indexed": false,
          "internalType": "string",
          "name": "username",
          "type": "string"
        },
        {
          "indexed": false,
          "internalType": "string",
          "name": "email",
          "type": "string"
        },
        {
          "indexed": false,
          "internalType": "bool",
          "name": "isAdmin",
          "type": "bool"
        }
      ],
      "name": "AccountCreated",
      "type": "event"
    },
    {
      "anonymous": false,
      "inputs": [
        {
          "indexed": true,
          "internalType": "address",
          "name": "userAddress",
          "type": "address"
        },
        {
          "indexed": false,
          "internalType": "string",
          "name": "email",
          "type": "string"
        }
      ],
      "name": "AccountLoggedIn",
      "type": "event"
    },
    {
      "inputs": [
        {
          "internalType": "string",
          "name": "username",
          "type": "string"
        },
        {
          "internalType": "string",
          "name": "email",
          "type": "string"
        },
        {
          "internalType": "bytes32",
          "name": "password",
          "type": "bytes32"
        },
        {
          "internalType": "bytes32",
          "name": "confirmPassword",
          "type": "bytes32"
        }
      ],
      "name": "createAccount",
      "outputs": [],
      "stateMutability": "nonpayable",
      "type": "function"
    },
    {
      "inputs": [
        {
          "internalType": "string",
          "name": "email",
          "type": "string"
        },
        {
          "internalType": "bytes32",
          "name": "password",
          "type": "bytes32"
        }
      ],
      "name": "login",
      "outputs": [],
      "stateMutability": "nonpayable",
      "type": "function"
    },
    {
      "inputs": [],
      "name": "logout",
      "outputs": [],
      "stateMutability": "nonpayable",
      "type": "function"
    },
    {
      "inputs": [
        {
          "internalType": "address",
          "name": "userAddress",
          "type": "address"
        }
      ],
      "name": "getUserRole",
      "outputs": [
        {
          "internalType": "bool",
          "name": "",
          "type": "bool"
        }
      ],
      "stateMutability": "view",
      "type": "function",
      "constant": true
    }
  ],
  "bytecode": "0x608060405234801561001057600080fd5b5061159a806100206000396000f3fe608060405234801561001057600080fd5b506004361061004c5760003560e01c806304f75406146100515780631f3c99c31461006d57806327820851146100775780636cb33779146100a7575b600080fd5b61006b60048036038101906100669190610bab565b6100c3565b005b6100756102e1565b005b610091600480360381019061008c9190610c65565b6103c7565b60405161009e9190610cad565b60405180910390f35b6100c160048036038101906100bc9190610cc8565b61041f565b005b600073ffffffffffffffffffffffffffffffffffffffff166002836040516100eb9190610dd8565b908152602001604051809103902060009054906101000a900473ffffffffffffffffffffffffffffffffffffffff1673ffffffffffffffffffffffffffffffffffffffff1603610170576040517f08c379a000000000000000000000000000000000000000000000000000000000815260040161016790610e4c565b60405180910390fd5b60006002836040516101829190610dd8565b908152602001604051809103902060009054906101000a900473ffffffffffffffffffffffffffffffffffffffff169050816000808373ffffffffffffffffffffffffffffffffffffffff1673ffffffffffffffffffffffffffffffffffffffff1681526020019081526020016000206002015414610236576040517f08c379a000000000000000000000000000000000000000000000000000000000815260040161022d90610eb8565b60405180910390fd5b6001600360008373ffffffffffffffffffffffffffffffffffffffff1673ffffffffffffffffffffffffffffffffffffffff16815260200190815260200160002060006101000a81548160ff0219169083151502179055508073ffffffffffffffffffffffffffffffffffffffff167fd755b30ca80ce0c71b04956d1ad12ad22159d9d0c5bf8efd6a48f1a6031775bf846040516102d49190610f11565b60405180910390a2505050565b600360003373ffffffffffffffffffffffffffffffffffffffff1673ffffffffffffffffffffffffffffffffffffffff16815260200190815260200160002060009054906101000a900460ff1661036d576040517f08c379a000000000000000000000000000000000000000000000000000000000815260040161036490610f7f565b60405180910390fd5b6000600360003373ffffffffffffffffffffffffffffffffffffffff1673ffffffffffffffffffffffffffffffffffffffff16815260200190815260200160002060006101000a81548160ff021916908315150217905550565b60008060008373ffffffffffffffffffffffffffffffffffffffff1673ffffffffffffffffffffffffffffffffffffffff16815260200190815260200160002060030160009054906101000a900460ff169050919050565b808214610461576040517f08c379a000000000000000000000000000000000000000000000000000000000815260040161045890610feb565b60405180910390fd5b600073ffffffffffffffffffffffffffffffffffffffff166001856040516104899190610dd8565b908152602001604051809103902060009054906101000a900473ffffffffffffffffffffffffffffffffffffffff1673ffffffffffffffffffffffffffffffffffffffff161461050e576040517f08c379a000000000000000000000000000000000000000000000000000000000815260040161050590611057565b60405180910390fd5b600073ffffffffffffffffffffffffffffffffffffffff166002846040516105369190610dd8565b908152602001604051809103902060009054906101000a900473ffffffffffffffffffffffffffffffffffffffff1673ffffffffffffffffffffffffffffffffffffffff16146105bb576040517f08c379a00000000000000000000000000000000000000000000000000000000081526004016105b2906110c3565b60405180910390fd5b600460003373ffffffffffffffffffffffffffffffffffffffff1673ffffffffffffffffffffffffffffffffffffffff16815260200190815260200160002060009054906101000a900460ff1615610648576040517f08c379a000000000000000000000000000000000000000000000000000000000815260040161063f90611155565b60405180910390fd5b6000339050600061065a868686610928565b905060405180608001604052808781526020018681526020018581526020018215158152506000808473ffffffffffffffffffffffffffffffffffffffff1673ffffffffffffffffffffffffffffffffffffffff16815260200190815260200160002060008201518160000190816106d2919061138b565b5060208201518160010190816106e8919061138b565b506040820151816002015560608201518160030160006101000a81548160ff021916908315150217905550905050816001876040516107279190610dd8565b908152602001604051809103902060006101000a81548173ffffffffffffffffffffffffffffffffffffffff021916908373ffffffffffffffffffffffffffffffffffffffff160217905550816002866040516107849190610dd8565b908152602001604051809103902060006101000a81548173ffffffffffffffffffffffffffffffffffffffff021916908373ffffffffffffffffffffffffffffffffffffffff1602179055506001600360008473ffffffffffffffffffffffffffffffffffffffff1673ffffffffffffffffffffffffffffffffffffffff16815260200190815260200160002060006101000a81548160ff0219169083151502179055506001600460008473ffffffffffffffffffffffffffffffffffffffff1673ffffffffffffffffffffffffffffffffffffffff16815260200190815260200160002060006101000a81548160ff0219169083151502179055508173ffffffffffffffffffffffffffffffffffffffff167feeb5d3f3fcb5777e1c9c3ccc9806bd0a095fa63eaa616dcc4802dfdf03b46d3c8787846040516108ca9392919061145d565b60405180910390a28173ffffffffffffffffffffffffffffffffffffffff167fd755b30ca80ce0c71b04956d1ad12ad22159d9d0c5bf8efd6a48f1a6031775bf866040516109189190610f11565b60405180910390a2505050505050565b6000604051602001610939906114ee565b60405160208183030381529060405280519060200120846040516020016109609190610dd8565b604051602081830303815290604052805190602001201480156109cc575060405160200161098d9061154f565b60405160208183030381529060405280519060200120836040516020016109b49190610dd8565b60405160208183030381529060405280519060200120145b8015610a0157506040516020016109e2906114ee565b6040516020818303038152906040528051906020012060001c60001b82145b15610a0f5760019050610a14565b600090505b9392505050565b6000604051905090565b600080fd5b600080fd5b600080fd5b600080fd5b6000601f19601f8301169050919050565b7f4e487b7100000000000000000000000000000000000000000000000000000000600052604160045260246000fd5b610a8282610a39565b810181811067ffffffffffffffff82111715610aa157610aa0610a4a565b5b80604052505050565b6000610ab4610a1b565b9050610ac08282610a79565b919050565b600067ffffffffffffffff821115610ae057610adf610a4a565b5b610ae982610a39565b9050602081019050919050565b82818337600083830152505050565b6000610b18610b1384610ac5565b610aaa565b905082815260208101848484011115610b3457610b33610a34565b5b610b3f848285610af6565b509392505050565b600082601f830112610b5c57610b5b610a2f565b5b8135610b6c848260208601610b05565b91505092915050565b6000819050919050565b610b8881610b75565b8114610b9357600080fd5b50565b600081359050610ba581610b7f565b92915050565b60008060408385031215610bc257610bc1610a25565b5b600083013567ffffffffffffffff811115610be057610bdf610a2a565b5b610bec85828601610b47565b9250506020610bfd85828601610b96565b9150509250929050565b600073ffffffffffffffffffffffffffffffffffffffff82169050919050565b6000610c3282610c07565b9050919050565b610c4281610c27565b8114610c4d57600080fd5b50565b600081359050610c5f81610c39565b92915050565b600060208284031215610c7b57610c7a610a25565b5b6000610c8984828501610c50565b91505092915050565b60008115159050919050565b610ca781610c92565b82525050565b6000602082019050610cc26000830184610c9e565b92915050565b60008060008060808587031215610ce257610ce1610a25565b5b600085013567ffffffffffffffff811115610d0057610cff610a2a565b5b610d0c87828801610b47565b945050602085013567ffffffffffffffff811115610d2d57610d2c610a2a565b5b610d3987828801610b47565b9350506040610d4a87828801610b96565b9250506060610d5b87828801610b96565b91505092959194509250565b600081519050919050565b600081905092915050565b60005b83811015610d9b578082015181840152602081019050610d80565b60008484015250505050565b6000610db282610d67565b610dbc8185610d72565b9350610dcc818560208601610d7d565b80840191505092915050565b6000610de48284610da7565b915081905092915050565b600082825260208201905092915050565b7f456d61696c206e6f7420666f756e640000000000000000000000000000000000600082015250565b6000610e36600f83610def565b9150610e4182610e00565b602082019050919050565b60006020820190508181036000830152610e6581610e29565b9050919050565b7f496e76616c69642070617373776f726400000000000000000000000000000000600082015250565b6000610ea2601083610def565b9150610ead82610e6c565b602082019050919050565b60006020820190508181036000830152610ed181610e95565b9050919050565b6000610ee382610d67565b610eed8185610def565b9350610efd818560208601610d7d565b610f0681610a39565b840191505092915050565b60006020820190508181036000830152610f2b8184610ed8565b905092915050565b7f4e6f74206c6f6767656420696e00000000000000000000000000000000000000600082015250565b6000610f69600d83610def565b9150610f7482610f33565b602082019050919050565b60006020820190508181036000830152610f9881610f5c565b9050919050565b7f50617373776f72647320646f206e6f74206d6174636800000000000000000000600082015250565b6000610fd5601683610def565b9150610fe082610f9f565b602082019050919050565b6000602082019050818103600083015261100481610fc8565b9050919050565b7f557365726e616d6520616c726561647920657869737473000000000000000000600082015250565b6000611041601783610def565b915061104c8261100b565b602082019050919050565b6000602082019050818103600083015261107081611034565b9050919050565b7f456d61696c20616c726561647920657869737473000000000000000000000000600082015250565b60006110ad601483610def565b91506110b882611077565b602082019050919050565b600060208201905081810360008301526110dc816110a0565b9050919050565b7f4d6574614d61736b206164647265737320616c7265616479207265676973746560008201527f7265640000000000000000000000000000000000000000000000000000000000602082015250565b600061113f602383610def565b915061114a826110e3565b604082019050919050565b6000602082019050818103600083015261116e81611132565b9050919050565b7f4e487b7100000000000000000000000000000000000000000000000000000000600052602260045260246000fd5b600060028204905060018216806111bc57607f821691505b6020821081036111cf576111ce611175565b5b50919050565b60008190508160005260206000209050919050565b60006020601f8301049050919050565b600082821b905092915050565b6000600883026112377fffffffffffffffffffffffffffffffffffffffffffffffffffffffffffffffff826111fa565b61124186836111fa565b95508019841693508086168417925050509392505050565b6000819050919050565b6000819050919050565b600061128861128361127e84611259565b611263565b611259565b9050919050565b6000819050919050565b6112a28361126d565b6112b66112ae8261128f565b848454611207565b825550505050565b600090565b6112cb6112be565b6112d6818484611299565b505050565b5b818110156112fa576112ef6000826112c3565b6001810190506112dc565b5050565b601f82111561133f57611310816111d5565b611319846111ea565b81016020851015611328578190505b61133c611334856111ea565b8301826112db565b50505b505050565b600082821c905092915050565b600061136260001984600802611344565b1980831691505092915050565b600061137b8383611351565b9150826002028217905092915050565b61139482610d67565b67ffffffffffffffff8111156113ad576113ac610a4a565b5b6113b782546111a4565b6113c28282856112fe565b600060209050601f8311600181146113f557600084156113e3578287015190505b6113ed858261136f565b865550611455565b601f198416611403866111d5565b60005b8281101561142b57848901518255600182019150602085019450602081019050611406565b868310156114485784890151611444601f891682611351565b8355505b6001600288020188555050505b505050505050565b600060608201905081810360008301526114778186610ed8565b9050818103602083015261148b8185610ed8565b905061149a6040830184610c9e565b949350505050565b7f61646d696e000000000000000000000000000000000000000000000000000000600082015250565b60006114d8600583610d72565b91506114e3826114a2565b600582019050919050565b60006114f9826114cb565b9150819050919050565b7f61646d696e40626c6f636b636861696e2e636f6d000000000000000000000000600082015250565b6000611539601483610d72565b915061154482611503565b601482019050919050565b600061155a8261152c565b915081905091905056fea2646970667358221220d4e46e5a7af97f778bedf9b7534f40dd3d78ccff4362cfcb3bbd45ae337ec4fa64736f6c63430008130033",
  "immutableReferences": {},
  "source": "// SPDX-License-Identifier: MIT\r\npragma solidity ^0.8.0;\r\n\r\ncontract Auth {\r\n    struct User {\r\n        string username;\r\n        string email;\r\n        bytes32 password;\r\n        bool isAdmin;\r\n    }\r\n\r\n    mapping (address => User) private users;\r\n    mapping (string => address) private usernameToAddress;\r\n    mapping (string => address) private emailToAddress;\r\n    mapping (address => bool) private loggedIn;\r\n    mapping (address => bool) private metamaskRegistered;\r\n\r\n    event AccountCreated(address indexed userAddress, string username, string email, bool isAdmin);\r\n    event AccountLoggedIn(address indexed userAddress, string email);\r\n\r\n    function createAccount(string memory username, string memory email, bytes32 password, bytes32 confirmPassword) public {\r\n        require(password == confirmPassword, \"Passwords do not match\");\r\n        require(usernameToAddress[username] == address(0), \"Username already exists\");\r\n        require(emailToAddress[email] == address(0), \"Email already exists\");\r\n        require(!metamaskRegistered[msg.sender], \"MetaMask address already registered\");\r\n\r\n        address userAddress = msg.sender;\r\n        bool isAdmin = isAdminUser(username, email, password);\r\n        users[userAddress] = User(username, email, password, isAdmin);\r\n        usernameToAddress[username] = userAddress;\r\n        emailToAddress[email] = userAddress;\r\n        loggedIn[userAddress] = true;\r\n        metamaskRegistered[userAddress] = true;\r\n\r\n        emit AccountCreated(userAddress, username, email, isAdmin);\r\n        emit AccountLoggedIn(userAddress, email);\r\n    }\r\n\r\n    function login(string memory email, bytes32 password) public {\r\n        require(emailToAddress[email] != address(0), \"Email not found\");\r\n        address userAddress = emailToAddress[email];\r\n        require(users[userAddress].password == password, \"Invalid password\");\r\n\r\n        loggedIn[userAddress] = true;\r\n        emit AccountLoggedIn(userAddress, email);\r\n    }\r\n\r\n    function logout() public {\r\n        require(loggedIn[msg.sender], \"Not logged in\");\r\n\r\n        loggedIn[msg.sender] = false;\r\n    }\r\n\r\n    function getUserRole(address userAddress) public view returns (bool) {\r\n        return users[userAddress].isAdmin;\r\n    }\r\n\r\n    function isAdminUser(string memory username, string memory email, bytes32 password) private pure returns (bool) {\r\n        // Check if the specified user should be an admin\r\n        if (\r\n            keccak256(abi.encodePacked(username)) == keccak256(abi.encodePacked(\"admin\")) &&\r\n            keccak256(abi.encodePacked(email)) == keccak256(abi.encodePacked(\"admin@blockchain.com\")) &&\r\n            password == bytes32(uint256(keccak256(abi.encodePacked(\"admin\"))))\r\n        ) {\r\n            return true;\r\n        } else {\r\n            return false;\r\n        }\r\n    }\r\n}\r\n",
  "sourcePath": "D:\\repos\\License\\voting-app\\src\\contracts\\Auth.sol",
  "compiler": {
    "name": "solc",
    "version": "0.8.19+commit.7dd6d404.Emscripten.clang"
  },
  "schemaVersion": "3.4.13",
  "updatedAt": "2023-05-25T13:45:33.991Z",
  "networkType": "ethereum",
  "devdoc": {
    "kind": "dev",
    "methods": {},
    "version": 1
  },
  "userdoc": {
    "kind": "user",
    "methods": {},
    "version": 1
  }
}