{
  "contractName": "Auth",
  "abi": [
    {
      "anonymous": false,
      "inputs": [
        {
          "indexed": true,
          "internalType": "address",
          "name": "userAddress",
          "type": "address"
        },
        {
          "indexed": false,
          "internalType": "string",
          "name": "username",
          "type": "string"
        },
        {
          "indexed": false,
          "internalType": "string",
          "name": "email",
          "type": "string"
        },
        {
          "indexed": false,
          "internalType": "bool",
          "name": "isAdmin",
          "type": "bool"
        }
      ],
      "name": "AccountCreated",
      "type": "event"
    },
    {
      "anonymous": false,
      "inputs": [
        {
          "indexed": true,
          "internalType": "address",
          "name": "userAddress",
          "type": "address"
        },
        {
          "indexed": false,
          "internalType": "string",
          "name": "email",
          "type": "string"
        }
      ],
      "name": "AccountLoggedIn",
      "type": "event"
    },
    {
      "inputs": [
        {
          "internalType": "string",
          "name": "username",
          "type": "string"
        },
        {
          "internalType": "string",
          "name": "email",
          "type": "string"
        },
        {
          "internalType": "bytes32",
          "name": "password",
          "type": "bytes32"
        },
        {
          "internalType": "bytes32",
          "name": "confirmPassword",
          "type": "bytes32"
        }
      ],
      "name": "createAccount",
      "outputs": [],
      "stateMutability": "nonpayable",
      "type": "function"
    },
    {
      "inputs": [
        {
          "internalType": "string",
          "name": "email",
          "type": "string"
        },
        {
          "internalType": "bytes32",
          "name": "password",
          "type": "bytes32"
        }
      ],
      "name": "login",
      "outputs": [],
      "stateMutability": "nonpayable",
      "type": "function"
    },
    {
      "inputs": [],
      "name": "logout",
      "outputs": [],
      "stateMutability": "nonpayable",
      "type": "function"
    },
    {
      "inputs": [
        {
          "internalType": "address",
          "name": "userAddress",
          "type": "address"
        }
      ],
      "name": "getUserRole",
      "outputs": [
        {
          "internalType": "bool",
          "name": "",
          "type": "bool"
        }
      ],
      "stateMutability": "view",
      "type": "function",
      "constant": true
    },
    {
      "inputs": [
        {
          "internalType": "address",
          "name": "metamaskAddress",
          "type": "address"
        }
      ],
      "name": "isMetaMaskRegistered",
      "outputs": [
        {
          "internalType": "bool",
          "name": "",
          "type": "bool"
        }
      ],
      "stateMutability": "view",
      "type": "function",
      "constant": true
    },
    {
      "inputs": [
        {
          "internalType": "address",
          "name": "userAddress",
          "type": "address"
        }
      ],
      "name": "getUserEmail",
      "outputs": [
        {
          "internalType": "string",
          "name": "",
          "type": "string"
        }
      ],
      "stateMutability": "view",
      "type": "function",
      "constant": true
    },
    {
      "inputs": [],
      "name": "getAllUserEmails",
      "outputs": [
        {
          "internalType": "string[]",
          "name": "",
          "type": "string[]"
        }
      ],
      "stateMutability": "view",
      "type": "function",
      "constant": true
    },
    {
      "inputs": [
        {
          "internalType": "string",
          "name": "userEmail",
          "type": "string"
        }
      ],
      "name": "getMetaMaskAddressByEmail",
      "outputs": [
        {
          "internalType": "address",
          "name": "",
          "type": "address"
        }
      ],
      "stateMutability": "view",
      "type": "function",
      "constant": true
    },
    {
      "inputs": [
        {
          "internalType": "string",
          "name": "email",
          "type": "string"
        }
      ],
      "name": "getUsernameByEmail",
      "outputs": [
        {
          "internalType": "string",
          "name": "",
          "type": "string"
        }
      ],
      "stateMutability": "view",
      "type": "function",
      "constant": true
    }
  ],
  "bytecode": "0x608060405234801561001057600080fd5b50611d1b806100206000396000f3fe608060405234801561001057600080fd5b50600436106100935760003560e01c80632d812e08116100665780632d812e081461010c5780636cb337791461013c5780636d905d08146101585780636e764763146101885780639480e948146101b857610093565b806304f75406146100985780630d9acc5c146100b45780631f3c99c3146100d257806327820851146100dc575b600080fd5b6100b260048036038101906100ad919061111f565b6101e8565b005b6100bc610474565b6040516100c991906112bc565b60405180910390f35b6100da61054d565b005b6100f660048036038101906100f1919061133c565b610633565b6040516101039190611384565b60405180910390f35b6101266004803603810190610121919061139f565b61068b565b6040516101339190611432565b60405180910390f35b61015660048036038101906101519190611454565b6107a2565b005b610172600480360381019061016d919061133c565b610d2d565b60405161017f9190611384565b60405180910390f35b6101a2600480360381019061019d919061139f565b610d83565b6040516101af9190611502565b60405180910390f35b6101d260048036038101906101cd919061133c565b610dcb565b6040516101df9190611432565b60405180910390f35b600073ffffffffffffffffffffffffffffffffffffffff166002836040516102109190611559565b908152602001604051809103902060009054906101000a900473ffffffffffffffffffffffffffffffffffffffff1673ffffffffffffffffffffffffffffffffffffffff1603610295576040517f08c379a000000000000000000000000000000000000000000000000000000000815260040161028c906115bc565b60405180910390fd5b60006002836040516102a79190611559565b908152602001604051809103902060009054906101000a900473ffffffffffffffffffffffffffffffffffffffff169050816000808373ffffffffffffffffffffffffffffffffffffffff1673ffffffffffffffffffffffffffffffffffffffff168152602001908152602001600020600201541461035b576040517f08c379a000000000000000000000000000000000000000000000000000000000815260040161035290611628565b60405180910390fd5b3373ffffffffffffffffffffffffffffffffffffffff168173ffffffffffffffffffffffffffffffffffffffff16146103c9576040517f08c379a00000000000000000000000000000000000000000000000000000000081526004016103c090611694565b60405180910390fd5b6001600360008373ffffffffffffffffffffffffffffffffffffffff1673ffffffffffffffffffffffffffffffffffffffff16815260200190815260200160002060006101000a81548160ff0219169083151502179055508073ffffffffffffffffffffffffffffffffffffffff167fd755b30ca80ce0c71b04956d1ad12ad22159d9d0c5bf8efd6a48f1a6031775bf846040516104679190611432565b60405180910390a2505050565b60606006805480602002602001604051908101604052809291908181526020016000905b828210156105445783829060005260206000200180546104b7906116e3565b80601f01602080910402602001604051908101604052809291908181526020018280546104e3906116e3565b80156105305780601f1061050557610100808354040283529160200191610530565b820191906000526020600020905b81548152906001019060200180831161051357829003601f168201915b505050505081526020019060010190610498565b50505050905090565b600360003373ffffffffffffffffffffffffffffffffffffffff1673ffffffffffffffffffffffffffffffffffffffff16815260200190815260200160002060009054906101000a900460ff166105d9576040517f08c379a00000000000000000000000000000000000000000000000000000000081526004016105d090611760565b60405180910390fd5b6000600360003373ffffffffffffffffffffffffffffffffffffffff1673ffffffffffffffffffffffffffffffffffffffff16815260200190815260200160002060006101000a81548160ff021916908315150217905550565b60008060008373ffffffffffffffffffffffffffffffffffffffff1673ffffffffffffffffffffffffffffffffffffffff16815260200190815260200160002060030160009054906101000a900460ff169050919050565b6060600060028360405161069f9190611559565b908152602001604051809103902060009054906101000a900473ffffffffffffffffffffffffffffffffffffffff1690506000808273ffffffffffffffffffffffffffffffffffffffff1673ffffffffffffffffffffffffffffffffffffffff168152602001908152602001600020600001805461071c906116e3565b80601f0160208091040260200160405190810160405280929190818152602001828054610748906116e3565b80156107955780601f1061076a57610100808354040283529160200191610795565b820191906000526020600020905b81548152906001019060200180831161077857829003601f168201915b5050505050915050919050565b8082146107e4576040517f08c379a00000000000000000000000000000000000000000000000000000000081526004016107db906117cc565b60405180910390fd5b600073ffffffffffffffffffffffffffffffffffffffff1660018560405161080c9190611559565b908152602001604051809103902060009054906101000a900473ffffffffffffffffffffffffffffffffffffffff1673ffffffffffffffffffffffffffffffffffffffff1614610891576040517f08c379a000000000000000000000000000000000000000000000000000000000815260040161088890611838565b60405180910390fd5b600073ffffffffffffffffffffffffffffffffffffffff166002846040516108b99190611559565b908152602001604051809103902060009054906101000a900473ffffffffffffffffffffffffffffffffffffffff1673ffffffffffffffffffffffffffffffffffffffff161461093e576040517f08c379a0000000000000000000000000000000000000000000000000000000008152600401610935906118a4565b60405180910390fd5b600460003373ffffffffffffffffffffffffffffffffffffffff1673ffffffffffffffffffffffffffffffffffffffff16815260200190815260200160002060009054906101000a900460ff16156109cb576040517f08c379a00000000000000000000000000000000000000000000000000000000081526004016109c290611936565b60405180910390fd5b600033905060006109dd868686610e9c565b905060405180608001604052808781526020018681526020018581526020018215158152506000808473ffffffffffffffffffffffffffffffffffffffff1673ffffffffffffffffffffffffffffffffffffffff1681526020019081526020016000206000820151816000019081610a559190611b0c565b506020820151816001019081610a6b9190611b0c565b506040820151816002015560608201518160030160006101000a81548160ff02191690831515021790555090505081600187604051610aaa9190611559565b908152602001604051809103902060006101000a81548173ffffffffffffffffffffffffffffffffffffffff021916908373ffffffffffffffffffffffffffffffffffffffff16021790555081600286604051610b079190611559565b908152602001604051809103902060006101000a81548173ffffffffffffffffffffffffffffffffffffffff021916908373ffffffffffffffffffffffffffffffffffffffff1602179055506001600360008473ffffffffffffffffffffffffffffffffffffffff1673ffffffffffffffffffffffffffffffffffffffff16815260200190815260200160002060006101000a81548160ff0219169083151502179055506001600460008473ffffffffffffffffffffffffffffffffffffffff1673ffffffffffffffffffffffffffffffffffffffff16815260200190815260200160002060006101000a81548160ff02191690831515021790555084600560008473ffffffffffffffffffffffffffffffffffffffff1673ffffffffffffffffffffffffffffffffffffffff1681526020019081526020016000209081610c4f9190611b0c565b50600685908060018154018082558091505060019003906000526020600020016000909190919091509081610c849190611b0c565b508173ffffffffffffffffffffffffffffffffffffffff167feeb5d3f3fcb5777e1c9c3ccc9806bd0a095fa63eaa616dcc4802dfdf03b46d3c878784604051610ccf93929190611bde565b60405180910390a28173ffffffffffffffffffffffffffffffffffffffff167fd755b30ca80ce0c71b04956d1ad12ad22159d9d0c5bf8efd6a48f1a6031775bf86604051610d1d9190611432565b60405180910390a2505050505050565b6000600460008373ffffffffffffffffffffffffffffffffffffffff1673ffffffffffffffffffffffffffffffffffffffff16815260200190815260200160002060009054906101000a900460ff169050919050565b6000600282604051610d959190611559565b908152602001604051809103902060009054906101000a900473ffffffffffffffffffffffffffffffffffffffff169050919050565b6060600560008373ffffffffffffffffffffffffffffffffffffffff1673ffffffffffffffffffffffffffffffffffffffff1681526020019081526020016000208054610e17906116e3565b80601f0160208091040260200160405190810160405280929190818152602001828054610e43906116e3565b8015610e905780601f10610e6557610100808354040283529160200191610e90565b820191906000526020600020905b815481529060010190602001808311610e7357829003601f168201915b50505050509050919050565b6000604051602001610ead90611c6f565b6040516020818303038152906040528051906020012084604051602001610ed49190611559565b60405160208183030381529060405280519060200120148015610f405750604051602001610f0190611cd0565b6040516020818303038152906040528051906020012083604051602001610f289190611559565b60405160208183030381529060405280519060200120145b8015610f755750604051602001610f5690611c6f565b6040516020818303038152906040528051906020012060001c60001b82145b15610f835760019050610f88565b600090505b9392505050565b6000604051905090565b600080fd5b600080fd5b600080fd5b600080fd5b6000601f19601f8301169050919050565b7f4e487b7100000000000000000000000000000000000000000000000000000000600052604160045260246000fd5b610ff682610fad565b810181811067ffffffffffffffff8211171561101557611014610fbe565b5b80604052505050565b6000611028610f8f565b90506110348282610fed565b919050565b600067ffffffffffffffff82111561105457611053610fbe565b5b61105d82610fad565b9050602081019050919050565b82818337600083830152505050565b600061108c61108784611039565b61101e565b9050828152602081018484840111156110a8576110a7610fa8565b5b6110b384828561106a565b509392505050565b600082601f8301126110d0576110cf610fa3565b5b81356110e0848260208601611079565b91505092915050565b6000819050919050565b6110fc816110e9565b811461110757600080fd5b50565b600081359050611119816110f3565b92915050565b6000806040838503121561113657611135610f99565b5b600083013567ffffffffffffffff81111561115457611153610f9e565b5b611160858286016110bb565b92505060206111718582860161110a565b9150509250929050565b600081519050919050565b600082825260208201905092915050565b6000819050602082019050919050565b600081519050919050565b600082825260208201905092915050565b60005b838110156111e15780820151818401526020810190506111c6565b60008484015250505050565b60006111f8826111a7565b61120281856111b2565b93506112128185602086016111c3565b61121b81610fad565b840191505092915050565b600061123283836111ed565b905092915050565b6000602082019050919050565b60006112528261117b565b61125c8185611186565b93508360208202850161126e85611197565b8060005b858110156112aa578484038952815161128b8582611226565b94506112968361123a565b925060208a01995050600181019050611272565b50829750879550505050505092915050565b600060208201905081810360008301526112d68184611247565b905092915050565b600073ffffffffffffffffffffffffffffffffffffffff82169050919050565b6000611309826112de565b9050919050565b611319816112fe565b811461132457600080fd5b50565b60008135905061133681611310565b92915050565b60006020828403121561135257611351610f99565b5b600061136084828501611327565b91505092915050565b60008115159050919050565b61137e81611369565b82525050565b60006020820190506113996000830184611375565b92915050565b6000602082840312156113b5576113b4610f99565b5b600082013567ffffffffffffffff8111156113d3576113d2610f9e565b5b6113df848285016110bb565b91505092915050565b600082825260208201905092915050565b6000611404826111a7565b61140e81856113e8565b935061141e8185602086016111c3565b61142781610fad565b840191505092915050565b6000602082019050818103600083015261144c81846113f9565b905092915050565b6000806000806080858703121561146e5761146d610f99565b5b600085013567ffffffffffffffff81111561148c5761148b610f9e565b5b611498878288016110bb565b945050602085013567ffffffffffffffff8111156114b9576114b8610f9e565b5b6114c5878288016110bb565b93505060406114d68782880161110a565b92505060606114e78782880161110a565b91505092959194509250565b6114fc816112fe565b82525050565b600060208201905061151760008301846114f3565b92915050565b600081905092915050565b6000611533826111a7565b61153d818561151d565b935061154d8185602086016111c3565b80840191505092915050565b60006115658284611528565b915081905092915050565b7f456d61696c206e6f7420666f756e640000000000000000000000000000000000600082015250565b60006115a6600f836113e8565b91506115b182611570565b602082019050919050565b600060208201905081810360008301526115d581611599565b9050919050565b7f496e76616c69642070617373776f726400000000000000000000000000000000600082015250565b60006116126010836113e8565b915061161d826115dc565b602082019050919050565b6000602082019050818103600083015261164181611605565b9050919050565b7f496e76616c6964204d6574614d61736b20616464726573730000000000000000600082015250565b600061167e6018836113e8565b915061168982611648565b602082019050919050565b600060208201905081810360008301526116ad81611671565b9050919050565b7f4e487b7100000000000000000000000000000000000000000000000000000000600052602260045260246000fd5b600060028204905060018216806116fb57607f821691505b60208210810361170e5761170d6116b4565b5b50919050565b7f4e6f74206c6f6767656420696e00000000000000000000000000000000000000600082015250565b600061174a600d836113e8565b915061175582611714565b602082019050919050565b600060208201905081810360008301526117798161173d565b9050919050565b7f50617373776f72647320646f206e6f74206d6174636800000000000000000000600082015250565b60006117b66016836113e8565b91506117c182611780565b602082019050919050565b600060208201905081810360008301526117e5816117a9565b9050919050565b7f557365726e616d6520616c726561647920657869737473000000000000000000600082015250565b60006118226017836113e8565b915061182d826117ec565b602082019050919050565b6000602082019050818103600083015261185181611815565b9050919050565b7f456d61696c20616c726561647920657869737473000000000000000000000000600082015250565b600061188e6014836113e8565b915061189982611858565b602082019050919050565b600060208201905081810360008301526118bd81611881565b9050919050565b7f4d6574614d61736b206164647265737320616c7265616479207265676973746560008201527f7265640000000000000000000000000000000000000000000000000000000000602082015250565b60006119206023836113e8565b915061192b826118c4565b604082019050919050565b6000602082019050818103600083015261194f81611913565b9050919050565b60008190508160005260206000209050919050565b60006020601f8301049050919050565b600082821b905092915050565b6000600883026119b87fffffffffffffffffffffffffffffffffffffffffffffffffffffffffffffffff8261197b565b6119c2868361197b565b95508019841693508086168417925050509392505050565b6000819050919050565b6000819050919050565b6000611a09611a046119ff846119da565b6119e4565b6119da565b9050919050565b6000819050919050565b611a23836119ee565b611a37611a2f82611a10565b848454611988565b825550505050565b600090565b611a4c611a3f565b611a57818484611a1a565b505050565b5b81811015611a7b57611a70600082611a44565b600181019050611a5d565b5050565b601f821115611ac057611a9181611956565b611a9a8461196b565b81016020851015611aa9578190505b611abd611ab58561196b565b830182611a5c565b50505b505050565b600082821c905092915050565b6000611ae360001984600802611ac5565b1980831691505092915050565b6000611afc8383611ad2565b9150826002028217905092915050565b611b15826111a7565b67ffffffffffffffff811115611b2e57611b2d610fbe565b5b611b3882546116e3565b611b43828285611a7f565b600060209050601f831160018114611b765760008415611b64578287015190505b611b6e8582611af0565b865550611bd6565b601f198416611b8486611956565b60005b82811015611bac57848901518255600182019150602085019450602081019050611b87565b86831015611bc95784890151611bc5601f891682611ad2565b8355505b6001600288020188555050505b505050505050565b60006060820190508181036000830152611bf881866113f9565b90508181036020830152611c0c81856113f9565b9050611c1b6040830184611375565b949350505050565b7f61646d696e000000000000000000000000000000000000000000000000000000600082015250565b6000611c5960058361151d565b9150611c6482611c23565b600582019050919050565b6000611c7a82611c4c565b9150819050919050565b7f61646d696e40626c6f636b636861696e2e636f6d000000000000000000000000600082015250565b6000611cba60148361151d565b9150611cc582611c84565b601482019050919050565b6000611cdb82611cad565b915081905091905056fea264697066735822122004e28b487b7131b0ef97da9682da09483e4d0147eab43ccc820ae092352c1a2564736f6c63430008130033",
  "immutableReferences": {},
  "source": "// SPDX-License-Identifier: MIT\r\npragma solidity ^0.8.0;\r\n\r\ncontract Auth {\r\n    struct User {\r\n        string username;\r\n        string email;\r\n        bytes32 password;\r\n        bool isAdmin;\r\n    }\r\n\r\n    mapping (address => User) private users;\r\n    mapping (string => address) private usernameToAddress;\r\n    mapping (string => address) private emailToAddress;\r\n    mapping (address => bool) private loggedIn;\r\n    mapping (address => bool) private metamaskRegistered;\r\n    mapping (address => string) private metamaskToEmail; // New mapping to store MetaMask address to email\r\n    string[] private allEmails; // New array to store all email addresses\r\n\r\n    event AccountCreated(address indexed userAddress, string username, string email, bool isAdmin);\r\n    event AccountLoggedIn(address indexed userAddress, string email);\r\n\r\n    function createAccount(string memory username, string memory email, bytes32 password, bytes32 confirmPassword) public {\r\n        require(password == confirmPassword, \"Passwords do not match\");\r\n        require(usernameToAddress[username] == address(0), \"Username already exists\");\r\n        require(emailToAddress[email] == address(0), \"Email already exists\");\r\n        require(!metamaskRegistered[msg.sender], \"MetaMask address already registered\");\r\n\r\n        address userAddress = msg.sender;\r\n        bool isAdmin = isAdminUser(username, email, password);\r\n        users[userAddress] = User(username, email, password, isAdmin);\r\n        usernameToAddress[username] = userAddress;\r\n        emailToAddress[email] = userAddress;\r\n        loggedIn[userAddress] = true;\r\n        metamaskRegistered[userAddress] = true;\r\n        metamaskToEmail[userAddress] = email; // Store the email associated with MetaMask address\r\n        allEmails.push(email);\r\n\r\n        emit AccountCreated(userAddress, username, email, isAdmin);\r\n        emit AccountLoggedIn(userAddress, email);\r\n    }\r\n\r\n    function login(string memory email, bytes32 password) public {\r\n        require(emailToAddress[email] != address(0), \"Email not found\");\r\n        address userAddress = emailToAddress[email];\r\n        require(users[userAddress].password == password, \"Invalid password\");\r\n        require(userAddress == msg.sender, \"Invalid MetaMask address\");\r\n        loggedIn[userAddress] = true;\r\n        emit AccountLoggedIn(userAddress, email);\r\n    }\r\n\r\n    function logout() public {\r\n        require(loggedIn[msg.sender], \"Not logged in\");\r\n        loggedIn[msg.sender] = false;\r\n    }\r\n\r\n    function getUserRole(address userAddress) public view returns (bool) {\r\n        return users[userAddress].isAdmin;\r\n    }\r\n\r\n    function isAdminUser(string memory username, string memory email, bytes32 password) private pure returns (bool) {\r\n        // Check if the specified user should be an admin\r\n        if (\r\n            keccak256(abi.encodePacked(username)) == keccak256(abi.encodePacked(\"admin\")) &&\r\n            keccak256(abi.encodePacked(email)) == keccak256(abi.encodePacked(\"admin@blockchain.com\")) &&\r\n            password == bytes32(uint256(keccak256(abi.encodePacked(\"admin\"))))\r\n        ) {\r\n            return true;\r\n        } else {\r\n            return false;\r\n        }\r\n    }\r\n\r\n    function isMetaMaskRegistered(address metamaskAddress) public view returns (bool) {\r\n        return metamaskRegistered[metamaskAddress];\r\n    }\r\n\r\n    function getUserEmail(address userAddress) public view returns (string memory) {\r\n        return metamaskToEmail[userAddress];\r\n    }\r\n\r\n     function getAllUserEmails() public view returns (string[] memory) {\r\n        return allEmails;\r\n    }\r\n\r\n    function getMetaMaskAddressByEmail(string memory userEmail) public view returns (address) {\r\n         return emailToAddress[userEmail];\r\n}\r\n    function getUsernameByEmail(string memory email) public view returns (string memory) {\r\n        address userAddress = emailToAddress[email];\r\n        return users[userAddress].username;\r\n    }\r\n\r\n}\r\n",
  "sourcePath": "D:\\repos\\License\\voting-app\\src\\contracts\\Auth.sol",
  "compiler": {
    "name": "solc",
    "version": "0.8.19+commit.7dd6d404.Emscripten.clang"
  },
  "schemaVersion": "3.4.13",
  "updatedAt": "2023-06-16T17:26:01.262Z",
  "networkType": "ethereum",
  "devdoc": {
    "kind": "dev",
    "methods": {},
    "version": 1
  },
  "userdoc": {
    "kind": "user",
    "methods": {},
    "version": 1
  }
}