{
  "contractName": "Auth",
  "abi": [
    {
      "anonymous": false,
      "inputs": [
        {
          "indexed": true,
          "internalType": "address",
          "name": "userAddress",
          "type": "address"
        },
        {
          "indexed": false,
          "internalType": "string",
          "name": "username",
          "type": "string"
        },
        {
          "indexed": false,
          "internalType": "string",
          "name": "email",
          "type": "string"
        }
      ],
      "name": "AccountCreated",
      "type": "event"
    },
    {
      "anonymous": false,
      "inputs": [
        {
          "indexed": true,
          "internalType": "address",
          "name": "userAddress",
          "type": "address"
        },
        {
          "indexed": false,
          "internalType": "string",
          "name": "email",
          "type": "string"
        }
      ],
      "name": "AccountLoggedIn",
      "type": "event"
    },
    {
      "inputs": [
        {
          "internalType": "string",
          "name": "username",
          "type": "string"
        },
        {
          "internalType": "string",
          "name": "email",
          "type": "string"
        },
        {
          "internalType": "bytes32",
          "name": "password",
          "type": "bytes32"
        },
        {
          "internalType": "bytes32",
          "name": "confirmPassword",
          "type": "bytes32"
        }
      ],
      "name": "createAccount",
      "outputs": [],
      "stateMutability": "nonpayable",
      "type": "function"
    },
    {
      "inputs": [
        {
          "internalType": "string",
          "name": "email",
          "type": "string"
        },
        {
          "internalType": "bytes32",
          "name": "password",
          "type": "bytes32"
        }
      ],
      "name": "login",
      "outputs": [],
      "stateMutability": "nonpayable",
      "type": "function"
    },
    {
      "inputs": [],
      "name": "logout",
      "outputs": [],
      "stateMutability": "nonpayable",
      "type": "function"
    }
  ],
  "bytecode": "0x608060405234801561001057600080fd5b5061102e806100206000396000f3fe608060405234801561001057600080fd5b50600436106100415760003560e01c806304f75406146100465780631f3c99c3146100625780636cb337791461006c575b600080fd5b610060600480360381019061005b9190610862565b610088565b005b61006a6102a7565b005b610086600480360381019061008191906108be565b61038d565b005b600073ffffffffffffffffffffffffffffffffffffffff166001836040516100b091906109ce565b908152602001604051809103902060009054906101000a900473ffffffffffffffffffffffffffffffffffffffff1673ffffffffffffffffffffffffffffffffffffffff1603610135576040517f08c379a000000000000000000000000000000000000000000000000000000000815260040161012c90610a42565b60405180910390fd5b600060018360405161014791906109ce565b908152602001604051809103902060009054906101000a900473ffffffffffffffffffffffffffffffffffffffff16905081600260008373ffffffffffffffffffffffffffffffffffffffff1673ffffffffffffffffffffffffffffffffffffffff16815260200190815260200160002060020154146101fc576040517f08c379a00000000000000000000000000000000000000000000000000000000081526004016101f390610aae565b60405180910390fd5b6001600360008373ffffffffffffffffffffffffffffffffffffffff1673ffffffffffffffffffffffffffffffffffffffff16815260200190815260200160002060006101000a81548160ff0219169083151502179055508073ffffffffffffffffffffffffffffffffffffffff167fd755b30ca80ce0c71b04956d1ad12ad22159d9d0c5bf8efd6a48f1a6031775bf8460405161029a9190610b07565b60405180910390a2505050565b600360003373ffffffffffffffffffffffffffffffffffffffff1673ffffffffffffffffffffffffffffffffffffffff16815260200190815260200160002060009054906101000a900460ff16610333576040517f08c379a000000000000000000000000000000000000000000000000000000000815260040161032a90610b75565b60405180910390fd5b6000600360003373ffffffffffffffffffffffffffffffffffffffff1673ffffffffffffffffffffffffffffffffffffffff16815260200190815260200160002060006101000a81548160ff021916908315150217905550565b8082146103cf576040517f08c379a00000000000000000000000000000000000000000000000000000000081526004016103c690610be1565b60405180910390fd5b600073ffffffffffffffffffffffffffffffffffffffff166000856040516103f791906109ce565b908152602001604051809103902060009054906101000a900473ffffffffffffffffffffffffffffffffffffffff1673ffffffffffffffffffffffffffffffffffffffff161461047c576040517f08c379a000000000000000000000000000000000000000000000000000000000815260040161047390610c4d565b60405180910390fd5b600073ffffffffffffffffffffffffffffffffffffffff166001846040516104a491906109ce565b908152602001604051809103902060009054906101000a900473ffffffffffffffffffffffffffffffffffffffff1673ffffffffffffffffffffffffffffffffffffffff1614610529576040517f08c379a000000000000000000000000000000000000000000000000000000000815260040161052090610cb9565b60405180910390fd5b6000339050604051806060016040528086815260200185815260200184815250600260008373ffffffffffffffffffffffffffffffffffffffff1673ffffffffffffffffffffffffffffffffffffffff168152602001908152602001600020600082015181600001908161059d9190610eef565b5060208201518160010190816105b39190610eef565b5060408201518160020155905050806000866040516105d291906109ce565b908152602001604051809103902060006101000a81548173ffffffffffffffffffffffffffffffffffffffff021916908373ffffffffffffffffffffffffffffffffffffffff1602179055508060018560405161062f91906109ce565b908152602001604051809103902060006101000a81548173ffffffffffffffffffffffffffffffffffffffff021916908373ffffffffffffffffffffffffffffffffffffffff1602179055508073ffffffffffffffffffffffffffffffffffffffff167fc0aeb94f00ab755d522e33588ad4d9a9f6d7b62d88ec529f7dffa861292517c586866040516106c3929190610fc1565b60405180910390a25050505050565b6000604051905090565b600080fd5b600080fd5b600080fd5b600080fd5b6000601f19601f8301169050919050565b7f4e487b7100000000000000000000000000000000000000000000000000000000600052604160045260246000fd5b610739826106f0565b810181811067ffffffffffffffff8211171561075857610757610701565b5b80604052505050565b600061076b6106d2565b90506107778282610730565b919050565b600067ffffffffffffffff82111561079757610796610701565b5b6107a0826106f0565b9050602081019050919050565b82818337600083830152505050565b60006107cf6107ca8461077c565b610761565b9050828152602081018484840111156107eb576107ea6106eb565b5b6107f68482856107ad565b509392505050565b600082601f830112610813576108126106e6565b5b81356108238482602086016107bc565b91505092915050565b6000819050919050565b61083f8161082c565b811461084a57600080fd5b50565b60008135905061085c81610836565b92915050565b60008060408385031215610879576108786106dc565b5b600083013567ffffffffffffffff811115610897576108966106e1565b5b6108a3858286016107fe565b92505060206108b48582860161084d565b9150509250929050565b600080600080608085870312156108d8576108d76106dc565b5b600085013567ffffffffffffffff8111156108f6576108f56106e1565b5b610902878288016107fe565b945050602085013567ffffffffffffffff811115610923576109226106e1565b5b61092f878288016107fe565b93505060406109408782880161084d565b92505060606109518782880161084d565b91505092959194509250565b600081519050919050565b600081905092915050565b60005b83811015610991578082015181840152602081019050610976565b60008484015250505050565b60006109a88261095d565b6109b28185610968565b93506109c2818560208601610973565b80840191505092915050565b60006109da828461099d565b915081905092915050565b600082825260208201905092915050565b7f456d61696c206e6f7420666f756e640000000000000000000000000000000000600082015250565b6000610a2c600f836109e5565b9150610a37826109f6565b602082019050919050565b60006020820190508181036000830152610a5b81610a1f565b9050919050565b7f496e76616c69642070617373776f726400000000000000000000000000000000600082015250565b6000610a986010836109e5565b9150610aa382610a62565b602082019050919050565b60006020820190508181036000830152610ac781610a8b565b9050919050565b6000610ad98261095d565b610ae381856109e5565b9350610af3818560208601610973565b610afc816106f0565b840191505092915050565b60006020820190508181036000830152610b218184610ace565b905092915050565b7f4e6f74206c6f6767656420696e00000000000000000000000000000000000000600082015250565b6000610b5f600d836109e5565b9150610b6a82610b29565b602082019050919050565b60006020820190508181036000830152610b8e81610b52565b9050919050565b7f50617373776f72647320646f206e6f74206d6174636800000000000000000000600082015250565b6000610bcb6016836109e5565b9150610bd682610b95565b602082019050919050565b60006020820190508181036000830152610bfa81610bbe565b9050919050565b7f557365726e616d6520616c726561647920657869737473000000000000000000600082015250565b6000610c376017836109e5565b9150610c4282610c01565b602082019050919050565b60006020820190508181036000830152610c6681610c2a565b9050919050565b7f456d61696c20616c726561647920657869737473000000000000000000000000600082015250565b6000610ca36014836109e5565b9150610cae82610c6d565b602082019050919050565b60006020820190508181036000830152610cd281610c96565b9050919050565b7f4e487b7100000000000000000000000000000000000000000000000000000000600052602260045260246000fd5b60006002820490506001821680610d2057607f821691505b602082108103610d3357610d32610cd9565b5b50919050565b60008190508160005260206000209050919050565b60006020601f8301049050919050565b600082821b905092915050565b600060088302610d9b7fffffffffffffffffffffffffffffffffffffffffffffffffffffffffffffffff82610d5e565b610da58683610d5e565b95508019841693508086168417925050509392505050565b6000819050919050565b6000819050919050565b6000610dec610de7610de284610dbd565b610dc7565b610dbd565b9050919050565b6000819050919050565b610e0683610dd1565b610e1a610e1282610df3565b848454610d6b565b825550505050565b600090565b610e2f610e22565b610e3a818484610dfd565b505050565b5b81811015610e5e57610e53600082610e27565b600181019050610e40565b5050565b601f821115610ea357610e7481610d39565b610e7d84610d4e565b81016020851015610e8c578190505b610ea0610e9885610d4e565b830182610e3f565b50505b505050565b600082821c905092915050565b6000610ec660001984600802610ea8565b1980831691505092915050565b6000610edf8383610eb5565b9150826002028217905092915050565b610ef88261095d565b67ffffffffffffffff811115610f1157610f10610701565b5b610f1b8254610d08565b610f26828285610e62565b600060209050601f831160018114610f595760008415610f47578287015190505b610f518582610ed3565b865550610fb9565b601f198416610f6786610d39565b60005b82811015610f8f57848901518255600182019150602085019450602081019050610f6a565b86831015610fac5784890151610fa8601f891682610eb5565b8355505b6001600288020188555050505b505050505050565b60006040820190508181036000830152610fdb8185610ace565b90508181036020830152610fef8184610ace565b9050939250505056fea2646970667358221220a6f53d30284edf7b19c9d7b7ccc3a8b0a02b827ab50118f57c9808e4e671980c64736f6c63430008130033",
  "immutableReferences": {},
  "source": "/// SPDX-License-Identifier: MIT\r\npragma solidity ^0.8.0;\r\n\r\ncontract Auth {\r\n    \r\n    struct User {\r\n        string username;\r\n        string email;\r\n        bytes32 password;\r\n    }\r\n\r\n    mapping (string => address) private usernameToAddress;\r\n    mapping (string => address) private emailToAddress;\r\n    mapping (address => User) private users;\r\n    mapping (address => bool) private loggedIn;\r\n\r\n    event AccountCreated(address indexed userAddress, string username, string email);\r\n    event AccountLoggedIn(address indexed userAddress, string email);\r\n\r\n    function createAccount(string memory username, string memory email, bytes32 password, bytes32 confirmPassword) public {\r\n        require(password == confirmPassword, \"Passwords do not match\");\r\n        require(usernameToAddress[username] == address(0), \"Username already exists\");\r\n        require(emailToAddress[email] == address(0), \"Email already exists\");\r\n\r\n        address userAddress = msg.sender;\r\n        users[userAddress] = User(username, email, password);\r\n        usernameToAddress[username] = userAddress;\r\n        emailToAddress[email] = userAddress;\r\n\r\n        emit AccountCreated(userAddress, username, email);\r\n    }\r\n\r\n    function login(string memory email, bytes32 password) public {\r\n        require(emailToAddress[email] != address(0), \"Email not found\");\r\n        address userAddress = emailToAddress[email];\r\n        require(users[userAddress].password == password, \"Invalid password\");\r\n\r\n        loggedIn[userAddress] = true;\r\n        emit AccountLoggedIn(userAddress, email);\r\n    }\r\n\r\n    function logout() public {\r\n        require(loggedIn[msg.sender], \"Not logged in\");\r\n\r\n        loggedIn[msg.sender] = false;\r\n    }\r\n}\r\n",
  "sourcePath": "D:\\repos\\License\\voting-app\\src\\contracts\\Auth.sol",
  "compiler": {
    "name": "solc",
    "version": "0.8.19+commit.7dd6d404.Emscripten.clang"
  },
  "schemaVersion": "3.4.13",
  "updatedAt": "2023-05-06T09:22:26.003Z",
  "networkType": "ethereum",
  "devdoc": {
    "kind": "dev",
    "methods": {},
    "version": 1
  },
  "userdoc": {
    "kind": "user",
    "methods": {},
    "version": 1
  }
}