{
  "contractName": "Auth",
  "abi": [
    {
      "anonymous": false,
      "inputs": [
        {
          "indexed": true,
          "internalType": "address",
          "name": "userAddress",
          "type": "address"
        },
        {
          "indexed": false,
          "internalType": "string",
          "name": "username",
          "type": "string"
        },
        {
          "indexed": false,
          "internalType": "string",
          "name": "email",
          "type": "string"
        },
        {
          "indexed": false,
          "internalType": "bool",
          "name": "isAdmin",
          "type": "bool"
        }
      ],
      "name": "AccountCreated",
      "type": "event"
    },
    {
      "anonymous": false,
      "inputs": [
        {
          "indexed": true,
          "internalType": "address",
          "name": "userAddress",
          "type": "address"
        },
        {
          "indexed": false,
          "internalType": "string",
          "name": "email",
          "type": "string"
        }
      ],
      "name": "AccountLoggedIn",
      "type": "event"
    },
    {
      "inputs": [
        {
          "internalType": "string",
          "name": "username",
          "type": "string"
        },
        {
          "internalType": "string",
          "name": "email",
          "type": "string"
        },
        {
          "internalType": "bytes32",
          "name": "password",
          "type": "bytes32"
        },
        {
          "internalType": "bytes32",
          "name": "confirmPassword",
          "type": "bytes32"
        }
      ],
      "name": "createAccount",
      "outputs": [],
      "stateMutability": "nonpayable",
      "type": "function"
    },
    {
      "inputs": [
        {
          "internalType": "string",
          "name": "email",
          "type": "string"
        },
        {
          "internalType": "bytes32",
          "name": "password",
          "type": "bytes32"
        }
      ],
      "name": "login",
      "outputs": [],
      "stateMutability": "nonpayable",
      "type": "function"
    },
    {
      "inputs": [],
      "name": "logout",
      "outputs": [],
      "stateMutability": "nonpayable",
      "type": "function"
    },
    {
      "inputs": [
        {
          "internalType": "address",
          "name": "userAddress",
          "type": "address"
        }
      ],
      "name": "getUserRole",
      "outputs": [
        {
          "internalType": "bool",
          "name": "",
          "type": "bool"
        }
      ],
      "stateMutability": "view",
      "type": "function",
      "constant": true
    }
  ],
  "bytecode": "0x608060405234801561001057600080fd5b50611674806100206000396000f3fe608060405234801561001057600080fd5b506004361061004c5760003560e01c806304f75406146100515780631f3c99c31461006d57806327820851146100775780636cb33779146100a7575b600080fd5b61006b60048036038101906100669190610c19565b6100c3565b005b61007561034f565b005b610091600480360381019061008c9190610cd3565b610435565b60405161009e9190610d1b565b60405180910390f35b6100c160048036038101906100bc9190610d36565b61048d565b005b600073ffffffffffffffffffffffffffffffffffffffff166002836040516100eb9190610e46565b908152602001604051809103902060009054906101000a900473ffffffffffffffffffffffffffffffffffffffff1673ffffffffffffffffffffffffffffffffffffffff1603610170576040517f08c379a000000000000000000000000000000000000000000000000000000000815260040161016790610eba565b60405180910390fd5b60006002836040516101829190610e46565b908152602001604051809103902060009054906101000a900473ffffffffffffffffffffffffffffffffffffffff169050816000808373ffffffffffffffffffffffffffffffffffffffff1673ffffffffffffffffffffffffffffffffffffffff1681526020019081526020016000206002015414610236576040517f08c379a000000000000000000000000000000000000000000000000000000000815260040161022d90610f26565b60405180910390fd5b3373ffffffffffffffffffffffffffffffffffffffff168173ffffffffffffffffffffffffffffffffffffffff16146102a4576040517f08c379a000000000000000000000000000000000000000000000000000000000815260040161029b90610f92565b60405180910390fd5b6001600360008373ffffffffffffffffffffffffffffffffffffffff1673ffffffffffffffffffffffffffffffffffffffff16815260200190815260200160002060006101000a81548160ff0219169083151502179055508073ffffffffffffffffffffffffffffffffffffffff167fd755b30ca80ce0c71b04956d1ad12ad22159d9d0c5bf8efd6a48f1a6031775bf846040516103429190610feb565b60405180910390a2505050565b600360003373ffffffffffffffffffffffffffffffffffffffff1673ffffffffffffffffffffffffffffffffffffffff16815260200190815260200160002060009054906101000a900460ff166103db576040517f08c379a00000000000000000000000000000000000000000000000000000000081526004016103d290611059565b60405180910390fd5b6000600360003373ffffffffffffffffffffffffffffffffffffffff1673ffffffffffffffffffffffffffffffffffffffff16815260200190815260200160002060006101000a81548160ff021916908315150217905550565b60008060008373ffffffffffffffffffffffffffffffffffffffff1673ffffffffffffffffffffffffffffffffffffffff16815260200190815260200160002060030160009054906101000a900460ff169050919050565b8082146104cf576040517f08c379a00000000000000000000000000000000000000000000000000000000081526004016104c6906110c5565b60405180910390fd5b600073ffffffffffffffffffffffffffffffffffffffff166001856040516104f79190610e46565b908152602001604051809103902060009054906101000a900473ffffffffffffffffffffffffffffffffffffffff1673ffffffffffffffffffffffffffffffffffffffff161461057c576040517f08c379a000000000000000000000000000000000000000000000000000000000815260040161057390611131565b60405180910390fd5b600073ffffffffffffffffffffffffffffffffffffffff166002846040516105a49190610e46565b908152602001604051809103902060009054906101000a900473ffffffffffffffffffffffffffffffffffffffff1673ffffffffffffffffffffffffffffffffffffffff1614610629576040517f08c379a00000000000000000000000000000000000000000000000000000000081526004016106209061119d565b60405180910390fd5b600460003373ffffffffffffffffffffffffffffffffffffffff1673ffffffffffffffffffffffffffffffffffffffff16815260200190815260200160002060009054906101000a900460ff16156106b6576040517f08c379a00000000000000000000000000000000000000000000000000000000081526004016106ad9061122f565b60405180910390fd5b600033905060006106c8868686610996565b905060405180608001604052808781526020018681526020018581526020018215158152506000808473ffffffffffffffffffffffffffffffffffffffff1673ffffffffffffffffffffffffffffffffffffffff16815260200190815260200160002060008201518160000190816107409190611465565b5060208201518160010190816107569190611465565b506040820151816002015560608201518160030160006101000a81548160ff021916908315150217905550905050816001876040516107959190610e46565b908152602001604051809103902060006101000a81548173ffffffffffffffffffffffffffffffffffffffff021916908373ffffffffffffffffffffffffffffffffffffffff160217905550816002866040516107f29190610e46565b908152602001604051809103902060006101000a81548173ffffffffffffffffffffffffffffffffffffffff021916908373ffffffffffffffffffffffffffffffffffffffff1602179055506001600360008473ffffffffffffffffffffffffffffffffffffffff1673ffffffffffffffffffffffffffffffffffffffff16815260200190815260200160002060006101000a81548160ff0219169083151502179055506001600460008473ffffffffffffffffffffffffffffffffffffffff1673ffffffffffffffffffffffffffffffffffffffff16815260200190815260200160002060006101000a81548160ff0219169083151502179055508173ffffffffffffffffffffffffffffffffffffffff167feeb5d3f3fcb5777e1c9c3ccc9806bd0a095fa63eaa616dcc4802dfdf03b46d3c87878460405161093893929190611537565b60405180910390a28173ffffffffffffffffffffffffffffffffffffffff167fd755b30ca80ce0c71b04956d1ad12ad22159d9d0c5bf8efd6a48f1a6031775bf866040516109869190610feb565b60405180910390a2505050505050565b60006040516020016109a7906115c8565b60405160208183030381529060405280519060200120846040516020016109ce9190610e46565b60405160208183030381529060405280519060200120148015610a3a57506040516020016109fb90611629565b6040516020818303038152906040528051906020012083604051602001610a229190610e46565b60405160208183030381529060405280519060200120145b8015610a6f5750604051602001610a50906115c8565b6040516020818303038152906040528051906020012060001c60001b82145b15610a7d5760019050610a82565b600090505b9392505050565b6000604051905090565b600080fd5b600080fd5b600080fd5b600080fd5b6000601f19601f8301169050919050565b7f4e487b7100000000000000000000000000000000000000000000000000000000600052604160045260246000fd5b610af082610aa7565b810181811067ffffffffffffffff82111715610b0f57610b0e610ab8565b5b80604052505050565b6000610b22610a89565b9050610b2e8282610ae7565b919050565b600067ffffffffffffffff821115610b4e57610b4d610ab8565b5b610b5782610aa7565b9050602081019050919050565b82818337600083830152505050565b6000610b86610b8184610b33565b610b18565b905082815260208101848484011115610ba257610ba1610aa2565b5b610bad848285610b64565b509392505050565b600082601f830112610bca57610bc9610a9d565b5b8135610bda848260208601610b73565b91505092915050565b6000819050919050565b610bf681610be3565b8114610c0157600080fd5b50565b600081359050610c1381610bed565b92915050565b60008060408385031215610c3057610c2f610a93565b5b600083013567ffffffffffffffff811115610c4e57610c4d610a98565b5b610c5a85828601610bb5565b9250506020610c6b85828601610c04565b9150509250929050565b600073ffffffffffffffffffffffffffffffffffffffff82169050919050565b6000610ca082610c75565b9050919050565b610cb081610c95565b8114610cbb57600080fd5b50565b600081359050610ccd81610ca7565b92915050565b600060208284031215610ce957610ce8610a93565b5b6000610cf784828501610cbe565b91505092915050565b60008115159050919050565b610d1581610d00565b82525050565b6000602082019050610d306000830184610d0c565b92915050565b60008060008060808587031215610d5057610d4f610a93565b5b600085013567ffffffffffffffff811115610d6e57610d6d610a98565b5b610d7a87828801610bb5565b945050602085013567ffffffffffffffff811115610d9b57610d9a610a98565b5b610da787828801610bb5565b9350506040610db887828801610c04565b9250506060610dc987828801610c04565b91505092959194509250565b600081519050919050565b600081905092915050565b60005b83811015610e09578082015181840152602081019050610dee565b60008484015250505050565b6000610e2082610dd5565b610e2a8185610de0565b9350610e3a818560208601610deb565b80840191505092915050565b6000610e528284610e15565b915081905092915050565b600082825260208201905092915050565b7f456d61696c206e6f7420666f756e640000000000000000000000000000000000600082015250565b6000610ea4600f83610e5d565b9150610eaf82610e6e565b602082019050919050565b60006020820190508181036000830152610ed381610e97565b9050919050565b7f496e76616c69642070617373776f726400000000000000000000000000000000600082015250565b6000610f10601083610e5d565b9150610f1b82610eda565b602082019050919050565b60006020820190508181036000830152610f3f81610f03565b9050919050565b7f496e76616c6964204d6574614d61736b20616464726573730000000000000000600082015250565b6000610f7c601883610e5d565b9150610f8782610f46565b602082019050919050565b60006020820190508181036000830152610fab81610f6f565b9050919050565b6000610fbd82610dd5565b610fc78185610e5d565b9350610fd7818560208601610deb565b610fe081610aa7565b840191505092915050565b600060208201905081810360008301526110058184610fb2565b905092915050565b7f4e6f74206c6f6767656420696e00000000000000000000000000000000000000600082015250565b6000611043600d83610e5d565b915061104e8261100d565b602082019050919050565b6000602082019050818103600083015261107281611036565b9050919050565b7f50617373776f72647320646f206e6f74206d6174636800000000000000000000600082015250565b60006110af601683610e5d565b91506110ba82611079565b602082019050919050565b600060208201905081810360008301526110de816110a2565b9050919050565b7f557365726e616d6520616c726561647920657869737473000000000000000000600082015250565b600061111b601783610e5d565b9150611126826110e5565b602082019050919050565b6000602082019050818103600083015261114a8161110e565b9050919050565b7f456d61696c20616c726561647920657869737473000000000000000000000000600082015250565b6000611187601483610e5d565b915061119282611151565b602082019050919050565b600060208201905081810360008301526111b68161117a565b9050919050565b7f4d6574614d61736b206164647265737320616c7265616479207265676973746560008201527f7265640000000000000000000000000000000000000000000000000000000000602082015250565b6000611219602383610e5d565b9150611224826111bd565b604082019050919050565b600060208201905081810360008301526112488161120c565b9050919050565b7f4e487b7100000000000000000000000000000000000000000000000000000000600052602260045260246000fd5b6000600282049050600182168061129657607f821691505b6020821081036112a9576112a861124f565b5b50919050565b60008190508160005260206000209050919050565b60006020601f8301049050919050565b600082821b905092915050565b6000600883026113117fffffffffffffffffffffffffffffffffffffffffffffffffffffffffffffffff826112d4565b61131b86836112d4565b95508019841693508086168417925050509392505050565b6000819050919050565b6000819050919050565b600061136261135d61135884611333565b61133d565b611333565b9050919050565b6000819050919050565b61137c83611347565b61139061138882611369565b8484546112e1565b825550505050565b600090565b6113a5611398565b6113b0818484611373565b505050565b5b818110156113d4576113c960008261139d565b6001810190506113b6565b5050565b601f821115611419576113ea816112af565b6113f3846112c4565b81016020851015611402578190505b61141661140e856112c4565b8301826113b5565b50505b505050565b600082821c905092915050565b600061143c6000198460080261141e565b1980831691505092915050565b6000611455838361142b565b9150826002028217905092915050565b61146e82610dd5565b67ffffffffffffffff81111561148757611486610ab8565b5b611491825461127e565b61149c8282856113d8565b600060209050601f8311600181146114cf57600084156114bd578287015190505b6114c78582611449565b86555061152f565b601f1984166114dd866112af565b60005b82811015611505578489015182556001820191506020850194506020810190506114e0565b86831015611522578489015161151e601f89168261142b565b8355505b6001600288020188555050505b505050505050565b600060608201905081810360008301526115518186610fb2565b905081810360208301526115658185610fb2565b90506115746040830184610d0c565b949350505050565b7f61646d696e000000000000000000000000000000000000000000000000000000600082015250565b60006115b2600583610de0565b91506115bd8261157c565b600582019050919050565b60006115d3826115a5565b9150819050919050565b7f61646d696e40626c6f636b636861696e2e636f6d000000000000000000000000600082015250565b6000611613601483610de0565b915061161e826115dd565b601482019050919050565b600061163482611606565b915081905091905056fea26469706673582212201ebea129d26e382a1c7f25c55771756c836c1a071261b2cfb608c5ae4a47910864736f6c63430008130033",
  "immutableReferences": {},
  "source": "// SPDX-License-Identifier: MIT\r\npragma solidity ^0.8.0;\r\n\r\ncontract Auth {\r\n    struct User {\r\n        string username;\r\n        string email;\r\n        bytes32 password;\r\n        bool isAdmin;\r\n    }\r\n\r\n    mapping (address => User) private users;\r\n    mapping (string => address) private usernameToAddress;\r\n    mapping (string => address) private emailToAddress;\r\n    mapping (address => bool) private loggedIn;\r\n    mapping (address => bool) private metamaskRegistered;\r\n\r\n    event AccountCreated(address indexed userAddress, string username, string email, bool isAdmin);\r\n    event AccountLoggedIn(address indexed userAddress, string email);\r\n\r\n    function createAccount(string memory username, string memory email, bytes32 password, bytes32 confirmPassword) public {\r\n        require(password == confirmPassword, \"Passwords do not match\");\r\n        require(usernameToAddress[username] == address(0), \"Username already exists\");\r\n        require(emailToAddress[email] == address(0), \"Email already exists\");\r\n        require(!metamaskRegistered[msg.sender], \"MetaMask address already registered\");\r\n\r\n        address userAddress = msg.sender;\r\n        bool isAdmin = isAdminUser(username, email, password);\r\n        users[userAddress] = User(username, email, password, isAdmin);\r\n        usernameToAddress[username] = userAddress;\r\n        emailToAddress[email] = userAddress;\r\n        loggedIn[userAddress] = true;\r\n        metamaskRegistered[userAddress] = true;\r\n\r\n        emit AccountCreated(userAddress, username, email, isAdmin);\r\n        emit AccountLoggedIn(userAddress, email);\r\n    }\r\n\r\n    function login(string memory email, bytes32 password) public {\r\n        require(emailToAddress[email] != address(0), \"Email not found\");\r\n    address userAddress = emailToAddress[email];\r\n    require(users[userAddress].password == password, \"Invalid password\");\r\n    require(userAddress == msg.sender, \"Invalid MetaMask address\");\r\n        loggedIn[userAddress] = true;\r\n        emit AccountLoggedIn(userAddress, email);\r\n    }\r\n\r\n    function logout() public {\r\n        require(loggedIn[msg.sender], \"Not logged in\");\r\n\r\n        loggedIn[msg.sender] = false;\r\n    }\r\n\r\n    function getUserRole(address userAddress) public view returns (bool) {\r\n        return users[userAddress].isAdmin;\r\n    }\r\n\r\n    function isAdminUser(string memory username, string memory email, bytes32 password) private pure returns (bool) {\r\n        // Check if the specified user should be an admin\r\n        if (\r\n            keccak256(abi.encodePacked(username)) == keccak256(abi.encodePacked(\"admin\")) &&\r\n            keccak256(abi.encodePacked(email)) == keccak256(abi.encodePacked(\"admin@blockchain.com\")) &&\r\n            password == bytes32(uint256(keccak256(abi.encodePacked(\"admin\"))))\r\n        ) {\r\n            return true;\r\n        } else {\r\n            return false;\r\n        }\r\n    }\r\n}\r\n",
  "sourcePath": "D:\\repos\\License\\voting-app\\src\\contracts\\Auth.sol",
  "compiler": {
    "name": "solc",
    "version": "0.8.19+commit.7dd6d404.Emscripten.clang"
  },
  "schemaVersion": "3.4.13",
  "updatedAt": "2023-05-27T15:53:12.331Z",
  "networkType": "ethereum",
  "devdoc": {
    "kind": "dev",
    "methods": {},
    "version": 1
  },
  "userdoc": {
    "kind": "user",
    "methods": {},
    "version": 1
  }
}