{
  "contractName": "AuthContract",
  "abi": [
    {
      "inputs": [
        {
          "internalType": "string",
          "name": "_username",
          "type": "string"
        },
        {
          "internalType": "string",
          "name": "_email",
          "type": "string"
        },
        {
          "internalType": "string",
          "name": "_password",
          "type": "string"
        }
      ],
      "name": "register",
      "outputs": [],
      "stateMutability": "nonpayable",
      "type": "function"
    },
    {
      "inputs": [
        {
          "internalType": "string",
          "name": "_email",
          "type": "string"
        },
        {
          "internalType": "string",
          "name": "_password",
          "type": "string"
        }
      ],
      "name": "login",
      "outputs": [
        {
          "internalType": "bool",
          "name": "",
          "type": "bool"
        }
      ],
      "stateMutability": "view",
      "type": "function"
    },
    {
      "inputs": [
        {
          "internalType": "address",
          "name": "_metamaskAddress",
          "type": "address"
        }
      ],
      "name": "isMetamaskAddressTaken",
      "outputs": [
        {
          "internalType": "bool",
          "name": "",
          "type": "bool"
        }
      ],
      "stateMutability": "view",
      "type": "function"
    },
    {
      "inputs": [
        {
          "internalType": "address",
          "name": "_metamaskAddress",
          "type": "address"
        }
      ],
      "name": "setUserMetamaskAddress",
      "outputs": [],
      "stateMutability": "nonpayable",
      "type": "function"
    },
    {
      "inputs": [
        {
          "internalType": "address",
          "name": "_userAddress",
          "type": "address"
        }
      ],
      "name": "getUserEmail",
      "outputs": [
        {
          "internalType": "string",
          "name": "",
          "type": "string"
        }
      ],
      "stateMutability": "view",
      "type": "function"
    }
  ],
  "bytecode": "0x608060405234801561001057600080fd5b50611474806100206000396000f3fe608060405234801561001057600080fd5b50600436106100575760003560e01c80631a4abe341461005c5780634cd08d031461008c57806358467dbc146100a85780639480e948146100d8578063a40bfe3714610108575b600080fd5b61007660048036038101906100719190610946565b610124565b604051610083919061098e565b60405180910390f35b6100a660048036038101906100a19190610aef565b6101d9565b005b6100c260048036038101906100bd9190610b96565b610455565b6040516100cf919061098e565b60405180910390f35b6100f260048036038101906100ed9190610946565b610556565b6040516100ff9190610c8d565b60405180910390f35b610122600480360381019061011d9190610946565b6106ea565b005b600080600090505b6000805490508110156101ce578273ffffffffffffffffffffffffffffffffffffffff166000828154811061016457610163610caf565b5b906000526020600020906004020160030160009054906101000a900473ffffffffffffffffffffffffffffffffffffffff1673ffffffffffffffffffffffffffffffffffffffff16036101bb5760019150506101d4565b80806101c690610d17565b91505061012c565b50600090505b919050565b6001836040516101e99190610d9b565b908152602001604051809103902060009054906101000a900460ff1615610245576040517f08c379a000000000000000000000000000000000000000000000000000000000815260040161023c90610dfe565b60405180910390fd5b6002826040516102559190610d9b565b908152602001604051809103902060009054906101000a900460ff16156102b1576040517f08c379a00000000000000000000000000000000000000000000000000000000081526004016102a890610e6a565b60405180910390fd5b60088151116102f5576040517f08c379a00000000000000000000000000000000000000000000000000000000081526004016102ec90610ed6565b60405180910390fd5b60006040518060800160405280858152602001848152602001838152602001600073ffffffffffffffffffffffffffffffffffffffff168152509080600181540180825580915050600190039060005260206000209060040201600090919091909150600082015181600001908161036d9190611102565b5060208201518160010190816103839190611102565b5060408201518160020190816103999190611102565b5060608201518160030160006101000a81548173ffffffffffffffffffffffffffffffffffffffff021916908373ffffffffffffffffffffffffffffffffffffffff1602179055505050600180846040516103f49190610d9b565b908152602001604051809103902060006101000a81548160ff021916908315150217905550600160028360405161042b9190610d9b565b908152602001604051809103902060006101000a81548160ff021916908315150217905550505050565b60006002836040516104679190610d9b565b908152602001604051809103902060009054906101000a900460ff166104c2576040517f08c379a00000000000000000000000000000000000000000000000000000000081526004016104b990611220565b60405180910390fd5b818051906020012060006104d58561081b565b815481106104e6576104e5610caf565b5b906000526020600020906004020160020160405161050491906112e3565b60405180910390201461054c576040517f08c379a000000000000000000000000000000000000000000000000000000000815260040161054390611346565b60405180910390fd5b6001905092915050565b606060005b6000805490508110156106a9578273ffffffffffffffffffffffffffffffffffffffff166000828154811061059357610592610caf565b5b906000526020600020906004020160030160009054906101000a900473ffffffffffffffffffffffffffffffffffffffff1673ffffffffffffffffffffffffffffffffffffffff160361069657600081815481106105f4576105f3610caf565b5b9060005260206000209060040201600101805461061090610f25565b80601f016020809104026020016040519081016040528092919081815260200182805461063c90610f25565b80156106895780601f1061065e57610100808354040283529160200191610689565b820191906000526020600020905b81548152906001019060200180831161066c57829003601f168201915b50505050509150506106e5565b80806106a190610d17565b91505061055b565b506040517f08c379a00000000000000000000000000000000000000000000000000000000081526004016106dc906113b2565b60405180910390fd5b919050565b60006106fd6106f833610556565b61081b565b9050600073ffffffffffffffffffffffffffffffffffffffff166000828154811061072b5761072a610caf565b5b906000526020600020906004020160030160009054906101000a900473ffffffffffffffffffffffffffffffffffffffff1673ffffffffffffffffffffffffffffffffffffffff16146107b3576040517f08c379a00000000000000000000000000000000000000000000000000000000081526004016107aa9061141e565b60405180910390fd5b81600082815481106107c8576107c7610caf565b5b906000526020600020906004020160030160006101000a81548173ffffffffffffffffffffffffffffffffffffffff021916908373ffffffffffffffffffffffffffffffffffffffff1602179055505050565b600080600090505b6000805490508110156108935782805190602001206000828154811061084c5761084b610caf565b5b906000526020600020906004020160010160405161086a91906112e3565b60405180910390200361088057809150506108cf565b808061088b90610d17565b915050610823565b506040517f08c379a00000000000000000000000000000000000000000000000000000000081526004016108c690611220565b60405180910390fd5b919050565b6000604051905090565b600080fd5b600080fd5b600073ffffffffffffffffffffffffffffffffffffffff82169050919050565b6000610913826108e8565b9050919050565b61092381610908565b811461092e57600080fd5b50565b6000813590506109408161091a565b92915050565b60006020828403121561095c5761095b6108de565b5b600061096a84828501610931565b91505092915050565b60008115159050919050565b61098881610973565b82525050565b60006020820190506109a3600083018461097f565b92915050565b600080fd5b600080fd5b6000601f19601f8301169050919050565b7f4e487b7100000000000000000000000000000000000000000000000000000000600052604160045260246000fd5b6109fc826109b3565b810181811067ffffffffffffffff82111715610a1b57610a1a6109c4565b5b80604052505050565b6000610a2e6108d4565b9050610a3a82826109f3565b919050565b600067ffffffffffffffff821115610a5a57610a596109c4565b5b610a63826109b3565b9050602081019050919050565b82818337600083830152505050565b6000610a92610a8d84610a3f565b610a24565b905082815260208101848484011115610aae57610aad6109ae565b5b610ab9848285610a70565b509392505050565b600082601f830112610ad657610ad56109a9565b5b8135610ae6848260208601610a7f565b91505092915050565b600080600060608486031215610b0857610b076108de565b5b600084013567ffffffffffffffff811115610b2657610b256108e3565b5b610b3286828701610ac1565b935050602084013567ffffffffffffffff811115610b5357610b526108e3565b5b610b5f86828701610ac1565b925050604084013567ffffffffffffffff811115610b8057610b7f6108e3565b5b610b8c86828701610ac1565b9150509250925092565b60008060408385031215610bad57610bac6108de565b5b600083013567ffffffffffffffff811115610bcb57610bca6108e3565b5b610bd785828601610ac1565b925050602083013567ffffffffffffffff811115610bf857610bf76108e3565b5b610c0485828601610ac1565b9150509250929050565b600081519050919050565b600082825260208201905092915050565b60005b83811015610c48578082015181840152602081019050610c2d565b60008484015250505050565b6000610c5f82610c0e565b610c698185610c19565b9350610c79818560208601610c2a565b610c82816109b3565b840191505092915050565b60006020820190508181036000830152610ca78184610c54565b905092915050565b7f4e487b7100000000000000000000000000000000000000000000000000000000600052603260045260246000fd5b7f4e487b7100000000000000000000000000000000000000000000000000000000600052601160045260246000fd5b6000819050919050565b6000610d2282610d0d565b91507fffffffffffffffffffffffffffffffffffffffffffffffffffffffffffffffff8203610d5457610d53610cde565b5b600182019050919050565b600081905092915050565b6000610d7582610c0e565b610d7f8185610d5f565b9350610d8f818560208601610c2a565b80840191505092915050565b6000610da78284610d6a565b915081905092915050565b7f557365726e616d6520616c7265616479206578697374732e0000000000000000600082015250565b6000610de8601883610c19565b9150610df382610db2565b602082019050919050565b60006020820190508181036000830152610e1781610ddb565b9050919050565b7f456d61696c20616c7265616479206578697374732e0000000000000000000000600082015250565b6000610e54601583610c19565b9150610e5f82610e1e565b602082019050919050565b60006020820190508181036000830152610e8381610e47565b9050919050565b7f50617373776f726420697320746f6f207765616b2e0000000000000000000000600082015250565b6000610ec0601583610c19565b9150610ecb82610e8a565b602082019050919050565b60006020820190508181036000830152610eef81610eb3565b9050919050565b7f4e487b7100000000000000000000000000000000000000000000000000000000600052602260045260246000fd5b60006002820490506001821680610f3d57607f821691505b602082108103610f5057610f4f610ef6565b5b50919050565b60008190508160005260206000209050919050565b60006020601f8301049050919050565b600082821b905092915050565b600060088302610fb87fffffffffffffffffffffffffffffffffffffffffffffffffffffffffffffffff82610f7b565b610fc28683610f7b565b95508019841693508086168417925050509392505050565b6000819050919050565b6000610fff610ffa610ff584610d0d565b610fda565b610d0d565b9050919050565b6000819050919050565b61101983610fe4565b61102d61102582611006565b848454610f88565b825550505050565b600090565b611042611035565b61104d818484611010565b505050565b5b818110156110715761106660008261103a565b600181019050611053565b5050565b601f8211156110b65761108781610f56565b61109084610f6b565b8101602085101561109f578190505b6110b36110ab85610f6b565b830182611052565b50505b505050565b600082821c905092915050565b60006110d9600019846008026110bb565b1980831691505092915050565b60006110f283836110c8565b9150826002028217905092915050565b61110b82610c0e565b67ffffffffffffffff811115611124576111236109c4565b5b61112e8254610f25565b611139828285611075565b600060209050601f83116001811461116c576000841561115a578287015190505b61116485826110e6565b8655506111cc565b601f19841661117a86610f56565b60005b828110156111a25784890151825560018201915060208501945060208101905061117d565b868310156111bf57848901516111bb601f8916826110c8565b8355505b6001600288020188555050505b505050505050565b7f456d61696c206e6f7420666f756e642e00000000000000000000000000000000600082015250565b600061120a601083610c19565b9150611215826111d4565b602082019050919050565b60006020820190508181036000830152611239816111fd565b9050919050565b600081905092915050565b60008190508160005260206000209050919050565b6000815461126d81610f25565b6112778186611240565b9450600182166000811461129257600181146112a7576112da565b60ff19831686528115158202860193506112da565b6112b08561124b565b60005b838110156112d2578154818901526001820191506020810190506112b3565b838801955050505b50505092915050565b60006112ef8284611260565b915081905092915050565b7f496e76616c69642070617373776f72642e000000000000000000000000000000600082015250565b6000611330601183610c19565b915061133b826112fa565b602082019050919050565b6000602082019050818103600083015261135f81611323565b9050919050565b7f55736572206e6f7420666f756e642e0000000000000000000000000000000000600082015250565b600061139c600f83610c19565b91506113a782611366565b602082019050919050565b600060208201905081810360008301526113cb8161138f565b9050919050565b7f4d6574616d61736b206164647265737320616c7265616479207365742e000000600082015250565b6000611408601d83610c19565b9150611413826113d2565b602082019050919050565b60006020820190508181036000830152611437816113fb565b905091905056fea2646970667358221220a634ef54631a41ac193359b14c38d3e22d26d06e05efa6877dc3cff0a440f6da64736f6c63430008130033",
  "immutableReferences": {},
  "source": "// SPDX-License-Identifier: MIT\r\npragma solidity >=0.4.22 <0.9.0;\r\n\r\ncontract AuthContract {\r\n    struct User {\r\n        string username;\r\n        string email;\r\n        string password;\r\n        address metamaskAddress;\r\n    }\r\n\r\n    User[] private users;\r\n    mapping(string => bool) private usernames;\r\n    mapping(string => bool) private emails;\r\n\r\n    function register(string memory _username, string memory _email, string memory _password) public {\r\n        require(!usernames[_username], \"Username already exists.\");\r\n        require(!emails[_email], \"Email already exists.\");\r\n        require(bytes(_password).length > 8, \"Password is too weak.\");\r\n\r\n        users.push(User(_username, _email, _password, address(0)));\r\n        usernames[_username] = true;\r\n        emails[_email] = true;\r\n    }\r\n\r\n    function login(string memory _email, string memory _password) public view returns (bool) {\r\n        require(emails[_email], \"Email not found.\");\r\n        require(keccak256(bytes(users[getEmailIndex(_email)].password)) == keccak256(bytes(_password)), \"Invalid password.\");\r\n\r\n        return true;\r\n    }\r\n\r\n    function isMetamaskAddressTaken(address _metamaskAddress) public view returns (bool) {\r\n        for (uint i = 0; i < users.length; i++) {\r\n            if (users[i].metamaskAddress == _metamaskAddress) {\r\n                return true;\r\n            }\r\n        }\r\n        return false;\r\n    }\r\n\r\n    function getEmailIndex(string memory _email) private view returns (uint) {\r\n        for (uint i = 0; i < users.length; i++) {\r\n            if (keccak256(bytes(users[i].email)) == keccak256(bytes(_email))) {\r\n                return i;\r\n            }\r\n        }\r\n        revert(\"Email not found.\");\r\n    }\r\n\r\n    function setUserMetamaskAddress(address _metamaskAddress) public {\r\n        uint userIndex = getEmailIndex(getUserEmail(msg.sender));\r\n        require(users[userIndex].metamaskAddress == address(0), \"Metamask address already set.\");\r\n        users[userIndex].metamaskAddress = _metamaskAddress;\r\n    }\r\n\r\n    function getUserEmail(address _userAddress) public view returns (string memory) {\r\n        for (uint i = 0; i < users.length; i++) {\r\n            if (users[i].metamaskAddress == _userAddress) {\r\n                return users[i].email;\r\n            }\r\n        }\r\n        revert(\"User not found.\");\r\n    }\r\n}",
  "sourcePath": "D:\\repos\\License\\voting-app\\src\\contracts\\Auth.sol",
  "compiler": {
    "name": "solc",
    "version": "0.8.19+commit.7dd6d404.Emscripten.clang"
  },
  "schemaVersion": "3.4.13",
  "updatedAt": "2023-05-01T17:06:33.187Z",
  "devdoc": {
    "kind": "dev",
    "methods": {},
    "version": 1
  },
  "userdoc": {
    "kind": "user",
    "methods": {},
    "version": 1
  }
}