{
  "contractName": "VoterRegistration",
  "abi": [
    {
      "inputs": [
        {
          "internalType": "contract Auth",
          "name": "_authContract",
          "type": "address"
        }
      ],
      "stateMutability": "nonpayable",
      "type": "constructor"
    },
    {
      "inputs": [
        {
          "internalType": "address",
          "name": "metamaskAddress",
          "type": "address"
        },
        {
          "internalType": "uint256",
          "name": "cnp",
          "type": "uint256"
        }
      ],
      "name": "verifyMetaMaskAddress",
      "outputs": [],
      "stateMutability": "nonpayable",
      "type": "function"
    },
    {
      "inputs": [
        {
          "internalType": "address",
          "name": "metamaskAddress",
          "type": "address"
        }
      ],
      "name": "getEmailByMetaMaskAddress",
      "outputs": [
        {
          "internalType": "string",
          "name": "",
          "type": "string"
        }
      ],
      "stateMutability": "view",
      "type": "function",
      "constant": true
    },
    {
      "inputs": [
        {
          "internalType": "string",
          "name": "userEmail",
          "type": "string"
        }
      ],
      "name": "getCNPByEmail",
      "outputs": [
        {
          "internalType": "uint256",
          "name": "",
          "type": "uint256"
        }
      ],
      "stateMutability": "view",
      "type": "function",
      "constant": true
    },
    {
      "inputs": [
        {
          "internalType": "uint256",
          "name": "cnp",
          "type": "uint256"
        }
      ],
      "name": "getMetaMaskAddressByCNP",
      "outputs": [
        {
          "internalType": "address",
          "name": "",
          "type": "address"
        }
      ],
      "stateMutability": "view",
      "type": "function",
      "constant": true
    },
    {
      "inputs": [
        {
          "internalType": "address",
          "name": "metamaskAddress",
          "type": "address"
        },
        {
          "internalType": "bool",
          "name": "verified",
          "type": "bool"
        }
      ],
      "name": "setMetamaskVerified",
      "outputs": [],
      "stateMutability": "nonpayable",
      "type": "function"
    },
    {
      "inputs": [
        {
          "internalType": "address",
          "name": "metamaskAddress",
          "type": "address"
        }
      ],
      "name": "isMetamaskVerified",
      "outputs": [
        {
          "internalType": "bool",
          "name": "",
          "type": "bool"
        }
      ],
      "stateMutability": "view",
      "type": "function",
      "constant": true
    },
    {
      "inputs": [
        {
          "internalType": "address",
          "name": "metamaskAddress",
          "type": "address"
        }
      ],
      "name": "isAddressVerified",
      "outputs": [
        {
          "internalType": "bool",
          "name": "",
          "type": "bool"
        }
      ],
      "stateMutability": "view",
      "type": "function",
      "constant": true
    }
  ],
  "bytecode": "0x60806040523480156200001157600080fd5b5060405162001368380380620013688339818101604052810190620000379190620000fc565b806000806101000a81548173ffffffffffffffffffffffffffffffffffffffff021916908373ffffffffffffffffffffffffffffffffffffffff160217905550506200012e565b600080fd5b600073ffffffffffffffffffffffffffffffffffffffff82169050919050565b6000620000b08262000083565b9050919050565b6000620000c482620000a3565b9050919050565b620000d681620000b7565b8114620000e257600080fd5b50565b600081519050620000f681620000cb565b92915050565b6000602082840312156200011557620001146200007e565b5b60006200012584828501620000e5565b91505092915050565b61122a806200013e6000396000f3fe608060405234801561001057600080fd5b506004361061007d5760003560e01c8063a40fff4d1161005b578063a40fff4d146100fe578063b5ab4e461461012e578063da9dd8bf1461014a578063f39e280c1461017a5761007d565b8063342890c2146100825780633d63e997146100b25780636b82e8c3146100ce575b600080fd5b61009c60048036038101906100979190610842565b6101aa565b6040516100a991906108ff565b60405180910390f35b6100cc60048036038101906100c79190610959565b61027b565b005b6100e860048036038101906100e391906109cf565b6102d6565b6040516100f59190610a0b565b60405180910390f35b61011860048036038101906101139190610842565b610313565b6040516101259190610a35565b60405180910390f35b61014860048036038101906101439190610a50565b610369565b005b610164600480360381019061015f9190610842565b6106b0565b6040516101719190610a35565b60405180910390f35b610194600480360381019061018f9190610bc5565b6107a8565b6040516101a19190610c1d565b60405180910390f35b6060600160008373ffffffffffffffffffffffffffffffffffffffff1673ffffffffffffffffffffffffffffffffffffffff16815260200190815260200160002080546101f690610c67565b80601f016020809104026020016040519081016040528092919081815260200182805461022290610c67565b801561026f5780601f106102445761010080835404028352916020019161026f565b820191906000526020600020905b81548152906001019060200180831161025257829003601f168201915b50505050509050919050565b80600460008473ffffffffffffffffffffffffffffffffffffffff1673ffffffffffffffffffffffffffffffffffffffff16815260200190815260200160002060006101000a81548160ff0219169083151502179055505050565b60006003600083815260200190815260200160002060009054906101000a900473ffffffffffffffffffffffffffffffffffffffff169050919050565b6000600460008373ffffffffffffffffffffffffffffffffffffffff1673ffffffffffffffffffffffffffffffffffffffff16815260200190815260200160002060009054906101000a900460ff169050919050565b60008054906101000a900473ffffffffffffffffffffffffffffffffffffffff1673ffffffffffffffffffffffffffffffffffffffff16636d905d08836040518263ffffffff1660e01b81526004016103c29190610a0b565b602060405180830381865afa1580156103df573d6000803e3d6000fd5b505050506040513d601f19601f820116820180604052508101906104039190610cad565b610442576040517f08c379a000000000000000000000000000000000000000000000000000000000815260040161043990610d26565b60405180910390fd5b60008060009054906101000a900473ffffffffffffffffffffffffffffffffffffffff1673ffffffffffffffffffffffffffffffffffffffff16639480e948846040518263ffffffff1660e01b815260040161049e9190610a0b565b600060405180830381865afa1580156104bb573d6000803e3d6000fd5b505050506040513d6000823e3d601f19601f820116820180604052508101906104e49190610db6565b905060006002826040516104f89190610e3b565b90815260200160405180910390205414610547576040517f08c379a000000000000000000000000000000000000000000000000000000000815260040161053e90610ec4565b60405180910390fd5b600073ffffffffffffffffffffffffffffffffffffffff166003600084815260200190815260200160002060009054906101000a900473ffffffffffffffffffffffffffffffffffffffff1673ffffffffffffffffffffffffffffffffffffffff16146105e9576040517f08c379a00000000000000000000000000000000000000000000000000000000081526004016105e090610f56565b60405180910390fd5b80600160008573ffffffffffffffffffffffffffffffffffffffff1673ffffffffffffffffffffffffffffffffffffffff16815260200190815260200160002090816106359190611122565b50816002826040516106479190610e3b565b908152602001604051809103902081905550826003600084815260200190815260200160002060006101000a81548173ffffffffffffffffffffffffffffffffffffffff021916908373ffffffffffffffffffffffffffffffffffffffff160217905550505050565b600080600160008473ffffffffffffffffffffffffffffffffffffffff1673ffffffffffffffffffffffffffffffffffffffff16815260200190815260200160002080546106fd90610c67565b80601f016020809104026020016040519081016040528092919081815260200182805461072990610c67565b80156107765780601f1061074b57610100808354040283529160200191610776565b820191906000526020600020905b81548152906001019060200180831161075957829003601f168201915b50505050509050600060028260405161078f9190610e3b565b9081526020016040518091039020541415915050919050565b60006002826040516107ba9190610e3b565b9081526020016040518091039020549050919050565b6000604051905090565b600080fd5b600080fd5b600073ffffffffffffffffffffffffffffffffffffffff82169050919050565b600061080f826107e4565b9050919050565b61081f81610804565b811461082a57600080fd5b50565b60008135905061083c81610816565b92915050565b600060208284031215610858576108576107da565b5b60006108668482850161082d565b91505092915050565b600081519050919050565b600082825260208201905092915050565b60005b838110156108a957808201518184015260208101905061088e565b60008484015250505050565b6000601f19601f8301169050919050565b60006108d18261086f565b6108db818561087a565b93506108eb81856020860161088b565b6108f4816108b5565b840191505092915050565b6000602082019050818103600083015261091981846108c6565b905092915050565b60008115159050919050565b61093681610921565b811461094157600080fd5b50565b6000813590506109538161092d565b92915050565b600080604083850312156109705761096f6107da565b5b600061097e8582860161082d565b925050602061098f85828601610944565b9150509250929050565b6000819050919050565b6109ac81610999565b81146109b757600080fd5b50565b6000813590506109c9816109a3565b92915050565b6000602082840312156109e5576109e46107da565b5b60006109f3848285016109ba565b91505092915050565b610a0581610804565b82525050565b6000602082019050610a2060008301846109fc565b92915050565b610a2f81610921565b82525050565b6000602082019050610a4a6000830184610a26565b92915050565b60008060408385031215610a6757610a666107da565b5b6000610a758582860161082d565b9250506020610a86858286016109ba565b9150509250929050565b600080fd5b600080fd5b7f4e487b7100000000000000000000000000000000000000000000000000000000600052604160045260246000fd5b610ad2826108b5565b810181811067ffffffffffffffff82111715610af157610af0610a9a565b5b80604052505050565b6000610b046107d0565b9050610b108282610ac9565b919050565b600067ffffffffffffffff821115610b3057610b2f610a9a565b5b610b39826108b5565b9050602081019050919050565b82818337600083830152505050565b6000610b68610b6384610b15565b610afa565b905082815260208101848484011115610b8457610b83610a95565b5b610b8f848285610b46565b509392505050565b600082601f830112610bac57610bab610a90565b5b8135610bbc848260208601610b55565b91505092915050565b600060208284031215610bdb57610bda6107da565b5b600082013567ffffffffffffffff811115610bf957610bf86107df565b5b610c0584828501610b97565b91505092915050565b610c1781610999565b82525050565b6000602082019050610c326000830184610c0e565b92915050565b7f4e487b7100000000000000000000000000000000000000000000000000000000600052602260045260246000fd5b60006002820490506001821680610c7f57607f821691505b602082108103610c9257610c91610c38565b5b50919050565b600081519050610ca78161092d565b92915050565b600060208284031215610cc357610cc26107da565b5b6000610cd184828501610c98565b91505092915050565b7f4d6574614d61736b2061646472657373206e6f74207265676973746572656400600082015250565b6000610d10601f8361087a565b9150610d1b82610cda565b602082019050919050565b60006020820190508181036000830152610d3f81610d03565b9050919050565b6000610d59610d5484610b15565b610afa565b905082815260208101848484011115610d7557610d74610a95565b5b610d8084828561088b565b509392505050565b600082601f830112610d9d57610d9c610a90565b5b8151610dad848260208601610d46565b91505092915050565b600060208284031215610dcc57610dcb6107da565b5b600082015167ffffffffffffffff811115610dea57610de96107df565b5b610df684828501610d88565b91505092915050565b600081905092915050565b6000610e158261086f565b610e1f8185610dff565b9350610e2f81856020860161088b565b80840191505092915050565b6000610e478284610e0a565b915081905092915050565b7f434e5020616c7265616479206173736f636961746564207769746820656d616960008201527f6c00000000000000000000000000000000000000000000000000000000000000602082015250565b6000610eae60218361087a565b9150610eb982610e52565b604082019050919050565b60006020820190508181036000830152610edd81610ea1565b9050919050565b7f434e5020616c7265616479206173736f636961746564207769746820616e6f7460008201527f686572204d6574614d61736b2061646472657373000000000000000000000000602082015250565b6000610f4060348361087a565b9150610f4b82610ee4565b604082019050919050565b60006020820190508181036000830152610f6f81610f33565b9050919050565b60008190508160005260206000209050919050565b60006020601f8301049050919050565b600082821b905092915050565b600060088302610fd87fffffffffffffffffffffffffffffffffffffffffffffffffffffffffffffffff82610f9b565b610fe28683610f9b565b95508019841693508086168417925050509392505050565b6000819050919050565b600061101f61101a61101584610999565b610ffa565b610999565b9050919050565b6000819050919050565b61103983611004565b61104d61104582611026565b848454610fa8565b825550505050565b600090565b611062611055565b61106d818484611030565b505050565b5b818110156110915761108660008261105a565b600181019050611073565b5050565b601f8211156110d6576110a781610f76565b6110b084610f8b565b810160208510156110bf578190505b6110d36110cb85610f8b565b830182611072565b50505b505050565b600082821c905092915050565b60006110f9600019846008026110db565b1980831691505092915050565b600061111283836110e8565b9150826002028217905092915050565b61112b8261086f565b67ffffffffffffffff81111561114457611143610a9a565b5b61114e8254610c67565b611159828285611095565b600060209050601f83116001811461118c576000841561117a578287015190505b6111848582611106565b8655506111ec565b601f19841661119a86610f76565b60005b828110156111c25784890151825560018201915060208501945060208101905061119d565b868310156111df57848901516111db601f8916826110e8565b8355505b6001600288020188555050505b50505050505056fea2646970667358221220dec864604947e9ee4a647e603b9c775222dcd869444f424ce09dab8a2933a76b64736f6c63430008130033",
  "immutableReferences": {},
  "source": "// SPDX-License-Identifier: MIT\r\npragma solidity ^0.8.0;\r\n\r\nimport \"./Auth.sol\";\r\n\r\ncontract VoterRegistration {\r\n    Auth private authContract;\r\n    mapping(address => string) private metamaskToEmail;\r\n    mapping(string => uint) private emailToCNP;\r\n    mapping(uint => address) private cnpToAddress;\r\n    mapping(address => bool) private metamaskVerified;\r\n\r\n    constructor(Auth _authContract) {\r\n        authContract = _authContract;\r\n    }\r\n\r\n    function verifyMetaMaskAddress(address metamaskAddress, uint cnp) public {\r\n        require(authContract.isMetaMaskRegistered(metamaskAddress), \"MetaMask address not registered\");\r\n        string memory userEmail = authContract.getUserEmail(metamaskAddress);\r\n        \r\n        require(emailToCNP[userEmail] == 0, \"CNP already associated with email\");\r\n        require(cnpToAddress[cnp] == address(0), \"CNP already associated with another MetaMask address\");\r\n\r\n        metamaskToEmail[metamaskAddress] = userEmail;\r\n        emailToCNP[userEmail] = cnp;\r\n        cnpToAddress[cnp] = metamaskAddress;\r\n    }\r\n\r\n    function getEmailByMetaMaskAddress(address metamaskAddress) public view returns (string memory) {\r\n        return metamaskToEmail[metamaskAddress];\r\n    }\r\n\r\n    function getCNPByEmail(string memory userEmail) public view returns (uint) {\r\n        return emailToCNP[userEmail];\r\n    }\r\n\r\n    function getMetaMaskAddressByCNP(uint cnp) public view returns (address) {\r\n        return cnpToAddress[cnp];\r\n    }\r\n\r\n    function setMetamaskVerified(address metamaskAddress, bool verified) public {\r\n        metamaskVerified[metamaskAddress] = verified;\r\n    }\r\n\r\n    function isMetamaskVerified(address metamaskAddress) public view returns (bool) {\r\n        return metamaskVerified[metamaskAddress];\r\n    }\r\n\r\n     function isAddressVerified(address metamaskAddress) public view returns (bool) {\r\n    string memory userEmail = metamaskToEmail[metamaskAddress];\r\n    return emailToCNP[userEmail] != 0;\r\n}\r\n\r\n\r\n}\r\n\r\n",
  "sourcePath": "D:\\repos\\License\\voting-app\\src\\contracts\\VoterRegistration.sol",
  "compiler": {
    "name": "solc",
    "version": "0.8.19+commit.7dd6d404.Emscripten.clang"
  },
  "schemaVersion": "3.4.13",
  "updatedAt": "2023-06-16T17:26:01.350Z",
  "networkType": "ethereum",
  "devdoc": {
    "kind": "dev",
    "methods": {},
    "version": 1
  },
  "userdoc": {
    "kind": "user",
    "methods": {},
    "version": 1
  }
}