{
  "contractName": "VoterRegistration",
  "abi": [
    {
      "inputs": [
        {
          "internalType": "contract Auth",
          "name": "_authContract",
          "type": "address"
        }
      ],
      "stateMutability": "nonpayable",
      "type": "constructor"
    },
    {
      "inputs": [
        {
          "internalType": "address",
          "name": "metamaskAddress",
          "type": "address"
        },
        {
          "internalType": "uint256",
          "name": "cnp",
          "type": "uint256"
        }
      ],
      "name": "verifyMetaMaskAddress",
      "outputs": [],
      "stateMutability": "nonpayable",
      "type": "function"
    },
    {
      "inputs": [
        {
          "internalType": "address",
          "name": "metamaskAddress",
          "type": "address"
        }
      ],
      "name": "getEmailByMetaMaskAddress",
      "outputs": [
        {
          "internalType": "string",
          "name": "",
          "type": "string"
        }
      ],
      "stateMutability": "view",
      "type": "function",
      "constant": true
    },
    {
      "inputs": [
        {
          "internalType": "string",
          "name": "userEmail",
          "type": "string"
        }
      ],
      "name": "getCNPByEmail",
      "outputs": [
        {
          "internalType": "uint256",
          "name": "",
          "type": "uint256"
        }
      ],
      "stateMutability": "view",
      "type": "function",
      "constant": true
    },
    {
      "inputs": [
        {
          "internalType": "uint256",
          "name": "cnp",
          "type": "uint256"
        }
      ],
      "name": "getMetaMaskAddressByCNP",
      "outputs": [
        {
          "internalType": "address",
          "name": "",
          "type": "address"
        }
      ],
      "stateMutability": "view",
      "type": "function",
      "constant": true
    },
    {
      "inputs": [
        {
          "internalType": "address",
          "name": "metamaskAddress",
          "type": "address"
        },
        {
          "internalType": "bool",
          "name": "verified",
          "type": "bool"
        }
      ],
      "name": "setMetamaskVerified",
      "outputs": [],
      "stateMutability": "nonpayable",
      "type": "function"
    },
    {
      "inputs": [
        {
          "internalType": "address",
          "name": "metamaskAddress",
          "type": "address"
        }
      ],
      "name": "isMetamaskVerified",
      "outputs": [
        {
          "internalType": "bool",
          "name": "",
          "type": "bool"
        }
      ],
      "stateMutability": "view",
      "type": "function",
      "constant": true
    },
    {
      "inputs": [
        {
          "internalType": "address",
          "name": "metamaskAddress",
          "type": "address"
        }
      ],
      "name": "isAddressVerified",
      "outputs": [
        {
          "internalType": "bool",
          "name": "",
          "type": "bool"
        }
      ],
      "stateMutability": "view",
      "type": "function",
      "constant": true
    },
    {
      "inputs": [],
      "name": "getAllCNPs",
      "outputs": [
        {
          "internalType": "uint256[]",
          "name": "",
          "type": "uint256[]"
        }
      ],
      "stateMutability": "view",
      "type": "function",
      "constant": true
    }
  ],
  "bytecode": "0x60806040523480156200001157600080fd5b50604051620014f2380380620014f28339818101604052810190620000379190620000fc565b806000806101000a81548173ffffffffffffffffffffffffffffffffffffffff021916908373ffffffffffffffffffffffffffffffffffffffff160217905550506200012e565b600080fd5b600073ffffffffffffffffffffffffffffffffffffffff82169050919050565b6000620000b08262000083565b9050919050565b6000620000c482620000a3565b9050919050565b620000d681620000b7565b8114620000e257600080fd5b50565b600081519050620000f681620000cb565b92915050565b6000602082840312156200011557620001146200007e565b5b60006200012584828501620000e5565b91505092915050565b6113b4806200013e6000396000f3fe608060405234801561001057600080fd5b50600436106100885760003560e01c8063a40fff4d1161005b578063a40fff4d14610127578063b5ab4e4614610157578063da9dd8bf14610173578063f39e280c146101a357610088565b8063342890c21461008d5780633d63e997146100bd578063580102c3146100d95780636b82e8c3146100f7575b600080fd5b6100a760048036038101906100a291906108ec565b6101d3565b6040516100b491906109a9565b60405180910390f35b6100d760048036038101906100d29190610a03565b6102a4565b005b6100e16102ff565b6040516100ee9190610b0b565b60405180910390f35b610111600480360381019061010c9190610b59565b610357565b60405161011e9190610b95565b60405180910390f35b610141600480360381019061013c91906108ec565b610394565b60405161014e9190610bbf565b60405180910390f35b610171600480360381019061016c9190610bda565b6103ea565b005b61018d600480360381019061018891906108ec565b61075a565b60405161019a9190610bbf565b60405180910390f35b6101bd60048036038101906101b89190610d4f565b610852565b6040516101ca9190610da7565b60405180910390f35b6060600160008373ffffffffffffffffffffffffffffffffffffffff1673ffffffffffffffffffffffffffffffffffffffff168152602001908152602001600020805461021f90610df1565b80601f016020809104026020016040519081016040528092919081815260200182805461024b90610df1565b80156102985780601f1061026d57610100808354040283529160200191610298565b820191906000526020600020905b81548152906001019060200180831161027b57829003601f168201915b50505050509050919050565b80600460008473ffffffffffffffffffffffffffffffffffffffff1673ffffffffffffffffffffffffffffffffffffffff16815260200190815260200160002060006101000a81548160ff0219169083151502179055505050565b6060600580548060200260200160405190810160405280929190818152602001828054801561034d57602002820191906000526020600020905b815481526020019060010190808311610339575b5050505050905090565b60006003600083815260200190815260200160002060009054906101000a900473ffffffffffffffffffffffffffffffffffffffff169050919050565b6000600460008373ffffffffffffffffffffffffffffffffffffffff1673ffffffffffffffffffffffffffffffffffffffff16815260200190815260200160002060009054906101000a900460ff169050919050565b60008054906101000a900473ffffffffffffffffffffffffffffffffffffffff1673ffffffffffffffffffffffffffffffffffffffff16636d905d08836040518263ffffffff1660e01b81526004016104439190610b95565b602060405180830381865afa158015610460573d6000803e3d6000fd5b505050506040513d601f19601f820116820180604052508101906104849190610e37565b6104c3576040517f08c379a00000000000000000000000000000000000000000000000000000000081526004016104ba90610eb0565b60405180910390fd5b60008060009054906101000a900473ffffffffffffffffffffffffffffffffffffffff1673ffffffffffffffffffffffffffffffffffffffff16639480e948846040518263ffffffff1660e01b815260040161051f9190610b95565b600060405180830381865afa15801561053c573d6000803e3d6000fd5b505050506040513d6000823e3d601f19601f820116820180604052508101906105659190610f40565b905060006002826040516105799190610fc5565b908152602001604051809103902054146105c8576040517f08c379a00000000000000000000000000000000000000000000000000000000081526004016105bf9061104e565b60405180910390fd5b600073ffffffffffffffffffffffffffffffffffffffff166003600084815260200190815260200160002060009054906101000a900473ffffffffffffffffffffffffffffffffffffffff1673ffffffffffffffffffffffffffffffffffffffff161461066a576040517f08c379a0000000000000000000000000000000000000000000000000000000008152600401610661906110e0565b60405180910390fd5b80600160008573ffffffffffffffffffffffffffffffffffffffff1673ffffffffffffffffffffffffffffffffffffffff16815260200190815260200160002090816106b691906112ac565b50816002826040516106c89190610fc5565b908152602001604051809103902081905550826003600084815260200190815260200160002060006101000a81548173ffffffffffffffffffffffffffffffffffffffff021916908373ffffffffffffffffffffffffffffffffffffffff1602179055506005829080600181540180825580915050600190039060005260206000200160009091909190915055505050565b600080600160008473ffffffffffffffffffffffffffffffffffffffff1673ffffffffffffffffffffffffffffffffffffffff16815260200190815260200160002080546107a790610df1565b80601f01602080910402602001604051908101604052809291908181526020018280546107d390610df1565b80156108205780601f106107f557610100808354040283529160200191610820565b820191906000526020600020905b81548152906001019060200180831161080357829003601f168201915b5050505050905060006002826040516108399190610fc5565b9081526020016040518091039020541415915050919050565b60006002826040516108649190610fc5565b9081526020016040518091039020549050919050565b6000604051905090565b600080fd5b600080fd5b600073ffffffffffffffffffffffffffffffffffffffff82169050919050565b60006108b98261088e565b9050919050565b6108c9816108ae565b81146108d457600080fd5b50565b6000813590506108e6816108c0565b92915050565b60006020828403121561090257610901610884565b5b6000610910848285016108d7565b91505092915050565b600081519050919050565b600082825260208201905092915050565b60005b83811015610953578082015181840152602081019050610938565b60008484015250505050565b6000601f19601f8301169050919050565b600061097b82610919565b6109858185610924565b9350610995818560208601610935565b61099e8161095f565b840191505092915050565b600060208201905081810360008301526109c38184610970565b905092915050565b60008115159050919050565b6109e0816109cb565b81146109eb57600080fd5b50565b6000813590506109fd816109d7565b92915050565b60008060408385031215610a1a57610a19610884565b5b6000610a28858286016108d7565b9250506020610a39858286016109ee565b9150509250929050565b600081519050919050565b600082825260208201905092915050565b6000819050602082019050919050565b6000819050919050565b610a8281610a6f565b82525050565b6000610a948383610a79565b60208301905092915050565b6000602082019050919050565b6000610ab882610a43565b610ac28185610a4e565b9350610acd83610a5f565b8060005b83811015610afe578151610ae58882610a88565b9750610af083610aa0565b925050600181019050610ad1565b5085935050505092915050565b60006020820190508181036000830152610b258184610aad565b905092915050565b610b3681610a6f565b8114610b4157600080fd5b50565b600081359050610b5381610b2d565b92915050565b600060208284031215610b6f57610b6e610884565b5b6000610b7d84828501610b44565b91505092915050565b610b8f816108ae565b82525050565b6000602082019050610baa6000830184610b86565b92915050565b610bb9816109cb565b82525050565b6000602082019050610bd46000830184610bb0565b92915050565b60008060408385031215610bf157610bf0610884565b5b6000610bff858286016108d7565b9250506020610c1085828601610b44565b9150509250929050565b600080fd5b600080fd5b7f4e487b7100000000000000000000000000000000000000000000000000000000600052604160045260246000fd5b610c5c8261095f565b810181811067ffffffffffffffff82111715610c7b57610c7a610c24565b5b80604052505050565b6000610c8e61087a565b9050610c9a8282610c53565b919050565b600067ffffffffffffffff821115610cba57610cb9610c24565b5b610cc38261095f565b9050602081019050919050565b82818337600083830152505050565b6000610cf2610ced84610c9f565b610c84565b905082815260208101848484011115610d0e57610d0d610c1f565b5b610d19848285610cd0565b509392505050565b600082601f830112610d3657610d35610c1a565b5b8135610d46848260208601610cdf565b91505092915050565b600060208284031215610d6557610d64610884565b5b600082013567ffffffffffffffff811115610d8357610d82610889565b5b610d8f84828501610d21565b91505092915050565b610da181610a6f565b82525050565b6000602082019050610dbc6000830184610d98565b92915050565b7f4e487b7100000000000000000000000000000000000000000000000000000000600052602260045260246000fd5b60006002820490506001821680610e0957607f821691505b602082108103610e1c57610e1b610dc2565b5b50919050565b600081519050610e31816109d7565b92915050565b600060208284031215610e4d57610e4c610884565b5b6000610e5b84828501610e22565b91505092915050565b7f4d6574614d61736b2061646472657373206e6f74207265676973746572656400600082015250565b6000610e9a601f83610924565b9150610ea582610e64565b602082019050919050565b60006020820190508181036000830152610ec981610e8d565b9050919050565b6000610ee3610ede84610c9f565b610c84565b905082815260208101848484011115610eff57610efe610c1f565b5b610f0a848285610935565b509392505050565b600082601f830112610f2757610f26610c1a565b5b8151610f37848260208601610ed0565b91505092915050565b600060208284031215610f5657610f55610884565b5b600082015167ffffffffffffffff811115610f7457610f73610889565b5b610f8084828501610f12565b91505092915050565b600081905092915050565b6000610f9f82610919565b610fa98185610f89565b9350610fb9818560208601610935565b80840191505092915050565b6000610fd18284610f94565b915081905092915050565b7f434e5020616c7265616479206173736f636961746564207769746820656d616960008201527f6c00000000000000000000000000000000000000000000000000000000000000602082015250565b6000611038602183610924565b915061104382610fdc565b604082019050919050565b600060208201905081810360008301526110678161102b565b9050919050565b7f434e5020616c7265616479206173736f636961746564207769746820616e6f7460008201527f686572204d6574614d61736b2061646472657373000000000000000000000000602082015250565b60006110ca603483610924565b91506110d58261106e565b604082019050919050565b600060208201905081810360008301526110f9816110bd565b9050919050565b60008190508160005260206000209050919050565b60006020601f8301049050919050565b600082821b905092915050565b6000600883026111627fffffffffffffffffffffffffffffffffffffffffffffffffffffffffffffffff82611125565b61116c8683611125565b95508019841693508086168417925050509392505050565b6000819050919050565b60006111a96111a461119f84610a6f565b611184565b610a6f565b9050919050565b6000819050919050565b6111c38361118e565b6111d76111cf826111b0565b848454611132565b825550505050565b600090565b6111ec6111df565b6111f78184846111ba565b505050565b5b8181101561121b576112106000826111e4565b6001810190506111fd565b5050565b601f8211156112605761123181611100565b61123a84611115565b81016020851015611249578190505b61125d61125585611115565b8301826111fc565b50505b505050565b600082821c905092915050565b600061128360001984600802611265565b1980831691505092915050565b600061129c8383611272565b9150826002028217905092915050565b6112b582610919565b67ffffffffffffffff8111156112ce576112cd610c24565b5b6112d88254610df1565b6112e382828561121f565b600060209050601f8311600181146113165760008415611304578287015190505b61130e8582611290565b865550611376565b601f19841661132486611100565b60005b8281101561134c57848901518255600182019150602085019450602081019050611327565b868310156113695784890151611365601f891682611272565b8355505b6001600288020188555050505b50505050505056fea2646970667358221220158edab130427f4a693ae233dba8c94183525d6e33bc3d29d5683bb43799138564736f6c63430008130033",
  "immutableReferences": {},
  "source": "// SPDX-License-Identifier: MIT\r\npragma solidity ^0.8.0;\r\n\r\nimport \"./Auth.sol\";\r\n\r\ncontract VoterRegistration {\r\n    Auth private authContract;\r\n    mapping(address => string) private metamaskToEmail;\r\n    mapping(string => uint) private emailToCNP;\r\n    mapping(uint => address) private cnpToAddress;\r\n    mapping(address => bool) private metamaskVerified;\r\n    uint[] private allCNPs;\r\n\r\n    constructor(Auth _authContract) {\r\n        authContract = _authContract;\r\n    }\r\n\r\n    function verifyMetaMaskAddress(address metamaskAddress, uint cnp) public {\r\n        require(authContract.isMetaMaskRegistered(metamaskAddress), \"MetaMask address not registered\");\r\n        string memory userEmail = authContract.getUserEmail(metamaskAddress);\r\n        \r\n        require(emailToCNP[userEmail] == 0, \"CNP already associated with email\");\r\n        require(cnpToAddress[cnp] == address(0), \"CNP already associated with another MetaMask address\");\r\n\r\n        metamaskToEmail[metamaskAddress] = userEmail;\r\n        emailToCNP[userEmail] = cnp;\r\n        cnpToAddress[cnp] = metamaskAddress;\r\n\r\n        allCNPs.push(cnp);\r\n    }\r\n\r\n    function getEmailByMetaMaskAddress(address metamaskAddress) public view returns (string memory) {\r\n        return metamaskToEmail[metamaskAddress];\r\n    }\r\n\r\n    function getCNPByEmail(string memory userEmail) public view returns (uint) {\r\n        return emailToCNP[userEmail];\r\n    }\r\n\r\n    function getMetaMaskAddressByCNP(uint cnp) public view returns (address) {\r\n        return cnpToAddress[cnp];\r\n    }\r\n\r\n    function setMetamaskVerified(address metamaskAddress, bool verified) public {\r\n        metamaskVerified[metamaskAddress] = verified;\r\n    }\r\n\r\n    function isMetamaskVerified(address metamaskAddress) public view returns (bool) {\r\n        return metamaskVerified[metamaskAddress];\r\n    }\r\n\r\n     function isAddressVerified(address metamaskAddress) public view returns (bool) {\r\n    string memory userEmail = metamaskToEmail[metamaskAddress];\r\n    return emailToCNP[userEmail] != 0;\r\n}\r\n\r\nfunction getAllCNPs() public view returns (uint[] memory) {\r\n        return allCNPs;\r\n    }\r\n\r\n\r\n}\r\n\r\n",
  "sourcePath": "D:\\repos\\License\\voting-app\\src\\contracts\\VoterRegistration.sol",
  "compiler": {
    "name": "solc",
    "version": "0.8.19+commit.7dd6d404.Emscripten.clang"
  },
  "schemaVersion": "3.4.13",
  "updatedAt": "2023-06-17T16:16:57.617Z",
  "networkType": "ethereum",
  "devdoc": {
    "kind": "dev",
    "methods": {},
    "version": 1
  },
  "userdoc": {
    "kind": "user",
    "methods": {},
    "version": 1
  }
}