{
  "contractName": "VotingSystem",
  "abi": [
    {
      "anonymous": false,
      "inputs": [
        {
          "indexed": false,
          "internalType": "uint256",
          "name": "candidateId",
          "type": "uint256"
        }
      ],
      "name": "CandidateDeleted",
      "type": "event"
    },
    {
      "anonymous": false,
      "inputs": [
        {
          "indexed": false,
          "internalType": "uint256",
          "name": "candidateId",
          "type": "uint256"
        },
        {
          "indexed": false,
          "internalType": "string",
          "name": "fullName",
          "type": "string"
        },
        {
          "indexed": false,
          "internalType": "uint256",
          "name": "age",
          "type": "uint256"
        },
        {
          "indexed": false,
          "internalType": "string",
          "name": "description",
          "type": "string"
        },
        {
          "indexed": false,
          "internalType": "string",
          "name": "image",
          "type": "string"
        }
      ],
      "name": "CandidateEdited",
      "type": "event"
    },
    {
      "anonymous": false,
      "inputs": [
        {
          "indexed": false,
          "internalType": "uint256",
          "name": "candidateId",
          "type": "uint256"
        },
        {
          "indexed": false,
          "internalType": "string",
          "name": "fullName",
          "type": "string"
        },
        {
          "indexed": false,
          "internalType": "uint256",
          "name": "age",
          "type": "uint256"
        },
        {
          "indexed": false,
          "internalType": "string",
          "name": "description",
          "type": "string"
        },
        {
          "indexed": false,
          "internalType": "string",
          "name": "image",
          "type": "string"
        },
        {
          "indexed": false,
          "internalType": "uint256",
          "name": "electionId",
          "type": "uint256"
        }
      ],
      "name": "NewCandidate",
      "type": "event"
    },
    {
      "anonymous": false,
      "inputs": [
        {
          "indexed": false,
          "internalType": "uint256",
          "name": "id",
          "type": "uint256"
        },
        {
          "indexed": false,
          "internalType": "string",
          "name": "name",
          "type": "string"
        },
        {
          "indexed": false,
          "internalType": "enum VotingSystem.ElectionType",
          "name": "electionType",
          "type": "uint8"
        },
        {
          "indexed": false,
          "internalType": "string",
          "name": "organizedBy",
          "type": "string"
        },
        {
          "indexed": false,
          "internalType": "uint256",
          "name": "startDate",
          "type": "uint256"
        },
        {
          "indexed": false,
          "internalType": "uint256",
          "name": "endDate",
          "type": "uint256"
        }
      ],
      "name": "NewElection",
      "type": "event"
    },
    {
      "anonymous": false,
      "inputs": [
        {
          "indexed": false,
          "internalType": "uint256",
          "name": "electionId",
          "type": "uint256"
        },
        {
          "indexed": false,
          "internalType": "uint256",
          "name": "candidateId",
          "type": "uint256"
        },
        {
          "indexed": false,
          "internalType": "address",
          "name": "voter",
          "type": "address"
        }
      ],
      "name": "Vote",
      "type": "event"
    },
    {
      "inputs": [
        {
          "internalType": "uint256",
          "name": "",
          "type": "uint256"
        }
      ],
      "name": "candidateExists",
      "outputs": [
        {
          "internalType": "bool",
          "name": "",
          "type": "bool"
        }
      ],
      "stateMutability": "view",
      "type": "function",
      "constant": true
    },
    {
      "inputs": [
        {
          "internalType": "uint256",
          "name": "",
          "type": "uint256"
        }
      ],
      "name": "candidates",
      "outputs": [
        {
          "internalType": "uint256",
          "name": "id",
          "type": "uint256"
        },
        {
          "internalType": "string",
          "name": "fullName",
          "type": "string"
        },
        {
          "internalType": "uint256",
          "name": "age",
          "type": "uint256"
        },
        {
          "internalType": "string",
          "name": "description",
          "type": "string"
        },
        {
          "internalType": "string",
          "name": "image",
          "type": "string"
        },
        {
          "internalType": "uint256",
          "name": "electionId",
          "type": "uint256"
        },
        {
          "internalType": "uint256",
          "name": "voteCount",
          "type": "uint256"
        }
      ],
      "stateMutability": "view",
      "type": "function",
      "constant": true
    },
    {
      "inputs": [
        {
          "internalType": "uint256",
          "name": "",
          "type": "uint256"
        }
      ],
      "name": "elections",
      "outputs": [
        {
          "internalType": "uint256",
          "name": "id",
          "type": "uint256"
        },
        {
          "internalType": "string",
          "name": "name",
          "type": "string"
        },
        {
          "internalType": "enum VotingSystem.ElectionType",
          "name": "electionType",
          "type": "uint8"
        },
        {
          "internalType": "string",
          "name": "organizedBy",
          "type": "string"
        },
        {
          "internalType": "uint256",
          "name": "startDate",
          "type": "uint256"
        },
        {
          "internalType": "uint256",
          "name": "endDate",
          "type": "uint256"
        },
        {
          "internalType": "bool",
          "name": "ended",
          "type": "bool"
        }
      ],
      "stateMutability": "view",
      "type": "function",
      "constant": true
    },
    {
      "inputs": [
        {
          "internalType": "address",
          "name": "",
          "type": "address"
        },
        {
          "internalType": "uint256",
          "name": "",
          "type": "uint256"
        }
      ],
      "name": "hasVoted",
      "outputs": [
        {
          "internalType": "bool",
          "name": "",
          "type": "bool"
        }
      ],
      "stateMutability": "view",
      "type": "function",
      "constant": true
    },
    {
      "inputs": [
        {
          "internalType": "string",
          "name": "_name",
          "type": "string"
        },
        {
          "internalType": "enum VotingSystem.ElectionType",
          "name": "_electionType",
          "type": "uint8"
        },
        {
          "internalType": "string",
          "name": "_organizedBy",
          "type": "string"
        },
        {
          "internalType": "uint256",
          "name": "_startDate",
          "type": "uint256"
        },
        {
          "internalType": "uint256",
          "name": "_endDate",
          "type": "uint256"
        }
      ],
      "name": "addElection",
      "outputs": [],
      "stateMutability": "nonpayable",
      "type": "function"
    },
    {
      "inputs": [
        {
          "internalType": "string",
          "name": "_fullName",
          "type": "string"
        },
        {
          "internalType": "uint256",
          "name": "_age",
          "type": "uint256"
        },
        {
          "internalType": "string",
          "name": "_description",
          "type": "string"
        },
        {
          "internalType": "string",
          "name": "_image",
          "type": "string"
        },
        {
          "internalType": "uint256",
          "name": "_electionId",
          "type": "uint256"
        }
      ],
      "name": "addCandidate",
      "outputs": [],
      "stateMutability": "nonpayable",
      "type": "function"
    },
    {
      "inputs": [
        {
          "internalType": "uint256",
          "name": "_electionId",
          "type": "uint256"
        },
        {
          "internalType": "uint256",
          "name": "_candidateId",
          "type": "uint256"
        }
      ],
      "name": "vote",
      "outputs": [],
      "stateMutability": "nonpayable",
      "type": "function"
    },
    {
      "inputs": [
        {
          "internalType": "uint256",
          "name": "_candidateId",
          "type": "uint256"
        }
      ],
      "name": "getCandidateDetails",
      "outputs": [
        {
          "internalType": "string",
          "name": "",
          "type": "string"
        },
        {
          "internalType": "uint256",
          "name": "",
          "type": "uint256"
        },
        {
          "internalType": "string",
          "name": "",
          "type": "string"
        },
        {
          "internalType": "string",
          "name": "",
          "type": "string"
        },
        {
          "internalType": "uint256",
          "name": "",
          "type": "uint256"
        },
        {
          "internalType": "uint256",
          "name": "",
          "type": "uint256"
        }
      ],
      "stateMutability": "view",
      "type": "function",
      "constant": true
    },
    {
      "inputs": [
        {
          "internalType": "uint256",
          "name": "_electionId",
          "type": "uint256"
        }
      ],
      "name": "getElectionDetails",
      "outputs": [
        {
          "internalType": "uint256",
          "name": "",
          "type": "uint256"
        },
        {
          "internalType": "string",
          "name": "",
          "type": "string"
        },
        {
          "internalType": "enum VotingSystem.ElectionType",
          "name": "",
          "type": "uint8"
        },
        {
          "internalType": "string",
          "name": "",
          "type": "string"
        },
        {
          "internalType": "uint256",
          "name": "",
          "type": "uint256"
        },
        {
          "internalType": "uint256",
          "name": "",
          "type": "uint256"
        },
        {
          "internalType": "bool",
          "name": "",
          "type": "bool"
        }
      ],
      "stateMutability": "view",
      "type": "function",
      "constant": true
    },
    {
      "inputs": [],
      "name": "getElectionCount",
      "outputs": [
        {
          "internalType": "uint256",
          "name": "",
          "type": "uint256"
        }
      ],
      "stateMutability": "view",
      "type": "function",
      "constant": true
    },
    {
      "inputs": [],
      "name": "getCandidateCount",
      "outputs": [
        {
          "internalType": "uint256",
          "name": "",
          "type": "uint256"
        }
      ],
      "stateMutability": "view",
      "type": "function",
      "constant": true
    },
    {
      "inputs": [
        {
          "internalType": "uint256",
          "name": "_electionId",
          "type": "uint256"
        }
      ],
      "name": "electionEnded",
      "outputs": [
        {
          "internalType": "bool",
          "name": "",
          "type": "bool"
        }
      ],
      "stateMutability": "view",
      "type": "function",
      "constant": true
    },
    {
      "inputs": [],
      "name": "getActiveElections",
      "outputs": [
        {
          "components": [
            {
              "internalType": "uint256",
              "name": "id",
              "type": "uint256"
            },
            {
              "internalType": "string",
              "name": "name",
              "type": "string"
            },
            {
              "internalType": "enum VotingSystem.ElectionType",
              "name": "electionType",
              "type": "uint8"
            },
            {
              "internalType": "string",
              "name": "organizedBy",
              "type": "string"
            },
            {
              "internalType": "uint256",
              "name": "startDate",
              "type": "uint256"
            },
            {
              "internalType": "uint256",
              "name": "endDate",
              "type": "uint256"
            },
            {
              "internalType": "bool",
              "name": "ended",
              "type": "bool"
            }
          ],
          "internalType": "struct VotingSystem.Election[]",
          "name": "",
          "type": "tuple[]"
        }
      ],
      "stateMutability": "view",
      "type": "function",
      "constant": true
    },
    {
      "inputs": [
        {
          "internalType": "uint256",
          "name": "_electionId",
          "type": "uint256"
        }
      ],
      "name": "getCandidatesByElectionId",
      "outputs": [
        {
          "components": [
            {
              "internalType": "uint256",
              "name": "id",
              "type": "uint256"
            },
            {
              "internalType": "string",
              "name": "fullName",
              "type": "string"
            },
            {
              "internalType": "uint256",
              "name": "age",
              "type": "uint256"
            },
            {
              "internalType": "string",
              "name": "description",
              "type": "string"
            },
            {
              "internalType": "string",
              "name": "image",
              "type": "string"
            },
            {
              "internalType": "uint256",
              "name": "electionId",
              "type": "uint256"
            },
            {
              "internalType": "uint256",
              "name": "voteCount",
              "type": "uint256"
            }
          ],
          "internalType": "struct VotingSystem.Candidate[]",
          "name": "",
          "type": "tuple[]"
        }
      ],
      "stateMutability": "view",
      "type": "function",
      "constant": true
    },
    {
      "inputs": [
        {
          "internalType": "uint256",
          "name": "_candidateId",
          "type": "uint256"
        },
        {
          "internalType": "string",
          "name": "_fullName",
          "type": "string"
        },
        {
          "internalType": "uint256",
          "name": "_age",
          "type": "uint256"
        },
        {
          "internalType": "string",
          "name": "_description",
          "type": "string"
        },
        {
          "internalType": "string",
          "name": "_image",
          "type": "string"
        }
      ],
      "name": "editCandidate",
      "outputs": [],
      "stateMutability": "nonpayable",
      "type": "function"
    },
    {
      "inputs": [
        {
          "internalType": "uint256",
          "name": "candidateId",
          "type": "uint256"
        }
      ],
      "name": "deleteCandidate",
      "outputs": [],
      "stateMutability": "nonpayable",
      "type": "function"
    },
    {
      "inputs": [],
      "name": "getFinishedElections",
      "outputs": [
        {
          "components": [
            {
              "internalType": "uint256",
              "name": "id",
              "type": "uint256"
            },
            {
              "internalType": "string",
              "name": "name",
              "type": "string"
            },
            {
              "internalType": "enum VotingSystem.ElectionType",
              "name": "electionType",
              "type": "uint8"
            },
            {
              "internalType": "string",
              "name": "organizedBy",
              "type": "string"
            },
            {
              "internalType": "uint256",
              "name": "startDate",
              "type": "uint256"
            },
            {
              "internalType": "uint256",
              "name": "endDate",
              "type": "uint256"
            },
            {
              "internalType": "bool",
              "name": "ended",
              "type": "bool"
            }
          ],
          "internalType": "struct VotingSystem.Election[]",
          "name": "",
          "type": "tuple[]"
        }
      ],
      "stateMutability": "view",
      "type": "function",
      "constant": true
    }
  ],
  "bytecode": "0x608060405234801561001057600080fd5b50613ac5806100206000396000f3fe608060405234801561001057600080fd5b506004361061010b5760003560e01c80634a3b8877116100a25780638a3b63b0116100715780638a3b63b014610303578063945bc58814610321578063a632f26f1461033d578063b384abef14610359578063f6049924146103755761010b565b80634a3b8877146102635780635e6fef011461029357806369b5b8fe146102c957806377dc9c78146102e55761010b565b806327f9fd50116100de57806327f9fd50146101aa57806330a56347146101df5780633477ee2e146101fd57806342545825146102335761010b565b806309e53189146101105780631583d717146101405780631e620cd414610170578063213785a01461018c575b600080fd5b61012a60048036038101906101259190612300565b6103ab565b6040516101379190612538565b60405180910390f35b61015a60048036038101906101559190612300565b610740565b6040516101679190612575565b60405180910390f35b61018a60048036038101906101859190612300565b6107c7565b005b6101946109a3565b6040516101a1919061259f565b60405180910390f35b6101c460048036038101906101bf9190612300565b6109af565b6040516101d696959493929190612604565b60405180910390f35b6101e7610c5c565b6040516101f4919061259f565b60405180910390f35b61021760048036038101906102129190612300565b610c69565b60405161022a979695949392919061267a565b60405180910390f35b61024d6004803603810190610248919061275c565b610e53565b60405161025a9190612575565b60405180910390f35b61027d60048036038101906102789190612300565b610e82565b60405161028a9190612575565b60405180910390f35b6102ad60048036038101906102a89190612300565b610ea2565b6040516102c09796959493929190612813565b60405180910390f35b6102e360048036038101906102de91906129c5565b61101e565b005b6102ed611278565b6040516102fa9190612c17565b60405180910390f35b61030b611580565b6040516103189190612c17565b60405180910390f35b61033b60048036038101906103369190612c39565b6118ec565b005b61035760048036038101906103529190612d2d565b6119f8565b005b610373600480360381019061036e9190612de0565b611ba4565b005b61038f600480360381019061038a9190612300565b611e77565b6040516103a29796959493929190612813565b60405180910390f35b606060008054905082106103f4576040517f08c379a00000000000000000000000000000000000000000000000000000000081526004016103eb90612e6c565b60405180910390fd5b6000805b60018054905081101561045357836001828154811061041a57610419612e8c565b5b9060005260206000209060070201600501540361044057818061043c90612eea565b9250505b808061044b90612eea565b9150506103f8565b5060008167ffffffffffffffff8111156104705761046f61289a565b5b6040519080825280602002602001820160405280156104a957816020015b6104966121cb565b81526020019060019003908161048e5790505b5090506000805b6001805490508110156107345785600182815481106104d2576104d1612e8c565b5b9060005260206000209060070201600501540361072157600181815481106104fd576104fc612e8c565b5b90600052602060002090600702016040518060e00160405290816000820154815260200160018201805461053090612f61565b80601f016020809104026020016040519081016040528092919081815260200182805461055c90612f61565b80156105a95780601f1061057e576101008083540402835291602001916105a9565b820191906000526020600020905b81548152906001019060200180831161058c57829003601f168201915b50505050508152602001600282015481526020016003820180546105cc90612f61565b80601f01602080910402602001604051908101604052809291908181526020018280546105f890612f61565b80156106455780601f1061061a57610100808354040283529160200191610645565b820191906000526020600020905b81548152906001019060200180831161062857829003601f168201915b5050505050815260200160048201805461065e90612f61565b80601f016020809104026020016040519081016040528092919081815260200182805461068a90612f61565b80156106d75780601f106106ac576101008083540402835291602001916106d7565b820191906000526020600020905b8154815290600101906020018083116106ba57829003601f168201915b505050505081526020016005820154815260200160068201548152505083838151811061070757610706612e8c565b5b6020026020010181905250818061071d90612eea565b9250505b808061072c90612eea565b9150506104b0565b50819350505050919050565b600080805490508210610788576040517f08c379a000000000000000000000000000000000000000000000000000000000815260040161077f90612e6c565b60405180910390fd5b600080838154811061079d5761079c612e8c565b5b906000526020600020906007020190508060060160009054906101000a900460ff16915050919050565b600180549050811061080e576040517f08c379a000000000000000000000000000000000000000000000000000000000815260040161080590612fde565b60405180910390fd5b60008190505b600180805490506108259190612ffe565b8110156108f8576001808261083a9190613032565b8154811061084b5761084a612e8c565b5b90600052602060002090600702016001828154811061086d5761086c612e8c565b5b906000526020600020906007020160008201548160000155600182018160010190816108999190613228565b5060028201548160020155600382018160030190816108b89190613228565b50600482018160040190816108cd9190613228565b50600582015481600501556006820154816006015590505080806108f090612eea565b915050610814565b50600180548061090b5761090a613310565b5b60019003818190600052602060002090600702016000808201600090556001820160006109389190612208565b60028201600090556003820160006109509190612208565b6004820160006109609190612208565b600582016000905560068201600090555050905560006002600083815260200190815260200160002060006101000a81548160ff02191690831515021790555050565b60008080549050905090565b606060006060806000806002600088815260200190815260200160002060009054906101000a900460ff16610a19576040517f08c379a0000000000000000000000000000000000000000000000000000000008152600401610a1090612fde565b60405180910390fd5b600060018881548110610a2f57610a2e612e8c565b5b90600052602060002090600702016040518060e001604052908160008201548152602001600182018054610a6290612f61565b80601f0160208091040260200160405190810160405280929190818152602001828054610a8e90612f61565b8015610adb5780601f10610ab057610100808354040283529160200191610adb565b820191906000526020600020905b815481529060010190602001808311610abe57829003601f168201915b5050505050815260200160028201548152602001600382018054610afe90612f61565b80601f0160208091040260200160405190810160405280929190818152602001828054610b2a90612f61565b8015610b775780601f10610b4c57610100808354040283529160200191610b77565b820191906000526020600020905b815481529060010190602001808311610b5a57829003601f168201915b50505050508152602001600482018054610b9090612f61565b80601f0160208091040260200160405190810160405280929190818152602001828054610bbc90612f61565b8015610c095780601f10610bde57610100808354040283529160200191610c09565b820191906000526020600020905b815481529060010190602001808311610bec57829003601f168201915b5050505050815260200160058201548152602001600682015481525050905080602001518160400151826060015183608001518460a001518560c001519650965096509650965096505091939550919395565b6000600180549050905090565b60018181548110610c7957600080fd5b9060005260206000209060070201600091509050806000015490806001018054610ca290612f61565b80601f0160208091040260200160405190810160405280929190818152602001828054610cce90612f61565b8015610d1b5780601f10610cf057610100808354040283529160200191610d1b565b820191906000526020600020905b815481529060010190602001808311610cfe57829003601f168201915b505050505090806002015490806003018054610d3690612f61565b80601f0160208091040260200160405190810160405280929190818152602001828054610d6290612f61565b8015610daf5780601f10610d8457610100808354040283529160200191610daf565b820191906000526020600020905b815481529060010190602001808311610d9257829003601f168201915b505050505090806004018054610dc490612f61565b80601f0160208091040260200160405190810160405280929190818152602001828054610df090612f61565b8015610e3d5780601f10610e1257610100808354040283529160200191610e3d565b820191906000526020600020905b815481529060010190602001808311610e2057829003601f168201915b5050505050908060050154908060060154905087565b60036020528160005260406000206020528060005260406000206000915091509054906101000a900460ff1681565b60026020528060005260406000206000915054906101000a900460ff1681565b60008181548110610eb257600080fd5b9060005260206000209060070201600091509050806000015490806001018054610edb90612f61565b80601f0160208091040260200160405190810160405280929190818152602001828054610f0790612f61565b8015610f545780601f10610f2957610100808354040283529160200191610f54565b820191906000526020600020905b815481529060010190602001808311610f3757829003601f168201915b5050505050908060020160009054906101000a900460ff1690806003018054610f7c90612f61565b80601f0160208091040260200160405190810160405280929190818152602001828054610fa890612f61565b8015610ff55780601f10610fca57610100808354040283529160200191610ff5565b820191906000526020600020905b815481529060010190602001808311610fd857829003601f168201915b5050505050908060040154908060050154908060060160009054906101000a900460ff16905087565b6000808054905011611065576040517f08c379a000000000000000000000000000000000000000000000000000000000815260040161105c906133b1565b60405180910390fd5b61106e81610740565b156110ae576040517f08c379a00000000000000000000000000000000000000000000000000000000081526004016110a590613443565b60405180910390fd5b60026000600180549050815260200190815260200160002060009054906101000a900460ff1615611114576040517f08c379a000000000000000000000000000000000000000000000000000000000815260040161110b906134af565b60405180910390fd5b60016040518060e0016040528060018054905081526020018781526020018681526020018581526020018481526020018381526020016000815250908060018154018082558091505060019003906000526020600020906007020160009091909190915060008201518160000155602082015181600101908161119791906134cf565b506040820151816002015560608201518160030190816111b791906134cf565b5060808201518160040190816111cd91906134cf565b5060a0820151816005015560c082015181600601555050600160026000600180805490506111fb9190612ffe565b815260200190815260200160002060006101000a81548160ff0219169083151502179055507f28ed2caf3cc55f9932b59fd5384dc3756cc2d9331c68878e6ff198f93089ee5c600180805490506112529190612ffe565b8686868686604051611269969594939291906135a1565b60405180910390a15050505050565b60606000805b6000805490508110156112da576000818154811061129f5761129e612e8c565b5b9060005260206000209060070201600501544211156112c75781806112c390612eea565b9250505b80806112d290612eea565b91505061127e565b5060008167ffffffffffffffff8111156112f7576112f661289a565b5b60405190808252806020026020018201604052801561133057816020015b61131d612248565b8152602001906001900390816113155790505b5090506000805b600080549050811015611576576000818154811061135857611357612e8c565b5b906000526020600020906007020160050154421115611563576000818154811061138557611384612e8c565b5b90600052602060002090600702016040518060e0016040529081600082015481526020016001820180546113b890612f61565b80601f01602080910402602001604051908101604052809291908181526020018280546113e490612f61565b80156114315780601f1061140657610100808354040283529160200191611431565b820191906000526020600020905b81548152906001019060200180831161141457829003601f168201915b505050505081526020016002820160009054906101000a900460ff16600281111561145f5761145e61279c565b5b60028111156114715761147061279c565b5b815260200160038201805461148590612f61565b80601f01602080910402602001604051908101604052809291908181526020018280546114b190612f61565b80156114fe5780601f106114d3576101008083540402835291602001916114fe565b820191906000526020600020905b8154815290600101906020018083116114e157829003601f168201915b5050505050815260200160048201548152602001600582015481526020016006820160009054906101000a900460ff16151515158152505083838151811061154957611548612e8c565b5b6020026020010181905250818061155f90612eea565b9250505b808061156e90612eea565b915050611337565b5081935050505090565b60606000805b60008054905081101561161457600081815481106115a7576115a6612e8c565b5b90600052602060002090600702016004015442101580156115ed5750600081815481106115d7576115d6612e8c565b5b9060005260206000209060070201600501544211155b156116015781806115fd90612eea565b9250505b808061160c90612eea565b915050611586565b5060008167ffffffffffffffff8111156116315761163061289a565b5b60405190808252806020026020018201604052801561166a57816020015b611657612248565b81526020019060019003908161164f5790505b5090506000805b6000805490508110156118e2576000818154811061169257611691612e8c565b5b90600052602060002090600702016004015442101580156116d85750600081815481106116c2576116c1612e8c565b5b9060005260206000209060070201600501544211155b156118cf57600081815481106116f1576116f0612e8c565b5b90600052602060002090600702016040518060e00160405290816000820154815260200160018201805461172490612f61565b80601f016020809104026020016040519081016040528092919081815260200182805461175090612f61565b801561179d5780601f106117725761010080835404028352916020019161179d565b820191906000526020600020905b81548152906001019060200180831161178057829003601f168201915b505050505081526020016002820160009054906101000a900460ff1660028111156117cb576117ca61279c565b5b60028111156117dd576117dc61279c565b5b81526020016003820180546117f190612f61565b80601f016020809104026020016040519081016040528092919081815260200182805461181d90612f61565b801561186a5780601f1061183f5761010080835404028352916020019161186a565b820191906000526020600020905b81548152906001019060200180831161184d57829003601f168201915b5050505050815260200160048201548152602001600582015481526020016006820160009054906101000a900460ff1615151515815250508383815181106118b5576118b4612e8c565b5b602002602001018190525081806118cb90612eea565b9250505b80806118da90612eea565b915050611671565b5081935050505090565b6002600086815260200190815260200160002060009054906101000a900460ff1661194c576040517f08c379a000000000000000000000000000000000000000000000000000000000815260040161194390612fde565b60405180910390fd5b60006001868154811061196257611961612e8c565b5b906000526020600020906007020190508481600101908161198391906134cf565b508381600201819055508281600301908161199e91906134cf565b50818160040190816119b091906134cf565b507fed70abd28f4e75ba04b25772da08d793bfc1c7a7743552d3997c2644458c40a086868686866040516119e8959493929190613617565b60405180910390a1505050505050565b611a038583836120cf565b15611a43576040517f08c379a0000000000000000000000000000000000000000000000000000000008152600401611a3a90613717565b60405180910390fd5b60008080549050905060006040518060e00160405280838152602001888152602001876002811115611a7857611a7761279c565b5b8152602001868152602001858152602001848152602001600015158152509080600181540180825580915050600190039060005260206000209060070201600090919091909150600082015181600001556020820151816001019081611ade91906134cf565b5060408201518160020160006101000a81548160ff02191690836002811115611b0a57611b0961279c565b5b02179055506060820151816003019081611b2491906134cf565b506080820151816004015560a0820151816005015560c08201518160060160006101000a81548160ff02191690831515021790555050507f1843c3bc04ac66d2c840f52a0170a69f0746fe93c90a2f9f03b3e05e07d8ed2c818787878787604051611b9496959493929190613737565b60405180910390a1505050505050565b6000805490508210611beb576040517f08c379a0000000000000000000000000000000000000000000000000000000008152600401611be290612e6c565b60405180910390fd5b6001805490508110611c32576040517f08c379a0000000000000000000000000000000000000000000000000000000008152600401611c2990612fde565b60405180910390fd5b600360003373ffffffffffffffffffffffffffffffffffffffff1673ffffffffffffffffffffffffffffffffffffffff168152602001908152602001600020600083815260200190815260200160002060009054906101000a900460ff1615611cd0576040517f08c379a0000000000000000000000000000000000000000000000000000000008152600401611cc790613818565b60405180910390fd5b6000808381548110611ce557611ce4612e8c565b5b906000526020600020906007020190508060060160009054906101000a900460ff1615611d47576040517f08c379a0000000000000000000000000000000000000000000000000000000008152600401611d3e906138aa565b60405180910390fd5b600060018381548110611d5d57611d5c612e8c565b5b9060005260206000209060070201905083816005015414611db3576040517f08c379a0000000000000000000000000000000000000000000000000000000008152600401611daa9061393c565b60405180910390fd5b806006016000815480929190611dc890612eea565b91905055506001600360003373ffffffffffffffffffffffffffffffffffffffff1673ffffffffffffffffffffffffffffffffffffffff168152602001908152602001600020600086815260200190815260200160002060006101000a81548160ff0219169083151502179055507f7c2f48a4bf2e759e77b1e77a8bf1034cdf16e9034dad596d3655bb8b315f85eb848433604051611e699392919061396b565b60405180910390a150505050565b6000606060006060600080600080805490508810611eca576040517f08c379a0000000000000000000000000000000000000000000000000000000008152600401611ec190612e6c565b60405180910390fd5b6000808981548110611edf57611ede612e8c565b5b90600052602060002090600702016040518060e001604052908160008201548152602001600182018054611f1290612f61565b80601f0160208091040260200160405190810160405280929190818152602001828054611f3e90612f61565b8015611f8b5780601f10611f6057610100808354040283529160200191611f8b565b820191906000526020600020905b815481529060010190602001808311611f6e57829003601f168201915b505050505081526020016002820160009054906101000a900460ff166002811115611fb957611fb861279c565b5b6002811115611fcb57611fca61279c565b5b8152602001600382018054611fdf90612f61565b80601f016020809104026020016040519081016040528092919081815260200182805461200b90612f61565b80156120585780601f1061202d57610100808354040283529160200191612058565b820191906000526020600020905b81548152906001019060200180831161203b57829003601f168201915b5050505050815260200160048201548152602001600582015481526020016006820160009054906101000a900460ff1615151515815250509050806000015181602001518260400151836060015184608001518560a001518660c00151975097509750975097509750975050919395979092949650565b600080600090505b6000805490508110156121be5760008082815481106120f9576120f8612e8c565b5b906000526020600020906007020190508560405160200161211a91906139de565b60405160208183030381529060405280519060200120816001016040516020016121449190613a78565b6040516020818303038152906040528051906020012014801561219a57508060040154851015801561217a575080600501548511155b80612199575080600401548410158015612198575080600501548411155b5b5b156121aa576001925050506121c4565b5080806121b690612eea565b9150506120d7565b50600090505b9392505050565b6040518060e00160405280600081526020016060815260200160008152602001606081526020016060815260200160008152602001600081525090565b50805461221490612f61565b6000825580601f106122265750612245565b601f0160209004906000526020600020908101906122449190612299565b5b50565b6040518060e001604052806000815260200160608152602001600060028111156122755761227461279c565b5b81526020016060815260200160008152602001600081526020016000151581525090565b5b808211156122b257600081600090555060010161229a565b5090565b6000604051905090565b600080fd5b600080fd5b6000819050919050565b6122dd816122ca565b81146122e857600080fd5b50565b6000813590506122fa816122d4565b92915050565b600060208284031215612316576123156122c0565b5b6000612324848285016122eb565b91505092915050565b600081519050919050565b600082825260208201905092915050565b6000819050602082019050919050565b612362816122ca565b82525050565b600081519050919050565b600082825260208201905092915050565b60005b838110156123a2578082015181840152602081019050612387565b60008484015250505050565b6000601f19601f8301169050919050565b60006123ca82612368565b6123d48185612373565b93506123e4818560208601612384565b6123ed816123ae565b840191505092915050565b600060e0830160008301516124106000860182612359565b506020830151848203602086015261242882826123bf565b915050604083015161243d6040860182612359565b506060830151848203606086015261245582826123bf565b9150506080830151848203608086015261246f82826123bf565b91505060a083015161248460a0860182612359565b5060c083015161249760c0860182612359565b508091505092915050565b60006124ae83836123f8565b905092915050565b6000602082019050919050565b60006124ce8261232d565b6124d88185612338565b9350836020820285016124ea85612349565b8060005b85811015612526578484038952815161250785826124a2565b9450612512836124b6565b925060208a019950506001810190506124ee565b50829750879550505050505092915050565b6000602082019050818103600083015261255281846124c3565b905092915050565b60008115159050919050565b61256f8161255a565b82525050565b600060208201905061258a6000830184612566565b92915050565b612599816122ca565b82525050565b60006020820190506125b46000830184612590565b92915050565b600082825260208201905092915050565b60006125d682612368565b6125e081856125ba565b93506125f0818560208601612384565b6125f9816123ae565b840191505092915050565b600060c082019050818103600083015261261e81896125cb565b905061262d6020830188612590565b818103604083015261263f81876125cb565b9050818103606083015261265381866125cb565b90506126626080830185612590565b61266f60a0830184612590565b979650505050505050565b600060e08201905061268f600083018a612590565b81810360208301526126a181896125cb565b90506126b06040830188612590565b81810360608301526126c281876125cb565b905081810360808301526126d681866125cb565b90506126e560a0830185612590565b6126f260c0830184612590565b98975050505050505050565b600073ffffffffffffffffffffffffffffffffffffffff82169050919050565b6000612729826126fe565b9050919050565b6127398161271e565b811461274457600080fd5b50565b60008135905061275681612730565b92915050565b60008060408385031215612773576127726122c0565b5b600061278185828601612747565b9250506020612792858286016122eb565b9150509250929050565b7f4e487b7100000000000000000000000000000000000000000000000000000000600052602160045260246000fd5b600381106127dc576127db61279c565b5b50565b60008190506127ed826127cb565b919050565b60006127fd826127df565b9050919050565b61280d816127f2565b82525050565b600060e082019050612828600083018a612590565b818103602083015261283a81896125cb565b90506128496040830188612804565b818103606083015261285b81876125cb565b905061286a6080830186612590565b61287760a0830185612590565b61288460c0830184612566565b98975050505050505050565b600080fd5b600080fd5b7f4e487b7100000000000000000000000000000000000000000000000000000000600052604160045260246000fd5b6128d2826123ae565b810181811067ffffffffffffffff821117156128f1576128f061289a565b5b80604052505050565b60006129046122b6565b905061291082826128c9565b919050565b600067ffffffffffffffff8211156129305761292f61289a565b5b612939826123ae565b9050602081019050919050565b82818337600083830152505050565b600061296861296384612915565b6128fa565b90508281526020810184848401111561298457612983612895565b5b61298f848285612946565b509392505050565b600082601f8301126129ac576129ab612890565b5b81356129bc848260208601612955565b91505092915050565b600080600080600060a086880312156129e1576129e06122c0565b5b600086013567ffffffffffffffff8111156129ff576129fe6122c5565b5b612a0b88828901612997565b9550506020612a1c888289016122eb565b945050604086013567ffffffffffffffff811115612a3d57612a3c6122c5565b5b612a4988828901612997565b935050606086013567ffffffffffffffff811115612a6a57612a696122c5565b5b612a7688828901612997565b9250506080612a87888289016122eb565b9150509295509295909350565b600081519050919050565b600082825260208201905092915050565b6000819050602082019050919050565b612ac9816127f2565b82525050565b612ad88161255a565b82525050565b600060e083016000830151612af66000860182612359565b5060208301518482036020860152612b0e82826123bf565b9150506040830151612b236040860182612ac0565b5060608301518482036060860152612b3b82826123bf565b9150506080830151612b506080860182612359565b5060a0830151612b6360a0860182612359565b5060c0830151612b7660c0860182612acf565b508091505092915050565b6000612b8d8383612ade565b905092915050565b6000602082019050919050565b6000612bad82612a94565b612bb78185612a9f565b935083602082028501612bc985612ab0565b8060005b85811015612c055784840389528151612be68582612b81565b9450612bf183612b95565b925060208a01995050600181019050612bcd565b50829750879550505050505092915050565b60006020820190508181036000830152612c318184612ba2565b905092915050565b600080600080600060a08688031215612c5557612c546122c0565b5b6000612c63888289016122eb565b955050602086013567ffffffffffffffff811115612c8457612c836122c5565b5b612c9088828901612997565b9450506040612ca1888289016122eb565b935050606086013567ffffffffffffffff811115612cc257612cc16122c5565b5b612cce88828901612997565b925050608086013567ffffffffffffffff811115612cef57612cee6122c5565b5b612cfb88828901612997565b9150509295509295909350565b60038110612d1557600080fd5b50565b600081359050612d2781612d08565b92915050565b600080600080600060a08688031215612d4957612d486122c0565b5b600086013567ffffffffffffffff811115612d6757612d666122c5565b5b612d7388828901612997565b9550506020612d8488828901612d18565b945050604086013567ffffffffffffffff811115612da557612da46122c5565b5b612db188828901612997565b9350506060612dc2888289016122eb565b9250506080612dd3888289016122eb565b9150509295509295909350565b60008060408385031215612df757612df66122c0565b5b6000612e05858286016122eb565b9250506020612e16858286016122eb565b9150509250929050565b7f456c656374696f6e20646f6573206e6f742065786973742e0000000000000000600082015250565b6000612e566018836125ba565b9150612e6182612e20565b602082019050919050565b60006020820190508181036000830152612e8581612e49565b9050919050565b7f4e487b7100000000000000000000000000000000000000000000000000000000600052603260045260246000fd5b7f4e487b7100000000000000000000000000000000000000000000000000000000600052601160045260246000fd5b6000612ef5826122ca565b91507fffffffffffffffffffffffffffffffffffffffffffffffffffffffffffffffff8203612f2757612f26612ebb565b5b600182019050919050565b7f4e487b7100000000000000000000000000000000000000000000000000000000600052602260045260246000fd5b60006002820490506001821680612f7957607f821691505b602082108103612f8c57612f8b612f32565b5b50919050565b7f43616e64696461746520646f6573206e6f742065786973742e00000000000000600082015250565b6000612fc86019836125ba565b9150612fd382612f92565b602082019050919050565b60006020820190508181036000830152612ff781612fbb565b9050919050565b6000613009826122ca565b9150613014836122ca565b925082820390508181111561302c5761302b612ebb565b5b92915050565b600061303d826122ca565b9150613048836122ca565b92508282019050808211156130605761305f612ebb565b5b92915050565b60008154905061307581612f61565b9050919050565b60008190508160005260206000209050919050565b60006020601f8301049050919050565b600082821b905092915050565b6000600883026130de7fffffffffffffffffffffffffffffffffffffffffffffffffffffffffffffffff826130a1565b6130e886836130a1565b95508019841693508086168417925050509392505050565b6000819050919050565b600061312561312061311b846122ca565b613100565b6122ca565b9050919050565b6000819050919050565b61313f8361310a565b61315361314b8261312c565b8484546130ae565b825550505050565b600090565b61316861315b565b613173818484613136565b505050565b5b818110156131975761318c600082613160565b600181019050613179565b5050565b601f8211156131dc576131ad8161307c565b6131b684613091565b810160208510156131c5578190505b6131d96131d185613091565b830182613178565b50505b505050565b600082821c905092915050565b60006131ff600019846008026131e1565b1980831691505092915050565b600061321883836131ee565b9150826002028217905092915050565b81810361323657505061330e565b61323f82613066565b67ffffffffffffffff8111156132585761325761289a565b5b6132628254612f61565b61326d82828561319b565b6000601f83116001811461329c576000841561328a578287015490505b613294858261320c565b865550613307565b601f1984166132aa8761307c565b96506132b58661307c565b60005b828110156132dd578489015482556001820191506001850194506020810190506132b8565b868310156132fa57848901546132f6601f8916826131ee565b8355505b6001600288020188555050505b5050505050505b565b7f4e487b7100000000000000000000000000000000000000000000000000000000600052603160045260246000fd5b7f4e6f20656c656374696f6e7320617661696c61626c652e20506c65617365206360008201527f726561746520616e20656c656374696f6e2066697273742e0000000000000000602082015250565b600061339b6038836125ba565b91506133a68261333f565b604082019050919050565b600060208201905081810360008301526133ca8161338e565b9050919050565b7f456c656374696f6e2068617320656e6465642e204e6f206d6f72652063616e6460008201527f6964617465732063616e2062652061646465642e000000000000000000000000602082015250565b600061342d6034836125ba565b9150613438826133d1565b604082019050919050565b6000602082019050818103600083015261345c81613420565b9050919050565b7f43616e64696461746520616c7265616479206578697374732e00000000000000600082015250565b60006134996019836125ba565b91506134a482613463565b602082019050919050565b600060208201905081810360008301526134c88161348c565b9050919050565b6134d882612368565b67ffffffffffffffff8111156134f1576134f061289a565b5b6134fb8254612f61565b61350682828561319b565b600060209050601f8311600181146135395760008415613527578287015190505b613531858261320c565b865550613599565b601f1984166135478661307c565b60005b8281101561356f5784890151825560018201915060208501945060208101905061354a565b8683101561358c5784890151613588601f8916826131ee565b8355505b6001600288020188555050505b505050505050565b600060c0820190506135b66000830189612590565b81810360208301526135c881886125cb565b90506135d76040830187612590565b81810360608301526135e981866125cb565b905081810360808301526135fd81856125cb565b905061360c60a0830184612590565b979650505050505050565b600060a08201905061362c6000830188612590565b818103602083015261363e81876125cb565b905061364d6040830186612590565b818103606083015261365f81856125cb565b9050818103608083015261367381846125cb565b90509695505050505050565b7f456c656374696f6e2077697468207468652073616d65206e616d65206f72206f60008201527f7665726c617070696e672074696d6520706572696f6420616c7265616479206560208201527f78697374732e0000000000000000000000000000000000000000000000000000604082015250565b60006137016046836125ba565b915061370c8261367f565b606082019050919050565b60006020820190508181036000830152613730816136f4565b9050919050565b600060c08201905061374c6000830189612590565b818103602083015261375e81886125cb565b905061376d6040830187612804565b818103606083015261377f81866125cb565b905061378e6080830185612590565b61379b60a0830184612590565b979650505050505050565b7f596f75206861766520616c726561647920766f74656420696e2074686973206560008201527f6c656374696f6e2e000000000000000000000000000000000000000000000000602082015250565b60006138026028836125ba565b915061380d826137a6565b604082019050919050565b60006020820190508181036000830152613831816137f5565b9050919050565b7f456c656374696f6e2068617320656e6465642e204e6f206d6f726520766f746560008201527f732063616e20626520636173742e000000000000000000000000000000000000602082015250565b6000613894602e836125ba565b915061389f82613838565b604082019050919050565b600060208201905081810360008301526138c381613887565b9050919050565b7f43616e64696461746520646f6573206e6f742062656c6f6e6720746f2074686560008201527f2073706563696669656420656c656374696f6e2e000000000000000000000000602082015250565b60006139266034836125ba565b9150613931826138ca565b604082019050919050565b6000602082019050818103600083015261395581613919565b9050919050565b6139658161271e565b82525050565b60006060820190506139806000830186612590565b61398d6020830185612590565b61399a604083018461395c565b949350505050565b600081905092915050565b60006139b882612368565b6139c281856139a2565b93506139d2818560208601612384565b80840191505092915050565b60006139ea82846139ad565b915081905092915050565b60008154613a0281612f61565b613a0c81866139a2565b94506001821660008114613a275760018114613a3c57613a6f565b60ff1983168652811515820286019350613a6f565b613a458561307c565b60005b83811015613a6757815481890152600182019150602081019050613a48565b838801955050505b50505092915050565b6000613a8482846139f5565b91508190509291505056fea2646970667358221220bdfb60db618cf2820c6e5df4427e00d971acfd0a8dcacc12f6203ba5bdba457264736f6c63430008130033",
  "immutableReferences": {},
  "source": "// SPDX-License-Identifier: MIT\r\npragma solidity ^0.8.0;\r\n\r\ncontract VotingSystem {\r\n    enum ElectionType { Political, Corporation, Academics }\r\n\r\n    struct Candidate {\r\n        uint id;\r\n        string fullName;\r\n        uint age;\r\n        string description;\r\n        string image;\r\n        uint electionId;\r\n        uint voteCount; // Adugm un cmp pentru numrul de voturi primite\r\n    }\r\n\r\n    struct Election {\r\n        uint id;\r\n        string name;\r\n        ElectionType electionType;\r\n        string organizedBy;\r\n        uint startDate;\r\n        uint endDate;\r\n        bool ended; // Adugm un cmp pentru a verifica dac alegerile s-au ncheiat\r\n    }\r\n\r\n    Election[] public elections;\r\n    Candidate[] public candidates;\r\n    event CandidateEdited(uint candidateId, string fullName, uint age, string description, string image);\r\n    event CandidateDeleted(uint candidateId);\r\n    mapping(uint => bool) public candidateExists;\r\n    mapping(address => mapping(uint => bool)) public hasVoted; // Mapare pentru a verifica dac un utilizator a votat ntr-o anumit aleger\r\n\r\n    event NewElection(\r\n        uint id,\r\n        string name,\r\n        ElectionType electionType,\r\n        string organizedBy,\r\n        uint startDate,\r\n        uint endDate\r\n    );\r\n\r\n    event NewCandidate(\r\n        uint candidateId,\r\n        string fullName,\r\n        uint age,\r\n        string description,\r\n        string image,\r\n        uint electionId\r\n    );\r\n\r\n    event Vote(uint electionId, uint candidateId, address voter);\r\n\r\n    function addElection(\r\n        string memory _name,\r\n        ElectionType _electionType,\r\n        string memory _organizedBy,\r\n        uint _startDate,\r\n        uint _endDate\r\n    ) public {\r\n        require(\r\n            !electionExists(_name, _startDate, _endDate),\r\n            \"Election with the same name or overlapping time period already exists.\"\r\n        );\r\n\r\n        uint electionId = elections.length;\r\n        elections.push(\r\n            Election(electionId, _name, _electionType, _organizedBy, _startDate, _endDate, false)\r\n        );\r\n\r\n        emit NewElection(electionId, _name, _electionType, _organizedBy, _startDate, _endDate);\r\n    }\r\n\r\n    function addCandidate(\r\n        string memory _fullName,\r\n        uint _age,\r\n        string memory _description,\r\n        string memory _image,\r\n        uint _electionId\r\n    ) public {\r\n        require(\r\n            elections.length > 0,\r\n            \"No elections available. Please create an election first.\"\r\n        );\r\n\r\n        require(\r\n            !electionEnded(_electionId),\r\n            \"Election has ended. No more candidates can be added.\"\r\n        );\r\n\r\n        require(\r\n            !candidateExists[candidates.length],\r\n            \"Candidate already exists.\"\r\n        );\r\n\r\n        candidates.push(\r\n            Candidate(\r\n                candidates.length,\r\n                _fullName,\r\n                _age,\r\n                _description,\r\n                _image,\r\n                _electionId,\r\n                0\r\n            )\r\n        );\r\n        candidateExists[candidates.length - 1] = true;\r\n\r\n        emit NewCandidate(\r\n            candidates.length - 1,\r\n            _fullName,\r\n            _age,\r\n            _description,\r\n            _image,\r\n            _electionId\r\n        );\r\n    }\r\n\r\n    function vote(uint _electionId, uint _candidateId) public {\r\n        require(_electionId < elections.length, \"Election does not exist.\");\r\n        require(_candidateId < candidates.length, \"Candidate does not exist.\");\r\n        require(!hasVoted[msg.sender][_electionId], \"You have already voted in this election.\");\r\n\r\n        Election storage election = elections[_electionId];\r\n        require(!election.ended, \"Election has ended. No more votes can be cast.\");\r\n\r\n        Candidate storage candidate = candidates[_candidateId];\r\n        require(candidate.electionId == _electionId, \"Candidate does not belong to the specified election.\");\r\n\r\n        candidate.voteCount++; // Incrementm numrul de voturi primite de ctre candidat\r\n        hasVoted[msg.sender][_electionId] = true; // Marchez c utilizatorul a votat n aceast aleger\r\n\r\n        emit Vote(_electionId, _candidateId, msg.sender);\r\n    }\r\n\r\n    function getCandidateDetails(uint _candidateId)\r\n        public\r\n        view\r\n        returns (\r\n            string memory,\r\n            uint,\r\n            string memory,\r\n            string memory,\r\n            uint,\r\n            uint\r\n        )\r\n    {\r\n        require(candidateExists[_candidateId], \"Candidate does not exist.\");\r\n        Candidate memory candidate = candidates[_candidateId];\r\n        return (\r\n            candidate.fullName,\r\n            candidate.age,\r\n            candidate.description,\r\n            candidate.image,\r\n            candidate.electionId,\r\n            candidate.voteCount\r\n        );\r\n    }\r\n\r\n    function getElectionDetails(uint _electionId)\r\n        public\r\n        view\r\n        returns (\r\n            uint,\r\n            string memory,\r\n            ElectionType,\r\n            string memory,\r\n            uint,\r\n            uint,\r\n            bool\r\n        )\r\n    {\r\n        require(_electionId < elections.length, \"Election does not exist.\");\r\n        Election memory election = elections[_electionId];\r\n        return (\r\n            election.id,\r\n            election.name,\r\n            election.electionType,\r\n            election.organizedBy,\r\n            election.startDate,\r\n            election.endDate,\r\n            election.ended\r\n        );\r\n    }\r\n\r\n    function getElectionCount() public view returns (uint) {\r\n        return elections.length;\r\n    }\r\n\r\n    function getCandidateCount() public view returns (uint) {\r\n        return candidates.length;\r\n    }\r\n\r\n    function electionEnded(uint _electionId) public view returns (bool) {\r\n        require(_electionId < elections.length, \"Election does not exist.\");\r\n        Election storage election = elections[_electionId];\r\n        return election.ended;\r\n    }\r\n\r\n    function getActiveElections() public view returns (Election[] memory) {\r\n        uint activeElectionCount = 0;\r\n        for (uint i = 0; i < elections.length; i++) {\r\n            if (block.timestamp >= elections[i].startDate && block.timestamp <= elections[i].endDate) {\r\n                activeElectionCount++;\r\n            }\r\n        }\r\n        Election[] memory activeElections = new Election[](activeElectionCount);\r\n        uint currentIndex = 0;\r\n        for (uint i = 0; i < elections.length; i++) {\r\n            if (block.timestamp >= elections[i].startDate && block.timestamp <= elections[i].endDate) {\r\n                activeElections[currentIndex] = elections[i];\r\n                currentIndex++;\r\n            }\r\n        }\r\n        return activeElections;\r\n    }\r\n\r\n    function getCandidatesByElectionId(uint _electionId) public view returns (Candidate[] memory) {\r\n        require(_electionId < elections.length, \"Election does not exist.\");\r\n\r\n        uint candidateCount = 0;\r\n\r\n        // Count the candidates belonging to the election\r\n        for (uint i = 0; i < candidates.length; i++) {\r\n            if (candidates[i].electionId == _electionId) {\r\n                candidateCount++;\r\n            }\r\n        }\r\n\r\n        Candidate[] memory electionCandidates = new Candidate[](candidateCount);\r\n        uint currentIndex = 0;\r\n\r\n        // Get the candidates belonging to the election\r\n        for (uint i = 0; i < candidates.length; i++) {\r\n            if (candidates[i].electionId == _electionId) {\r\n                electionCandidates[currentIndex] = candidates[i];\r\n                currentIndex++;\r\n            }\r\n        }\r\n\r\n        return electionCandidates;\r\n    }\r\n\r\n    function electionExists(\r\n        string memory _name,\r\n        uint _startDate,\r\n        uint _endDate\r\n    ) internal view returns (bool) {\r\n        for (uint i = 0; i < elections.length; i++) {\r\n            Election storage existingElection = elections[i];\r\n            if (\r\n                keccak256(abi.encodePacked(existingElection.name)) == keccak256(abi.encodePacked(_name)) &&\r\n                ((_startDate >= existingElection.startDate && _startDate <= existingElection.endDate) ||\r\n                    (_endDate >= existingElection.startDate && _endDate <= existingElection.endDate))\r\n            ) {\r\n                return true;\r\n            }\r\n        }\r\n        return false;\r\n    }\r\n\r\n    function editCandidate(\r\n        uint _candidateId,\r\n        string memory _fullName,\r\n        uint _age,\r\n        string memory _description,\r\n        string memory _image\r\n    ) public {\r\n        require(candidateExists[_candidateId], \"Candidate does not exist.\");\r\n\r\n        Candidate storage candidate = candidates[_candidateId];\r\n        candidate.fullName = _fullName;\r\n        candidate.age = _age;\r\n        candidate.description = _description;\r\n        candidate.image = _image;\r\n\r\n        emit CandidateEdited(_candidateId, _fullName, _age, _description, _image);\r\n    }\r\n\r\n    function deleteCandidate(uint candidateId) public {\r\n  require(candidateId < candidates.length, \"Candidate does not exist.\");\r\n\r\n  // Remove the candidate from the array\r\n  for (uint i = candidateId; i < candidates.length - 1; i++) {\r\n    candidates[i] = candidates[i + 1];\r\n  }\r\n  candidates.pop();\r\n\r\n  // Update the candidateExists mapping\r\n  candidateExists[candidateId] = false;\r\n}\r\n\r\nfunction getFinishedElections() public view returns (Election[] memory) {\r\n    uint finishedElectionCount = 0;\r\n    for (uint i = 0; i < elections.length; i++) {\r\n        if (block.timestamp > elections[i].endDate) {\r\n            finishedElectionCount++;\r\n        }\r\n    }\r\n    Election[] memory finishedElections = new Election[](finishedElectionCount);\r\n    uint currentIndex = 0;\r\n    for (uint i = 0; i < elections.length; i++) {\r\n        if (block.timestamp > elections[i].endDate) {\r\n            finishedElections[currentIndex] = elections[i];\r\n            currentIndex++;\r\n        }\r\n    }\r\n    return finishedElections;\r\n}\r\n\r\n\r\n}\r\n\r\n\r\n",
  "sourcePath": "D:\\repos\\License\\voting-app\\src\\contracts\\VotingSystem.sol",
  "compiler": {
    "name": "solc",
    "version": "0.8.19+commit.7dd6d404.Emscripten.clang"
  },
  "schemaVersion": "3.4.13",
  "updatedAt": "2023-06-16T17:26:01.309Z",
  "networkType": "ethereum",
  "devdoc": {
    "kind": "dev",
    "methods": {},
    "version": 1
  },
  "userdoc": {
    "kind": "user",
    "methods": {},
    "version": 1
  }
}