{
  "contractName": "VotingSystem",
  "abi": [
    {
      "anonymous": false,
      "inputs": [
        {
          "indexed": false,
          "internalType": "uint256",
          "name": "candidateId",
          "type": "uint256"
        },
        {
          "indexed": false,
          "internalType": "string",
          "name": "fullName",
          "type": "string"
        },
        {
          "indexed": false,
          "internalType": "uint256",
          "name": "age",
          "type": "uint256"
        },
        {
          "indexed": false,
          "internalType": "string",
          "name": "description",
          "type": "string"
        },
        {
          "indexed": false,
          "internalType": "string",
          "name": "image",
          "type": "string"
        },
        {
          "indexed": false,
          "internalType": "uint256",
          "name": "electionId",
          "type": "uint256"
        }
      ],
      "name": "NewCandidate",
      "type": "event"
    },
    {
      "anonymous": false,
      "inputs": [
        {
          "indexed": false,
          "internalType": "string",
          "name": "name",
          "type": "string"
        },
        {
          "indexed": false,
          "internalType": "enum VotingSystem.ElectionType",
          "name": "electionType",
          "type": "uint8"
        },
        {
          "indexed": false,
          "internalType": "string",
          "name": "organizedBy",
          "type": "string"
        },
        {
          "indexed": false,
          "internalType": "uint256",
          "name": "startDate",
          "type": "uint256"
        },
        {
          "indexed": false,
          "internalType": "uint256",
          "name": "endDate",
          "type": "uint256"
        }
      ],
      "name": "NewElection",
      "type": "event"
    },
    {
      "inputs": [
        {
          "internalType": "uint256",
          "name": "",
          "type": "uint256"
        }
      ],
      "name": "candidateExists",
      "outputs": [
        {
          "internalType": "bool",
          "name": "",
          "type": "bool"
        }
      ],
      "stateMutability": "view",
      "type": "function",
      "constant": true
    },
    {
      "inputs": [
        {
          "internalType": "uint256",
          "name": "",
          "type": "uint256"
        }
      ],
      "name": "candidates",
      "outputs": [
        {
          "internalType": "uint256",
          "name": "id",
          "type": "uint256"
        },
        {
          "internalType": "string",
          "name": "fullName",
          "type": "string"
        },
        {
          "internalType": "uint256",
          "name": "age",
          "type": "uint256"
        },
        {
          "internalType": "string",
          "name": "description",
          "type": "string"
        },
        {
          "internalType": "string",
          "name": "image",
          "type": "string"
        },
        {
          "internalType": "uint256",
          "name": "electionId",
          "type": "uint256"
        }
      ],
      "stateMutability": "view",
      "type": "function",
      "constant": true
    },
    {
      "inputs": [
        {
          "internalType": "uint256",
          "name": "",
          "type": "uint256"
        }
      ],
      "name": "elections",
      "outputs": [
        {
          "internalType": "string",
          "name": "name",
          "type": "string"
        },
        {
          "internalType": "enum VotingSystem.ElectionType",
          "name": "electionType",
          "type": "uint8"
        },
        {
          "internalType": "string",
          "name": "organizedBy",
          "type": "string"
        },
        {
          "internalType": "uint256",
          "name": "startDate",
          "type": "uint256"
        },
        {
          "internalType": "uint256",
          "name": "endDate",
          "type": "uint256"
        }
      ],
      "stateMutability": "view",
      "type": "function",
      "constant": true
    },
    {
      "inputs": [
        {
          "internalType": "string",
          "name": "_name",
          "type": "string"
        },
        {
          "internalType": "enum VotingSystem.ElectionType",
          "name": "_electionType",
          "type": "uint8"
        },
        {
          "internalType": "string",
          "name": "_organizedBy",
          "type": "string"
        },
        {
          "internalType": "uint256",
          "name": "_startDate",
          "type": "uint256"
        },
        {
          "internalType": "uint256",
          "name": "_endDate",
          "type": "uint256"
        }
      ],
      "name": "addElection",
      "outputs": [],
      "stateMutability": "nonpayable",
      "type": "function"
    },
    {
      "inputs": [
        {
          "internalType": "string",
          "name": "_fullName",
          "type": "string"
        },
        {
          "internalType": "uint256",
          "name": "_age",
          "type": "uint256"
        },
        {
          "internalType": "string",
          "name": "_description",
          "type": "string"
        },
        {
          "internalType": "string",
          "name": "_image",
          "type": "string"
        },
        {
          "internalType": "uint256",
          "name": "_electionId",
          "type": "uint256"
        }
      ],
      "name": "addCandidate",
      "outputs": [],
      "stateMutability": "nonpayable",
      "type": "function"
    },
    {
      "inputs": [
        {
          "internalType": "uint256",
          "name": "_candidateId",
          "type": "uint256"
        }
      ],
      "name": "getCandidateDetails",
      "outputs": [
        {
          "internalType": "string",
          "name": "",
          "type": "string"
        },
        {
          "internalType": "uint256",
          "name": "",
          "type": "uint256"
        },
        {
          "internalType": "string",
          "name": "",
          "type": "string"
        },
        {
          "internalType": "string",
          "name": "",
          "type": "string"
        },
        {
          "internalType": "uint256",
          "name": "",
          "type": "uint256"
        }
      ],
      "stateMutability": "view",
      "type": "function",
      "constant": true
    },
    {
      "inputs": [
        {
          "internalType": "uint256",
          "name": "_electionId",
          "type": "uint256"
        }
      ],
      "name": "getElectionDetails",
      "outputs": [
        {
          "internalType": "string",
          "name": "",
          "type": "string"
        },
        {
          "internalType": "enum VotingSystem.ElectionType",
          "name": "",
          "type": "uint8"
        },
        {
          "internalType": "string",
          "name": "",
          "type": "string"
        },
        {
          "internalType": "uint256",
          "name": "",
          "type": "uint256"
        },
        {
          "internalType": "uint256",
          "name": "",
          "type": "uint256"
        }
      ],
      "stateMutability": "view",
      "type": "function",
      "constant": true
    },
    {
      "inputs": [],
      "name": "getElectionCount",
      "outputs": [
        {
          "internalType": "uint256",
          "name": "",
          "type": "uint256"
        }
      ],
      "stateMutability": "view",
      "type": "function",
      "constant": true
    },
    {
      "inputs": [],
      "name": "getCandidateCount",
      "outputs": [
        {
          "internalType": "uint256",
          "name": "",
          "type": "uint256"
        }
      ],
      "stateMutability": "view",
      "type": "function",
      "constant": true
    },
    {
      "inputs": [],
      "name": "electionEnded",
      "outputs": [
        {
          "internalType": "bool",
          "name": "",
          "type": "bool"
        }
      ],
      "stateMutability": "view",
      "type": "function",
      "constant": true
    }
  ],
  "bytecode": "0x608060405234801561001057600080fd5b50611d6b806100206000396000f3fe608060405234801561001057600080fd5b506004361061009e5760003560e01c80635e6fef01116100665780635e6fef011461017857806369b5b8fe146101ac578063a632f26f146101c8578063c94ca9e3146101e4578063f6049924146102025761009e565b8063213785a0146100a357806327f9fd50146100c157806330a56347146100f55780633477ee2e146101135780634a3b887714610148575b600080fd5b6100ab610236565b6040516100b89190610f90565b60405180910390f35b6100db60048036038101906100d69190610feb565b610242565b6040516100ec9594939291906110a8565b60405180910390f35b6100fd6104dd565b60405161010a9190610f90565b60405180910390f35b61012d60048036038101906101289190610feb565b6104ea565b60405161013f96959493929190611110565b60405180910390f35b610162600480360381019061015d9190610feb565b6106ce565b60405161016f91906111a1565b60405180910390f35b610192600480360381019061018d9190610feb565b6106ee565b6040516101a3959493929190611233565b60405180910390f35b6101c660048036038101906101c191906113c9565b610851565b005b6101e260048036038101906101dd91906114bd565b610a99565b005b6101ec610c00565b6040516101f991906111a1565b60405180910390f35b61021c60048036038101906102179190610feb565b610c5b565b60405161022d959493929190611233565b60405180910390f35b60008080549050905090565b6060600060608060006002600087815260200190815260200160002060009054906101000a900460ff166102ab576040517f08c379a00000000000000000000000000000000000000000000000000000000081526004016102a2906115bc565b60405180910390fd5b6000600187815481106102c1576102c06115dc565b5b90600052602060002090600602016040518060c0016040529081600082015481526020016001820180546102f49061163a565b80601f01602080910402602001604051908101604052809291908181526020018280546103209061163a565b801561036d5780601f106103425761010080835404028352916020019161036d565b820191906000526020600020905b81548152906001019060200180831161035057829003601f168201915b50505050508152602001600282015481526020016003820180546103909061163a565b80601f01602080910402602001604051908101604052809291908181526020018280546103bc9061163a565b80156104095780601f106103de57610100808354040283529160200191610409565b820191906000526020600020905b8154815290600101906020018083116103ec57829003601f168201915b505050505081526020016004820180546104229061163a565b80601f016020809104026020016040519081016040528092919081815260200182805461044e9061163a565b801561049b5780601f106104705761010080835404028352916020019161049b565b820191906000526020600020905b81548152906001019060200180831161047e57829003601f168201915b50505050508152602001600582015481525050905080602001518160400151826060015183608001518460a00151955095509550955095505091939590929450565b6000600180549050905090565b600181815481106104fa57600080fd5b90600052602060002090600602016000915090508060000154908060010180546105239061163a565b80601f016020809104026020016040519081016040528092919081815260200182805461054f9061163a565b801561059c5780601f106105715761010080835404028352916020019161059c565b820191906000526020600020905b81548152906001019060200180831161057f57829003601f168201915b5050505050908060020154908060030180546105b79061163a565b80601f01602080910402602001604051908101604052809291908181526020018280546105e39061163a565b80156106305780601f1061060557610100808354040283529160200191610630565b820191906000526020600020905b81548152906001019060200180831161061357829003601f168201915b5050505050908060040180546106459061163a565b80601f01602080910402602001604051908101604052809291908181526020018280546106719061163a565b80156106be5780601f10610693576101008083540402835291602001916106be565b820191906000526020600020905b8154815290600101906020018083116106a157829003601f168201915b5050505050908060050154905086565b60026020528060005260406000206000915054906101000a900460ff1681565b600081815481106106fe57600080fd5b90600052602060002090600502016000915090508060000180546107219061163a565b80601f016020809104026020016040519081016040528092919081815260200182805461074d9061163a565b801561079a5780601f1061076f5761010080835404028352916020019161079a565b820191906000526020600020905b81548152906001019060200180831161077d57829003601f168201915b5050505050908060010160009054906101000a900460ff16908060020180546107c29061163a565b80601f01602080910402602001604051908101604052809291908181526020018280546107ee9061163a565b801561083b5780601f106108105761010080835404028352916020019161083b565b820191906000526020600020905b81548152906001019060200180831161081e57829003601f168201915b5050505050908060030154908060040154905085565b6000808054905011610898576040517f08c379a000000000000000000000000000000000000000000000000000000000815260040161088f906116dd565b60405180910390fd5b6108a0610c00565b156108e0576040517f08c379a00000000000000000000000000000000000000000000000000000000081526004016108d79061176f565b60405180910390fd5b60026000600180549050815260200190815260200160002060009054906101000a900460ff1615610946576040517f08c379a000000000000000000000000000000000000000000000000000000000815260040161093d906117db565b60405180910390fd5b60016040518060c0016040528060018054905081526020018781526020018681526020018581526020018481526020018381525090806001815401808255809150506001900390600052602060002090600602016000909190919091506000820151816000015560208201518160010190816109c291906119a7565b506040820151816002015560608201518160030190816109e291906119a7565b5060808201518160040190816109f891906119a7565b5060a08201518160050155505060016002600060018080549050610a1c9190611aa8565b815260200190815260200160002060006101000a81548160ff0219169083151502179055507f28ed2caf3cc55f9932b59fd5384dc3756cc2d9331c68878e6ff198f93089ee5c60018080549050610a739190611aa8565b8686868686604051610a8a96959493929190611110565b60405180910390a15050505050565b610aa4858383610e7b565b15610ae4576040517f08c379a0000000000000000000000000000000000000000000000000000000008152600401610adb90611b74565b60405180910390fd5b60006040518060a00160405280878152602001866002811115610b0a57610b096111bc565b5b81526020018581526020018481526020018381525090806001815401808255809150506001900390600052602060002090600502016000909190919091506000820151816000019081610b5d91906119a7565b5060208201518160010160006101000a81548160ff02191690836002811115610b8957610b886111bc565b5b02179055506040820151816002019081610ba391906119a7565b50606082015181600301556080820151816004015550507f436cbed5d8c2731f98106d37171c19de4920035161753be55e8e2e342af2749c8585858585604051610bf1959493929190611233565b60405180910390a15050505050565b60008060008054905003610c175760009050610c58565b6000806001600080549050610c2c9190611aa8565b81548110610c3d57610c3c6115dc565b5b90600052602060002090600502019050806004015442119150505b90565b6060600060606000806000805490508610610cab576040517f08c379a0000000000000000000000000000000000000000000000000000000008152600401610ca290611be0565b60405180910390fd5b6000808781548110610cc057610cbf6115dc565b5b90600052602060002090600502016040518060a0016040529081600082018054610ce99061163a565b80601f0160208091040260200160405190810160405280929190818152602001828054610d159061163a565b8015610d625780601f10610d3757610100808354040283529160200191610d62565b820191906000526020600020905b815481529060010190602001808311610d4557829003601f168201915b505050505081526020016001820160009054906101000a900460ff166002811115610d9057610d8f6111bc565b5b6002811115610da257610da16111bc565b5b8152602001600282018054610db69061163a565b80601f0160208091040260200160405190810160405280929190818152602001828054610de29061163a565b8015610e2f5780601f10610e0457610100808354040283529160200191610e2f565b820191906000526020600020905b815481529060010190602001808311610e1257829003601f168201915b5050505050815260200160038201548152602001600482015481525050905080600001518160200151826040015183606001518460800151955095509550955095505091939590929450565b600080600090505b600080549050811015610f6a576000808281548110610ea557610ea46115dc565b5b9060005260206000209060050201905085604051602001610ec69190611c3c565b6040516020818303038152906040528051906020012081600001604051602001610ef09190611cd6565b60405160208183030381529060405280519060200120148015610f46575080600301548510158015610f26575080600401548511155b80610f45575080600301548410158015610f44575080600401548411155b5b5b15610f5657600192505050610f70565b508080610f6290611ced565b915050610e83565b50600090505b9392505050565b6000819050919050565b610f8a81610f77565b82525050565b6000602082019050610fa56000830184610f81565b92915050565b6000604051905090565b600080fd5b600080fd5b610fc881610f77565b8114610fd357600080fd5b50565b600081359050610fe581610fbf565b92915050565b60006020828403121561100157611000610fb5565b5b600061100f84828501610fd6565b91505092915050565b600081519050919050565b600082825260208201905092915050565b60005b83811015611052578082015181840152602081019050611037565b60008484015250505050565b6000601f19601f8301169050919050565b600061107a82611018565b6110848185611023565b9350611094818560208601611034565b61109d8161105e565b840191505092915050565b600060a08201905081810360008301526110c2818861106f565b90506110d16020830187610f81565b81810360408301526110e3818661106f565b905081810360608301526110f7818561106f565b90506111066080830184610f81565b9695505050505050565b600060c0820190506111256000830189610f81565b8181036020830152611137818861106f565b90506111466040830187610f81565b8181036060830152611158818661106f565b9050818103608083015261116c818561106f565b905061117b60a0830184610f81565b979650505050505050565b60008115159050919050565b61119b81611186565b82525050565b60006020820190506111b66000830184611192565b92915050565b7f4e487b7100000000000000000000000000000000000000000000000000000000600052602160045260246000fd5b600381106111fc576111fb6111bc565b5b50565b600081905061120d826111eb565b919050565b600061121d826111ff565b9050919050565b61122d81611212565b82525050565b600060a082019050818103600083015261124d818861106f565b905061125c6020830187611224565b818103604083015261126e818661106f565b905061127d6060830185610f81565b61128a6080830184610f81565b9695505050505050565b600080fd5b600080fd5b7f4e487b7100000000000000000000000000000000000000000000000000000000600052604160045260246000fd5b6112d68261105e565b810181811067ffffffffffffffff821117156112f5576112f461129e565b5b80604052505050565b6000611308610fab565b905061131482826112cd565b919050565b600067ffffffffffffffff8211156113345761133361129e565b5b61133d8261105e565b9050602081019050919050565b82818337600083830152505050565b600061136c61136784611319565b6112fe565b90508281526020810184848401111561138857611387611299565b5b61139384828561134a565b509392505050565b600082601f8301126113b0576113af611294565b5b81356113c0848260208601611359565b91505092915050565b600080600080600060a086880312156113e5576113e4610fb5565b5b600086013567ffffffffffffffff81111561140357611402610fba565b5b61140f8882890161139b565b955050602061142088828901610fd6565b945050604086013567ffffffffffffffff81111561144157611440610fba565b5b61144d8882890161139b565b935050606086013567ffffffffffffffff81111561146e5761146d610fba565b5b61147a8882890161139b565b925050608061148b88828901610fd6565b9150509295509295909350565b600381106114a557600080fd5b50565b6000813590506114b781611498565b92915050565b600080600080600060a086880312156114d9576114d8610fb5565b5b600086013567ffffffffffffffff8111156114f7576114f6610fba565b5b6115038882890161139b565b9550506020611514888289016114a8565b945050604086013567ffffffffffffffff81111561153557611534610fba565b5b6115418882890161139b565b935050606061155288828901610fd6565b925050608061156388828901610fd6565b9150509295509295909350565b7f43616e64696461746520646f6573206e6f742065786973742e00000000000000600082015250565b60006115a6601983611023565b91506115b182611570565b602082019050919050565b600060208201905081810360008301526115d581611599565b9050919050565b7f4e487b7100000000000000000000000000000000000000000000000000000000600052603260045260246000fd5b7f4e487b7100000000000000000000000000000000000000000000000000000000600052602260045260246000fd5b6000600282049050600182168061165257607f821691505b6020821081036116655761166461160b565b5b50919050565b7f4e6f20656c656374696f6e7320617661696c61626c652e20506c65617365206360008201527f726561746520616e20656c656374696f6e2066697273742e0000000000000000602082015250565b60006116c7603883611023565b91506116d28261166b565b604082019050919050565b600060208201905081810360008301526116f6816116ba565b9050919050565b7f456c656374696f6e2068617320656e6465642e204e6f206d6f72652063616e6460008201527f6964617465732063616e2062652061646465642e000000000000000000000000602082015250565b6000611759603483611023565b9150611764826116fd565b604082019050919050565b600060208201905081810360008301526117888161174c565b9050919050565b7f43616e64696461746520616c7265616479206578697374732e00000000000000600082015250565b60006117c5601983611023565b91506117d08261178f565b602082019050919050565b600060208201905081810360008301526117f4816117b8565b9050919050565b60008190508160005260206000209050919050565b60006020601f8301049050919050565b600082821b905092915050565b60006008830261185d7fffffffffffffffffffffffffffffffffffffffffffffffffffffffffffffffff82611820565b6118678683611820565b95508019841693508086168417925050509392505050565b6000819050919050565b60006118a461189f61189a84610f77565b61187f565b610f77565b9050919050565b6000819050919050565b6118be83611889565b6118d26118ca826118ab565b84845461182d565b825550505050565b600090565b6118e76118da565b6118f28184846118b5565b505050565b5b818110156119165761190b6000826118df565b6001810190506118f8565b5050565b601f82111561195b5761192c816117fb565b61193584611810565b81016020851015611944578190505b61195861195085611810565b8301826118f7565b50505b505050565b600082821c905092915050565b600061197e60001984600802611960565b1980831691505092915050565b6000611997838361196d565b9150826002028217905092915050565b6119b082611018565b67ffffffffffffffff8111156119c9576119c861129e565b5b6119d3825461163a565b6119de82828561191a565b600060209050601f831160018114611a1157600084156119ff578287015190505b611a09858261198b565b865550611a71565b601f198416611a1f866117fb565b60005b82811015611a4757848901518255600182019150602085019450602081019050611a22565b86831015611a645784890151611a60601f89168261196d565b8355505b6001600288020188555050505b505050505050565b7f4e487b7100000000000000000000000000000000000000000000000000000000600052601160045260246000fd5b6000611ab382610f77565b9150611abe83610f77565b9250828203905081811115611ad657611ad5611a79565b5b92915050565b7f456c656374696f6e2077697468207468652073616d65206e616d65206f72206f60008201527f7665726c617070696e672074696d6520706572696f6420616c7265616479206560208201527f78697374732e0000000000000000000000000000000000000000000000000000604082015250565b6000611b5e604683611023565b9150611b6982611adc565b606082019050919050565b60006020820190508181036000830152611b8d81611b51565b9050919050565b7f456c656374696f6e20646f6573206e6f742065786973742e0000000000000000600082015250565b6000611bca601883611023565b9150611bd582611b94565b602082019050919050565b60006020820190508181036000830152611bf981611bbd565b9050919050565b600081905092915050565b6000611c1682611018565b611c208185611c00565b9350611c30818560208601611034565b80840191505092915050565b6000611c488284611c0b565b915081905092915050565b60008154611c608161163a565b611c6a8186611c00565b94506001821660008114611c855760018114611c9a57611ccd565b60ff1983168652811515820286019350611ccd565b611ca3856117fb565b60005b83811015611cc557815481890152600182019150602081019050611ca6565b838801955050505b50505092915050565b6000611ce28284611c53565b915081905092915050565b6000611cf882610f77565b91507fffffffffffffffffffffffffffffffffffffffffffffffffffffffffffffffff8203611d2a57611d29611a79565b5b60018201905091905056fea26469706673582212205609aa613352c4deba1a66aba25c9638aad9906e99f21ca8ffa8848301ea01dc64736f6c63430008130033",
  "immutableReferences": {},
  "source": "// SPDX-License-Identifier: MIT\r\npragma solidity ^0.8.0;\r\n\r\ncontract VotingSystem {\r\n\r\n    enum ElectionType { Political, Corporation, Academics }\r\n    \r\n    struct Candidate {\r\n        uint id;\r\n        string fullName;\r\n        uint age;\r\n        string description;\r\n        string image;\r\n        uint electionId;\r\n    }\r\n\r\n    struct Election {\r\n        string name;\r\n        ElectionType electionType;\r\n        string organizedBy;\r\n        uint startDate;\r\n        uint endDate;\r\n    }\r\n\r\n    Election[] public elections;\r\n    Candidate[] public candidates;\r\n    mapping(uint => bool) public candidateExists;\r\n\r\n    event NewElection(\r\n        string name,\r\n        ElectionType electionType,\r\n        string organizedBy,\r\n        uint startDate,\r\n        uint endDate\r\n    );\r\n    event NewCandidate(\r\n        uint candidateId,\r\n        string fullName,\r\n        uint age,\r\n        string description,\r\n        string image,\r\n        uint electionId\r\n    );\r\n\r\n    function addElection(\r\n        string memory _name,\r\n        ElectionType _electionType,\r\n        string memory _organizedBy,\r\n        uint _startDate,\r\n        uint _endDate\r\n    ) public {\r\n        require(\r\n            !electionExists(_name, _startDate, _endDate),\r\n            \"Election with the same name or overlapping time period already exists.\"\r\n        );\r\n\r\n        elections.push(\r\n            Election(_name, _electionType, _organizedBy, _startDate, _endDate)\r\n        );\r\n\r\n        emit NewElection(_name, _electionType, _organizedBy, _startDate, _endDate);\r\n    }\r\n\r\n    function addCandidate(\r\n        string memory _fullName,\r\n        uint _age,\r\n        string memory _description,\r\n        string memory _image,\r\n        uint _electionId\r\n\r\n    ) public {\r\n        require(\r\n            elections.length > 0, \r\n            \"No elections available. Please create an election first.\");\r\n       \r\n        require(\r\n            !electionEnded(), \r\n            \"Election has ended. No more candidates can be added.\");\r\n        \r\n        require(\r\n            !candidateExists[candidates.length],\r\n            \"Candidate already exists.\"\r\n        );\r\n\r\n        candidates.push(\r\n            Candidate(\r\n                candidates.length,\r\n                _fullName,\r\n                _age,\r\n                _description,\r\n                _image,\r\n                _electionId\r\n            )\r\n        );\r\n        candidateExists[candidates.length - 1] = true;\r\n\r\n        emit NewCandidate(\r\n            candidates.length - 1,\r\n            _fullName,\r\n            _age,\r\n            _description,\r\n            _image,\r\n            _electionId\r\n        );\r\n    }\r\n\r\n    function getCandidateDetails(uint _candidateId)\r\n        public\r\n        view\r\n        returns (\r\n            string memory,\r\n            uint,\r\n            string memory,\r\n            string memory,\r\n            uint\r\n        )\r\n    {\r\n        require(candidateExists[_candidateId], \"Candidate does not exist.\");\r\n        Candidate memory candidate = candidates[_candidateId];\r\n        return (\r\n            candidate.fullName,\r\n            candidate.age,\r\n            candidate.description,\r\n            candidate.image,\r\n            candidate.electionId\r\n        );\r\n    }\r\n\r\n    function getElectionDetails(uint _electionId) public view returns (\r\n    string memory,\r\n    ElectionType,\r\n    string memory,\r\n    uint,\r\n    uint\r\n      ) {\r\n    require(_electionId < elections.length, \"Election does not exist.\");\r\n    Election memory election = elections[_electionId];\r\n    return (\r\n        election.name,\r\n        election.electionType,\r\n        election.organizedBy,\r\n        election.startDate,\r\n        election.endDate\r\n    );\r\n    }\r\n\r\n    function getElectionCount() public view returns (uint) {\r\n    return elections.length;\r\n    }\r\n\r\n    function getCandidateCount() public view returns (uint) {\r\n    return candidates.length;\r\n    }\r\n\r\n    function electionEnded() public view returns (bool) {\r\n        if (elections.length == 0) {\r\n            return false;\r\n        }\r\n        Election storage currentElection = elections[elections.length - 1];\r\n        return block.timestamp > currentElection.endDate;\r\n    }\r\n\r\n\r\n   function electionExists(\r\n    string memory _name,\r\n    uint _startDate,\r\n    uint _endDate\r\n    ) internal view returns (bool) {\r\n    for (uint i = 0; i < elections.length; i++) {\r\n        Election storage existingElection = elections[i];\r\n        if (\r\n            keccak256(abi.encodePacked(existingElection.name)) == keccak256(abi.encodePacked(_name)) &&\r\n            (\r\n                (_startDate >= existingElection.startDate && _startDate <= existingElection.endDate) ||\r\n                (_endDate >= existingElection.startDate && _endDate <= existingElection.endDate)\r\n            )\r\n        ) {\r\n            return true;\r\n        }\r\n    }\r\n    return false;\r\n  }\r\n \r\n\r\n}\r\n",
  "sourcePath": "D:\\repos\\License\\voting-app\\src\\contracts\\VotingSystem.sol",
  "compiler": {
    "name": "solc",
    "version": "0.8.19+commit.7dd6d404.Emscripten.clang"
  },
  "schemaVersion": "3.4.13",
  "updatedAt": "2023-05-22T16:20:18.770Z",
  "networkType": "ethereum",
  "devdoc": {
    "kind": "dev",
    "methods": {},
    "version": 1
  },
  "userdoc": {
    "kind": "user",
    "methods": {},
    "version": 1
  }
}