{
  "contractName": "VotingSystem",
  "abi": [
    {
      "anonymous": false,
      "inputs": [
        {
          "indexed": false,
          "internalType": "uint256",
          "name": "candidateId",
          "type": "uint256"
        },
        {
          "indexed": false,
          "internalType": "string",
          "name": "fullName",
          "type": "string"
        },
        {
          "indexed": false,
          "internalType": "uint256",
          "name": "age",
          "type": "uint256"
        },
        {
          "indexed": false,
          "internalType": "string",
          "name": "description",
          "type": "string"
        },
        {
          "indexed": false,
          "internalType": "string",
          "name": "image",
          "type": "string"
        },
        {
          "indexed": false,
          "internalType": "uint256",
          "name": "electionId",
          "type": "uint256"
        }
      ],
      "name": "NewCandidate",
      "type": "event"
    },
    {
      "anonymous": false,
      "inputs": [
        {
          "indexed": false,
          "internalType": "uint256",
          "name": "id",
          "type": "uint256"
        },
        {
          "indexed": false,
          "internalType": "string",
          "name": "name",
          "type": "string"
        },
        {
          "indexed": false,
          "internalType": "enum VotingSystem.ElectionType",
          "name": "electionType",
          "type": "uint8"
        },
        {
          "indexed": false,
          "internalType": "string",
          "name": "organizedBy",
          "type": "string"
        },
        {
          "indexed": false,
          "internalType": "uint256",
          "name": "startDate",
          "type": "uint256"
        },
        {
          "indexed": false,
          "internalType": "uint256",
          "name": "endDate",
          "type": "uint256"
        }
      ],
      "name": "NewElection",
      "type": "event"
    },
    {
      "inputs": [
        {
          "internalType": "uint256",
          "name": "",
          "type": "uint256"
        }
      ],
      "name": "candidateExists",
      "outputs": [
        {
          "internalType": "bool",
          "name": "",
          "type": "bool"
        }
      ],
      "stateMutability": "view",
      "type": "function",
      "constant": true
    },
    {
      "inputs": [
        {
          "internalType": "uint256",
          "name": "",
          "type": "uint256"
        }
      ],
      "name": "candidates",
      "outputs": [
        {
          "internalType": "uint256",
          "name": "id",
          "type": "uint256"
        },
        {
          "internalType": "string",
          "name": "fullName",
          "type": "string"
        },
        {
          "internalType": "uint256",
          "name": "age",
          "type": "uint256"
        },
        {
          "internalType": "string",
          "name": "description",
          "type": "string"
        },
        {
          "internalType": "string",
          "name": "image",
          "type": "string"
        },
        {
          "internalType": "uint256",
          "name": "electionId",
          "type": "uint256"
        }
      ],
      "stateMutability": "view",
      "type": "function",
      "constant": true
    },
    {
      "inputs": [
        {
          "internalType": "uint256",
          "name": "",
          "type": "uint256"
        }
      ],
      "name": "elections",
      "outputs": [
        {
          "internalType": "uint256",
          "name": "id",
          "type": "uint256"
        },
        {
          "internalType": "string",
          "name": "name",
          "type": "string"
        },
        {
          "internalType": "enum VotingSystem.ElectionType",
          "name": "electionType",
          "type": "uint8"
        },
        {
          "internalType": "string",
          "name": "organizedBy",
          "type": "string"
        },
        {
          "internalType": "uint256",
          "name": "startDate",
          "type": "uint256"
        },
        {
          "internalType": "uint256",
          "name": "endDate",
          "type": "uint256"
        }
      ],
      "stateMutability": "view",
      "type": "function",
      "constant": true
    },
    {
      "inputs": [
        {
          "internalType": "string",
          "name": "_name",
          "type": "string"
        },
        {
          "internalType": "enum VotingSystem.ElectionType",
          "name": "_electionType",
          "type": "uint8"
        },
        {
          "internalType": "string",
          "name": "_organizedBy",
          "type": "string"
        },
        {
          "internalType": "uint256",
          "name": "_startDate",
          "type": "uint256"
        },
        {
          "internalType": "uint256",
          "name": "_endDate",
          "type": "uint256"
        }
      ],
      "name": "addElection",
      "outputs": [],
      "stateMutability": "nonpayable",
      "type": "function"
    },
    {
      "inputs": [
        {
          "internalType": "string",
          "name": "_fullName",
          "type": "string"
        },
        {
          "internalType": "uint256",
          "name": "_age",
          "type": "uint256"
        },
        {
          "internalType": "string",
          "name": "_description",
          "type": "string"
        },
        {
          "internalType": "string",
          "name": "_image",
          "type": "string"
        },
        {
          "internalType": "uint256",
          "name": "_electionId",
          "type": "uint256"
        }
      ],
      "name": "addCandidate",
      "outputs": [],
      "stateMutability": "nonpayable",
      "type": "function"
    },
    {
      "inputs": [
        {
          "internalType": "uint256",
          "name": "_candidateId",
          "type": "uint256"
        }
      ],
      "name": "getCandidateDetails",
      "outputs": [
        {
          "internalType": "string",
          "name": "",
          "type": "string"
        },
        {
          "internalType": "uint256",
          "name": "",
          "type": "uint256"
        },
        {
          "internalType": "string",
          "name": "",
          "type": "string"
        },
        {
          "internalType": "string",
          "name": "",
          "type": "string"
        },
        {
          "internalType": "uint256",
          "name": "",
          "type": "uint256"
        }
      ],
      "stateMutability": "view",
      "type": "function",
      "constant": true
    },
    {
      "inputs": [
        {
          "internalType": "uint256",
          "name": "_electionId",
          "type": "uint256"
        }
      ],
      "name": "getElectionDetails",
      "outputs": [
        {
          "internalType": "uint256",
          "name": "",
          "type": "uint256"
        },
        {
          "internalType": "string",
          "name": "",
          "type": "string"
        },
        {
          "internalType": "enum VotingSystem.ElectionType",
          "name": "",
          "type": "uint8"
        },
        {
          "internalType": "string",
          "name": "",
          "type": "string"
        },
        {
          "internalType": "uint256",
          "name": "",
          "type": "uint256"
        },
        {
          "internalType": "uint256",
          "name": "",
          "type": "uint256"
        }
      ],
      "stateMutability": "view",
      "type": "function",
      "constant": true
    },
    {
      "inputs": [],
      "name": "getElectionCount",
      "outputs": [
        {
          "internalType": "uint256",
          "name": "",
          "type": "uint256"
        }
      ],
      "stateMutability": "view",
      "type": "function",
      "constant": true
    },
    {
      "inputs": [],
      "name": "getCandidateCount",
      "outputs": [
        {
          "internalType": "uint256",
          "name": "",
          "type": "uint256"
        }
      ],
      "stateMutability": "view",
      "type": "function",
      "constant": true
    },
    {
      "inputs": [],
      "name": "electionEnded",
      "outputs": [
        {
          "internalType": "bool",
          "name": "",
          "type": "bool"
        }
      ],
      "stateMutability": "view",
      "type": "function",
      "constant": true
    },
    {
      "inputs": [],
      "name": "getActiveElections",
      "outputs": [
        {
          "components": [
            {
              "internalType": "uint256",
              "name": "id",
              "type": "uint256"
            },
            {
              "internalType": "string",
              "name": "name",
              "type": "string"
            },
            {
              "internalType": "enum VotingSystem.ElectionType",
              "name": "electionType",
              "type": "uint8"
            },
            {
              "internalType": "string",
              "name": "organizedBy",
              "type": "string"
            },
            {
              "internalType": "uint256",
              "name": "startDate",
              "type": "uint256"
            },
            {
              "internalType": "uint256",
              "name": "endDate",
              "type": "uint256"
            }
          ],
          "internalType": "struct VotingSystem.Election[]",
          "name": "",
          "type": "tuple[]"
        }
      ],
      "stateMutability": "view",
      "type": "function",
      "constant": true
    },
    {
      "inputs": [
        {
          "internalType": "uint256",
          "name": "_electionId",
          "type": "uint256"
        }
      ],
      "name": "getCandidatesByElectionId",
      "outputs": [
        {
          "components": [
            {
              "internalType": "uint256",
              "name": "id",
              "type": "uint256"
            },
            {
              "internalType": "string",
              "name": "fullName",
              "type": "string"
            },
            {
              "internalType": "uint256",
              "name": "age",
              "type": "uint256"
            },
            {
              "internalType": "string",
              "name": "description",
              "type": "string"
            },
            {
              "internalType": "string",
              "name": "image",
              "type": "string"
            },
            {
              "internalType": "uint256",
              "name": "electionId",
              "type": "uint256"
            }
          ],
          "internalType": "struct VotingSystem.Candidate[]",
          "name": "",
          "type": "tuple[]"
        }
      ],
      "stateMutability": "view",
      "type": "function",
      "constant": true
    }
  ],
  "bytecode": "0x608060405234801561001057600080fd5b506128c5806100206000396000f3fe608060405234801561001057600080fd5b50600436106100b45760003560e01c80635e6fef01116100715780635e6fef01146101be57806369b5b8fe146101f35780638a3b63b01461020f578063a632f26f1461022d578063c94ca9e314610249578063f604992414610267576100b4565b806309e53189146100b9578063213785a0146100e957806327f9fd501461010757806330a563471461013b5780633477ee2e146101595780634a3b88771461018e575b600080fd5b6100d360048036038101906100ce91906117b6565b61029c565b6040516100e091906119db565b60405180910390f35b6100f1610627565b6040516100fe9190611a0c565b60405180910390f35b610121600480360381019061011c91906117b6565b610633565b604051610132959493929190611a71565b60405180910390f35b6101436108ce565b6040516101509190611a0c565b60405180910390f35b610173600480360381019061016e91906117b6565b6108db565b60405161018596959493929190611ad9565b60405180910390f35b6101a860048036038101906101a391906117b6565b610abf565b6040516101b59190611b6a565b60405180910390f35b6101d860048036038101906101d391906117b6565b610adf565b6040516101ea96959493929190611bfc565b60405180910390f35b61020d60048036038101906102089190611da0565b610c48565b005b610217610e90565b6040516102249190611fd0565b60405180910390f35b61024760048036038101906102429190612017565b6111e1565b005b610251611364565b60405161025e9190611b6a565b60405180910390f35b610281600480360381019061027c91906117b6565b6113bf565b60405161029396959493929190611bfc565b60405180910390f35b606060008054905082106102e5576040517f08c379a00000000000000000000000000000000000000000000000000000000081526004016102dc90612116565b60405180910390fd5b6000805b60018054905081101561034457836001828154811061030b5761030a612136565b5b9060005260206000209060060201600501540361033157818061032d90612194565b9250505b808061033c90612194565b9150506102e9565b5060008167ffffffffffffffff81111561036157610360611c75565b5b60405190808252806020026020018201604052801561039a57816020015b6103876116ee565b81526020019060019003908161037f5790505b5090506000805b60018054905081101561061b5785600182815481106103c3576103c2612136565b5b9060005260206000209060060201600501540361060857600181815481106103ee576103ed612136565b5b90600052602060002090600602016040518060c0016040529081600082015481526020016001820180546104219061220b565b80601f016020809104026020016040519081016040528092919081815260200182805461044d9061220b565b801561049a5780601f1061046f5761010080835404028352916020019161049a565b820191906000526020600020905b81548152906001019060200180831161047d57829003601f168201915b50505050508152602001600282015481526020016003820180546104bd9061220b565b80601f01602080910402602001604051908101604052809291908181526020018280546104e99061220b565b80156105365780601f1061050b57610100808354040283529160200191610536565b820191906000526020600020905b81548152906001019060200180831161051957829003601f168201915b5050505050815260200160048201805461054f9061220b565b80601f016020809104026020016040519081016040528092919081815260200182805461057b9061220b565b80156105c85780601f1061059d576101008083540402835291602001916105c8565b820191906000526020600020905b8154815290600101906020018083116105ab57829003601f168201915b505050505081526020016005820154815250508383815181106105ee576105ed612136565b5b6020026020010181905250818061060490612194565b9250505b808061061390612194565b9150506103a1565b50819350505050919050565b60008080549050905090565b6060600060608060006002600087815260200190815260200160002060009054906101000a900460ff1661069c576040517f08c379a000000000000000000000000000000000000000000000000000000000815260040161069390612288565b60405180910390fd5b6000600187815481106106b2576106b1612136565b5b90600052602060002090600602016040518060c0016040529081600082015481526020016001820180546106e59061220b565b80601f01602080910402602001604051908101604052809291908181526020018280546107119061220b565b801561075e5780601f106107335761010080835404028352916020019161075e565b820191906000526020600020905b81548152906001019060200180831161074157829003601f168201915b50505050508152602001600282015481526020016003820180546107819061220b565b80601f01602080910402602001604051908101604052809291908181526020018280546107ad9061220b565b80156107fa5780601f106107cf576101008083540402835291602001916107fa565b820191906000526020600020905b8154815290600101906020018083116107dd57829003601f168201915b505050505081526020016004820180546108139061220b565b80601f016020809104026020016040519081016040528092919081815260200182805461083f9061220b565b801561088c5780601f106108615761010080835404028352916020019161088c565b820191906000526020600020905b81548152906001019060200180831161086f57829003601f168201915b50505050508152602001600582015481525050905080602001518160400151826060015183608001518460a00151955095509550955095505091939590929450565b6000600180549050905090565b600181815481106108eb57600080fd5b90600052602060002090600602016000915090508060000154908060010180546109149061220b565b80601f01602080910402602001604051908101604052809291908181526020018280546109409061220b565b801561098d5780601f106109625761010080835404028352916020019161098d565b820191906000526020600020905b81548152906001019060200180831161097057829003601f168201915b5050505050908060020154908060030180546109a89061220b565b80601f01602080910402602001604051908101604052809291908181526020018280546109d49061220b565b8015610a215780601f106109f657610100808354040283529160200191610a21565b820191906000526020600020905b815481529060010190602001808311610a0457829003601f168201915b505050505090806004018054610a369061220b565b80601f0160208091040260200160405190810160405280929190818152602001828054610a629061220b565b8015610aaf5780601f10610a8457610100808354040283529160200191610aaf565b820191906000526020600020905b815481529060010190602001808311610a9257829003601f168201915b5050505050908060050154905086565b60026020528060005260406000206000915054906101000a900460ff1681565b60008181548110610aef57600080fd5b9060005260206000209060060201600091509050806000015490806001018054610b189061220b565b80601f0160208091040260200160405190810160405280929190818152602001828054610b449061220b565b8015610b915780601f10610b6657610100808354040283529160200191610b91565b820191906000526020600020905b815481529060010190602001808311610b7457829003601f168201915b5050505050908060020160009054906101000a900460ff1690806003018054610bb99061220b565b80601f0160208091040260200160405190810160405280929190818152602001828054610be59061220b565b8015610c325780601f10610c0757610100808354040283529160200191610c32565b820191906000526020600020905b815481529060010190602001808311610c1557829003601f168201915b5050505050908060040154908060050154905086565b6000808054905011610c8f576040517f08c379a0000000000000000000000000000000000000000000000000000000008152600401610c869061231a565b60405180910390fd5b610c97611364565b15610cd7576040517f08c379a0000000000000000000000000000000000000000000000000000000008152600401610cce906123ac565b60405180910390fd5b60026000600180549050815260200190815260200160002060009054906101000a900460ff1615610d3d576040517f08c379a0000000000000000000000000000000000000000000000000000000008152600401610d3490612418565b60405180910390fd5b60016040518060c001604052806001805490508152602001878152602001868152602001858152602001848152602001838152509080600181540180825580915050600190039060005260206000209060060201600090919091909150600082015181600001556020820151816001019081610db991906125e4565b50604082015181600201556060820151816003019081610dd991906125e4565b506080820151816004019081610def91906125e4565b5060a08201518160050155505060016002600060018080549050610e1391906126b6565b815260200190815260200160002060006101000a81548160ff0219169083151502179055507f28ed2caf3cc55f9932b59fd5384dc3756cc2d9331c68878e6ff198f93089ee5c60018080549050610e6a91906126b6565b8686868686604051610e8196959493929190611ad9565b60405180910390a15050505050565b60606000805b600080549050811015610f245760008181548110610eb757610eb6612136565b5b9060005260206000209060060201600401544210158015610efd575060008181548110610ee757610ee6612136565b5b9060005260206000209060060201600501544211155b15610f11578180610f0d90612194565b9250505b8080610f1c90612194565b915050610e96565b5060008167ffffffffffffffff811115610f4157610f40611c75565b5b604051908082528060200260200182016040528015610f7a57816020015b610f67611724565b815260200190600190039081610f5f5790505b5090506000805b6000805490508110156111d75760008181548110610fa257610fa1612136565b5b9060005260206000209060060201600401544210158015610fe8575060008181548110610fd257610fd1612136565b5b9060005260206000209060060201600501544211155b156111c4576000818154811061100157611000612136565b5b90600052602060002090600602016040518060c0016040529081600082015481526020016001820180546110349061220b565b80601f01602080910402602001604051908101604052809291908181526020018280546110609061220b565b80156110ad5780601f10611082576101008083540402835291602001916110ad565b820191906000526020600020905b81548152906001019060200180831161109057829003601f168201915b505050505081526020016002820160009054906101000a900460ff1660028111156110db576110da611b85565b5b60028111156110ed576110ec611b85565b5b81526020016003820180546111019061220b565b80601f016020809104026020016040519081016040528092919081815260200182805461112d9061220b565b801561117a5780601f1061114f5761010080835404028352916020019161117a565b820191906000526020600020905b81548152906001019060200180831161115d57829003601f168201915b50505050508152602001600482015481526020016005820154815250508383815181106111aa576111a9612136565b5b602002602001018190525081806111c090612194565b9250505b80806111cf90612194565b915050610f81565b5081935050505090565b6111ec8583836115f2565b1561122c576040517f08c379a000000000000000000000000000000000000000000000000000000000815260040161122390612782565b60405180910390fd5b60008080549050905060006040518060c0016040528083815260200188815260200187600281111561126157611260611b85565b5b81526020018681526020018581526020018481525090806001815401808255809150506001900390600052602060002090600602016000909190919091506000820151816000015560208201518160010190816112be91906125e4565b5060408201518160020160006101000a81548160ff021916908360028111156112ea576112e9611b85565b5b0217905550606082015181600301908161130491906125e4565b506080820151816004015560a0820151816005015550507f1843c3bc04ac66d2c840f52a0170a69f0746fe93c90a2f9f03b3e05e07d8ed2c81878787878760405161135496959493929190611bfc565b60405180910390a1505050505050565b6000806000805490500361137b57600090506113bc565b600080600160008054905061139091906126b6565b815481106113a1576113a0612136565b5b90600052602060002090600602019050806005015442119150505b90565b60006060600060606000806000805490508710611411576040517f08c379a000000000000000000000000000000000000000000000000000000000815260040161140890612116565b60405180910390fd5b600080888154811061142657611425612136565b5b90600052602060002090600602016040518060c0016040529081600082015481526020016001820180546114599061220b565b80601f01602080910402602001604051908101604052809291908181526020018280546114859061220b565b80156114d25780601f106114a7576101008083540402835291602001916114d2565b820191906000526020600020905b8154815290600101906020018083116114b557829003601f168201915b505050505081526020016002820160009054906101000a900460ff166002811115611500576114ff611b85565b5b600281111561151257611511611b85565b5b81526020016003820180546115269061220b565b80601f01602080910402602001604051908101604052809291908181526020018280546115529061220b565b801561159f5780601f106115745761010080835404028352916020019161159f565b820191906000526020600020905b81548152906001019060200180831161158257829003601f168201915b50505050508152602001600482015481526020016005820154815250509050806000015181602001518260400151836060015184608001518560a001519650965096509650965096505091939550919395565b600080600090505b6000805490508110156116e157600080828154811061161c5761161b612136565b5b906000526020600020906006020190508560405160200161163d91906127de565b60405160208183030381529060405280519060200120816001016040516020016116679190612878565b604051602081830303815290604052805190602001201480156116bd57508060040154851015801561169d575080600501548511155b806116bc5750806004015484101580156116bb575080600501548411155b5b5b156116cd576001925050506116e7565b5080806116d990612194565b9150506115fa565b50600090505b9392505050565b6040518060c001604052806000815260200160608152602001600081526020016060815260200160608152602001600081525090565b6040518060c0016040528060008152602001606081526020016000600281111561175157611750611b85565b5b81526020016060815260200160008152602001600081525090565b6000604051905090565b600080fd5b600080fd5b6000819050919050565b61179381611780565b811461179e57600080fd5b50565b6000813590506117b08161178a565b92915050565b6000602082840312156117cc576117cb611776565b5b60006117da848285016117a1565b91505092915050565b600081519050919050565b600082825260208201905092915050565b6000819050602082019050919050565b61181881611780565b82525050565b600081519050919050565b600082825260208201905092915050565b60005b8381101561185857808201518184015260208101905061183d565b60008484015250505050565b6000601f19601f8301169050919050565b60006118808261181e565b61188a8185611829565b935061189a81856020860161183a565b6118a381611864565b840191505092915050565b600060c0830160008301516118c6600086018261180f565b50602083015184820360208601526118de8282611875565b91505060408301516118f3604086018261180f565b506060830151848203606086015261190b8282611875565b915050608083015184820360808601526119258282611875565b91505060a083015161193a60a086018261180f565b508091505092915050565b600061195183836118ae565b905092915050565b6000602082019050919050565b6000611971826117e3565b61197b81856117ee565b93508360208202850161198d856117ff565b8060005b858110156119c957848403895281516119aa8582611945565b94506119b583611959565b925060208a01995050600181019050611991565b50829750879550505050505092915050565b600060208201905081810360008301526119f58184611966565b905092915050565b611a0681611780565b82525050565b6000602082019050611a2160008301846119fd565b92915050565b600082825260208201905092915050565b6000611a438261181e565b611a4d8185611a27565b9350611a5d81856020860161183a565b611a6681611864565b840191505092915050565b600060a0820190508181036000830152611a8b8188611a38565b9050611a9a60208301876119fd565b8181036040830152611aac8186611a38565b90508181036060830152611ac08185611a38565b9050611acf60808301846119fd565b9695505050505050565b600060c082019050611aee60008301896119fd565b8181036020830152611b008188611a38565b9050611b0f60408301876119fd565b8181036060830152611b218186611a38565b90508181036080830152611b358185611a38565b9050611b4460a08301846119fd565b979650505050505050565b60008115159050919050565b611b6481611b4f565b82525050565b6000602082019050611b7f6000830184611b5b565b92915050565b7f4e487b7100000000000000000000000000000000000000000000000000000000600052602160045260246000fd5b60038110611bc557611bc4611b85565b5b50565b6000819050611bd682611bb4565b919050565b6000611be682611bc8565b9050919050565b611bf681611bdb565b82525050565b600060c082019050611c1160008301896119fd565b8181036020830152611c238188611a38565b9050611c326040830187611bed565b8181036060830152611c448186611a38565b9050611c5360808301856119fd565b611c6060a08301846119fd565b979650505050505050565b600080fd5b600080fd5b7f4e487b7100000000000000000000000000000000000000000000000000000000600052604160045260246000fd5b611cad82611864565b810181811067ffffffffffffffff82111715611ccc57611ccb611c75565b5b80604052505050565b6000611cdf61176c565b9050611ceb8282611ca4565b919050565b600067ffffffffffffffff821115611d0b57611d0a611c75565b5b611d1482611864565b9050602081019050919050565b82818337600083830152505050565b6000611d43611d3e84611cf0565b611cd5565b905082815260208101848484011115611d5f57611d5e611c70565b5b611d6a848285611d21565b509392505050565b600082601f830112611d8757611d86611c6b565b5b8135611d97848260208601611d30565b91505092915050565b600080600080600060a08688031215611dbc57611dbb611776565b5b600086013567ffffffffffffffff811115611dda57611dd961177b565b5b611de688828901611d72565b9550506020611df7888289016117a1565b945050604086013567ffffffffffffffff811115611e1857611e1761177b565b5b611e2488828901611d72565b935050606086013567ffffffffffffffff811115611e4557611e4461177b565b5b611e5188828901611d72565b9250506080611e62888289016117a1565b9150509295509295909350565b600081519050919050565b600082825260208201905092915050565b6000819050602082019050919050565b611ea481611bdb565b82525050565b600060c083016000830151611ec2600086018261180f565b5060208301518482036020860152611eda8282611875565b9150506040830151611eef6040860182611e9b565b5060608301518482036060860152611f078282611875565b9150506080830151611f1c608086018261180f565b5060a0830151611f2f60a086018261180f565b508091505092915050565b6000611f468383611eaa565b905092915050565b6000602082019050919050565b6000611f6682611e6f565b611f708185611e7a565b935083602082028501611f8285611e8b565b8060005b85811015611fbe5784840389528151611f9f8582611f3a565b9450611faa83611f4e565b925060208a01995050600181019050611f86565b50829750879550505050505092915050565b60006020820190508181036000830152611fea8184611f5b565b905092915050565b60038110611fff57600080fd5b50565b60008135905061201181611ff2565b92915050565b600080600080600060a0868803121561203357612032611776565b5b600086013567ffffffffffffffff8111156120515761205061177b565b5b61205d88828901611d72565b955050602061206e88828901612002565b945050604086013567ffffffffffffffff81111561208f5761208e61177b565b5b61209b88828901611d72565b93505060606120ac888289016117a1565b92505060806120bd888289016117a1565b9150509295509295909350565b7f456c656374696f6e20646f6573206e6f742065786973742e0000000000000000600082015250565b6000612100601883611a27565b915061210b826120ca565b602082019050919050565b6000602082019050818103600083015261212f816120f3565b9050919050565b7f4e487b7100000000000000000000000000000000000000000000000000000000600052603260045260246000fd5b7f4e487b7100000000000000000000000000000000000000000000000000000000600052601160045260246000fd5b600061219f82611780565b91507fffffffffffffffffffffffffffffffffffffffffffffffffffffffffffffffff82036121d1576121d0612165565b5b600182019050919050565b7f4e487b7100000000000000000000000000000000000000000000000000000000600052602260045260246000fd5b6000600282049050600182168061222357607f821691505b602082108103612236576122356121dc565b5b50919050565b7f43616e64696461746520646f6573206e6f742065786973742e00000000000000600082015250565b6000612272601983611a27565b915061227d8261223c565b602082019050919050565b600060208201905081810360008301526122a181612265565b9050919050565b7f4e6f20656c656374696f6e7320617661696c61626c652e20506c65617365206360008201527f726561746520616e20656c656374696f6e2066697273742e0000000000000000602082015250565b6000612304603883611a27565b915061230f826122a8565b604082019050919050565b60006020820190508181036000830152612333816122f7565b9050919050565b7f456c656374696f6e2068617320656e6465642e204e6f206d6f72652063616e6460008201527f6964617465732063616e2062652061646465642e000000000000000000000000602082015250565b6000612396603483611a27565b91506123a18261233a565b604082019050919050565b600060208201905081810360008301526123c581612389565b9050919050565b7f43616e64696461746520616c7265616479206578697374732e00000000000000600082015250565b6000612402601983611a27565b915061240d826123cc565b602082019050919050565b60006020820190508181036000830152612431816123f5565b9050919050565b60008190508160005260206000209050919050565b60006020601f8301049050919050565b600082821b905092915050565b60006008830261249a7fffffffffffffffffffffffffffffffffffffffffffffffffffffffffffffffff8261245d565b6124a4868361245d565b95508019841693508086168417925050509392505050565b6000819050919050565b60006124e16124dc6124d784611780565b6124bc565b611780565b9050919050565b6000819050919050565b6124fb836124c6565b61250f612507826124e8565b84845461246a565b825550505050565b600090565b612524612517565b61252f8184846124f2565b505050565b5b818110156125535761254860008261251c565b600181019050612535565b5050565b601f8211156125985761256981612438565b6125728461244d565b81016020851015612581578190505b61259561258d8561244d565b830182612534565b50505b505050565b600082821c905092915050565b60006125bb6000198460080261259d565b1980831691505092915050565b60006125d483836125aa565b9150826002028217905092915050565b6125ed8261181e565b67ffffffffffffffff81111561260657612605611c75565b5b612610825461220b565b61261b828285612557565b600060209050601f83116001811461264e576000841561263c578287015190505b61264685826125c8565b8655506126ae565b601f19841661265c86612438565b60005b828110156126845784890151825560018201915060208501945060208101905061265f565b868310156126a1578489015161269d601f8916826125aa565b8355505b6001600288020188555050505b505050505050565b60006126c182611780565b91506126cc83611780565b92508282039050818111156126e4576126e3612165565b5b92915050565b7f456c656374696f6e2077697468207468652073616d65206e616d65206f72206f60008201527f7665726c617070696e672074696d6520706572696f6420616c7265616479206560208201527f78697374732e0000000000000000000000000000000000000000000000000000604082015250565b600061276c604683611a27565b9150612777826126ea565b606082019050919050565b6000602082019050818103600083015261279b8161275f565b9050919050565b600081905092915050565b60006127b88261181e565b6127c281856127a2565b93506127d281856020860161183a565b80840191505092915050565b60006127ea82846127ad565b915081905092915050565b600081546128028161220b565b61280c81866127a2565b94506001821660008114612827576001811461283c5761286f565b60ff198316865281151582028601935061286f565b61284585612438565b60005b8381101561286757815481890152600182019150602081019050612848565b838801955050505b50505092915050565b600061288482846127f5565b91508190509291505056fea264697066735822122066995b02ed081924cd12fbf685e0306778a3de9e143d4fcf6e5b8f0a73aa355964736f6c63430008130033",
  "immutableReferences": {},
  "source": "// SPDX-License-Identifier: MIT\r\npragma solidity ^0.8.0;\r\n\r\ncontract VotingSystem {\r\n    enum ElectionType { Political, Corporation, Academics }\r\n\r\n    struct Candidate {\r\n        uint id;\r\n        string fullName;\r\n        uint age;\r\n        string description;\r\n        string image;\r\n        uint electionId;\r\n    }\r\n\r\n    struct Election {\r\n        uint id;\r\n        string name;\r\n        ElectionType electionType;\r\n        string organizedBy;\r\n        uint startDate;\r\n        uint endDate;\r\n    }\r\n\r\n    Election[] public elections;\r\n    Candidate[] public candidates;\r\n    mapping(uint => bool) public candidateExists;\r\n\r\n    event NewElection(\r\n        uint id,\r\n        string name,\r\n        ElectionType electionType,\r\n        string organizedBy,\r\n        uint startDate,\r\n        uint endDate\r\n    );\r\n\r\n    event NewCandidate(\r\n        uint candidateId,\r\n        string fullName,\r\n        uint age,\r\n        string description,\r\n        string image,\r\n        uint electionId\r\n    );\r\n\r\n    function addElection(\r\n        string memory _name,\r\n        ElectionType _electionType,\r\n        string memory _organizedBy,\r\n        uint _startDate,\r\n        uint _endDate\r\n    ) public {\r\n        require(\r\n            !electionExists(_name, _startDate, _endDate),\r\n            \"Election with the same name or overlapping time period already exists.\"\r\n        );\r\n\r\n        uint electionId = elections.length;\r\n        elections.push(\r\n            Election(electionId, _name, _electionType, _organizedBy, _startDate, _endDate)\r\n        );\r\n\r\n        emit NewElection(electionId, _name, _electionType, _organizedBy, _startDate, _endDate);\r\n    }\r\n\r\n    function addCandidate(\r\n        string memory _fullName,\r\n        uint _age,\r\n        string memory _description,\r\n        string memory _image,\r\n        uint _electionId\r\n    ) public {\r\n        require(\r\n            elections.length > 0,\r\n            \"No elections available. Please create an election first.\"\r\n        );\r\n\r\n        require(\r\n            !electionEnded(),\r\n            \"Election has ended. No more candidates can be added.\"\r\n        );\r\n\r\n        require(\r\n            !candidateExists[candidates.length],\r\n            \"Candidate already exists.\"\r\n        );\r\n\r\n        candidates.push(\r\n            Candidate(\r\n                candidates.length,\r\n                _fullName,\r\n                _age,\r\n                _description,\r\n                _image,\r\n                _electionId\r\n            )\r\n        );\r\n        candidateExists[candidates.length - 1] = true;\r\n\r\n        emit NewCandidate(\r\n            candidates.length - 1,\r\n            _fullName,\r\n            _age,\r\n            _description,\r\n            _image,\r\n            _electionId\r\n        );\r\n    }\r\n\r\n    function getCandidateDetails(uint _candidateId)\r\n        public\r\n        view\r\n        returns (\r\n            string memory,\r\n            uint,\r\n            string memory,\r\n            string memory,\r\n            uint\r\n        )\r\n    {\r\n        require(candidateExists[_candidateId], \"Candidate does not exist.\");\r\n        Candidate memory candidate = candidates[_candidateId];\r\n        return (\r\n            candidate.fullName,\r\n            candidate.age,\r\n            candidate.description,\r\n            candidate.image,\r\n            candidate.electionId\r\n        );\r\n    }\r\n\r\n    function getElectionDetails(uint _electionId)\r\n        public\r\n        view\r\n        returns (\r\n            uint,\r\n            string memory,\r\n            ElectionType,\r\n            string memory,\r\n            uint,\r\n            uint\r\n        )\r\n    {\r\n        require(_electionId < elections.length, \"Election does not exist.\");\r\n        Election memory election = elections[_electionId];\r\n        return (\r\n            election.id,\r\n            election.name,\r\n            election.electionType,\r\n            election.organizedBy,\r\n            election.startDate,\r\n            election.endDate\r\n        );\r\n    }\r\n\r\n    function getElectionCount() public view returns (uint) {\r\n        return elections.length;\r\n    }\r\n\r\n    function getCandidateCount() public view returns (uint) {\r\n        return candidates.length;\r\n    }\r\n\r\n    function electionEnded() public view returns (bool) {\r\n        if (elections.length == 0) {\r\n            return false;\r\n        }\r\n        Election storage currentElection = elections[elections.length - 1];\r\n        return block.timestamp > currentElection.endDate;\r\n    }\r\n\r\n    function getActiveElections() public view returns (Election[] memory) {\r\n        uint activeElectionCount = 0;\r\n        for (uint i = 0; i < elections.length; i++) {\r\n            if (block.timestamp >= elections[i].startDate && block.timestamp <= elections[i].endDate) {\r\n                activeElectionCount++;\r\n            }\r\n        }\r\n        Election[] memory activeElections = new Election[](activeElectionCount);\r\n        uint currentIndex = 0;\r\n        for (uint i = 0; i < elections.length; i++) {\r\n            if (block.timestamp >= elections[i].startDate && block.timestamp <= elections[i].endDate) {\r\n                activeElections[currentIndex] = elections[i];\r\n                currentIndex++;\r\n            }\r\n        }\r\n        return activeElections;\r\n    }\r\n\r\n    function getCandidatesByElectionId(uint _electionId) public view returns (Candidate[] memory) {\r\n        require(_electionId < elections.length, \"Election does not exist.\");\r\n\r\n        uint candidateCount = 0;\r\n\r\n        // Count the candidates belonging to the election\r\n        for (uint i = 0; i < candidates.length; i++) {\r\n            if (candidates[i].electionId == _electionId) {\r\n                candidateCount++;\r\n            }\r\n        }\r\n\r\n        Candidate[] memory electionCandidates = new Candidate[](candidateCount);\r\n        uint currentIndex = 0;\r\n\r\n        // Get the candidates belonging to the election\r\n        for (uint i = 0; i < candidates.length; i++) {\r\n            if (candidates[i].electionId == _electionId) {\r\n                electionCandidates[currentIndex] = candidates[i];\r\n                currentIndex++;\r\n            }\r\n        }\r\n\r\n        return electionCandidates;\r\n    }\r\n\r\n    function electionExists(\r\n        string memory _name,\r\n        uint _startDate,\r\n        uint _endDate\r\n    ) internal view returns (bool) {\r\n        for (uint i = 0; i < elections.length; i++) {\r\n            Election storage existingElection = elections[i];\r\n            if (\r\n                keccak256(abi.encodePacked(existingElection.name)) == keccak256(abi.encodePacked(_name)) &&\r\n                ((_startDate >= existingElection.startDate && _startDate <= existingElection.endDate) ||\r\n                    (_endDate >= existingElection.startDate && _endDate <= existingElection.endDate))\r\n            ) {\r\n                return true;\r\n            }\r\n        }\r\n        return false;\r\n    }\r\n}\r\n",
  "sourcePath": "D:\\repos\\License\\voting-app\\src\\contracts\\VotingSystem.sol",
  "compiler": {
    "name": "solc",
    "version": "0.8.19+commit.7dd6d404.Emscripten.clang"
  },
  "schemaVersion": "3.4.13",
  "updatedAt": "2023-05-25T13:45:34.016Z",
  "networkType": "ethereum",
  "devdoc": {
    "kind": "dev",
    "methods": {},
    "version": 1
  },
  "userdoc": {
    "kind": "user",
    "methods": {},
    "version": 1
  }
}