{
  "contractName": "VotingSystem",
  "abi": [
    {
      "anonymous": false,
      "inputs": [
        {
          "indexed": false,
          "internalType": "uint256",
          "name": "candidateId",
          "type": "uint256"
        },
        {
          "indexed": false,
          "internalType": "string",
          "name": "fullName",
          "type": "string"
        },
        {
          "indexed": false,
          "internalType": "uint256",
          "name": "age",
          "type": "uint256"
        },
        {
          "indexed": false,
          "internalType": "string",
          "name": "description",
          "type": "string"
        },
        {
          "indexed": false,
          "internalType": "string",
          "name": "image",
          "type": "string"
        },
        {
          "indexed": false,
          "internalType": "uint256",
          "name": "electionId",
          "type": "uint256"
        }
      ],
      "name": "NewCandidate",
      "type": "event"
    },
    {
      "anonymous": false,
      "inputs": [
        {
          "indexed": false,
          "internalType": "string",
          "name": "name",
          "type": "string"
        },
        {
          "indexed": false,
          "internalType": "enum VotingSystem.ElectionType",
          "name": "electionType",
          "type": "uint8"
        },
        {
          "indexed": false,
          "internalType": "string",
          "name": "organizedBy",
          "type": "string"
        },
        {
          "indexed": false,
          "internalType": "uint256",
          "name": "startDate",
          "type": "uint256"
        },
        {
          "indexed": false,
          "internalType": "uint256",
          "name": "endDate",
          "type": "uint256"
        }
      ],
      "name": "NewElection",
      "type": "event"
    },
    {
      "inputs": [
        {
          "internalType": "uint256",
          "name": "",
          "type": "uint256"
        }
      ],
      "name": "candidateExists",
      "outputs": [
        {
          "internalType": "bool",
          "name": "",
          "type": "bool"
        }
      ],
      "stateMutability": "view",
      "type": "function",
      "constant": true
    },
    {
      "inputs": [
        {
          "internalType": "uint256",
          "name": "",
          "type": "uint256"
        }
      ],
      "name": "candidates",
      "outputs": [
        {
          "internalType": "uint256",
          "name": "id",
          "type": "uint256"
        },
        {
          "internalType": "string",
          "name": "fullName",
          "type": "string"
        },
        {
          "internalType": "uint256",
          "name": "age",
          "type": "uint256"
        },
        {
          "internalType": "string",
          "name": "description",
          "type": "string"
        },
        {
          "internalType": "string",
          "name": "image",
          "type": "string"
        },
        {
          "internalType": "uint256",
          "name": "electionId",
          "type": "uint256"
        }
      ],
      "stateMutability": "view",
      "type": "function",
      "constant": true
    },
    {
      "inputs": [
        {
          "internalType": "uint256",
          "name": "",
          "type": "uint256"
        }
      ],
      "name": "elections",
      "outputs": [
        {
          "internalType": "string",
          "name": "name",
          "type": "string"
        },
        {
          "internalType": "enum VotingSystem.ElectionType",
          "name": "electionType",
          "type": "uint8"
        },
        {
          "internalType": "string",
          "name": "organizedBy",
          "type": "string"
        },
        {
          "internalType": "uint256",
          "name": "startDate",
          "type": "uint256"
        },
        {
          "internalType": "uint256",
          "name": "endDate",
          "type": "uint256"
        }
      ],
      "stateMutability": "view",
      "type": "function",
      "constant": true
    },
    {
      "inputs": [
        {
          "internalType": "string",
          "name": "_name",
          "type": "string"
        },
        {
          "internalType": "enum VotingSystem.ElectionType",
          "name": "_electionType",
          "type": "uint8"
        },
        {
          "internalType": "string",
          "name": "_organizedBy",
          "type": "string"
        },
        {
          "internalType": "uint256",
          "name": "_startDate",
          "type": "uint256"
        },
        {
          "internalType": "uint256",
          "name": "_endDate",
          "type": "uint256"
        }
      ],
      "name": "addElection",
      "outputs": [],
      "stateMutability": "nonpayable",
      "type": "function"
    },
    {
      "inputs": [
        {
          "internalType": "string",
          "name": "_fullName",
          "type": "string"
        },
        {
          "internalType": "uint256",
          "name": "_age",
          "type": "uint256"
        },
        {
          "internalType": "string",
          "name": "_description",
          "type": "string"
        },
        {
          "internalType": "string",
          "name": "_image",
          "type": "string"
        },
        {
          "internalType": "uint256",
          "name": "_electionId",
          "type": "uint256"
        }
      ],
      "name": "addCandidate",
      "outputs": [],
      "stateMutability": "nonpayable",
      "type": "function"
    },
    {
      "inputs": [
        {
          "internalType": "uint256",
          "name": "_candidateId",
          "type": "uint256"
        }
      ],
      "name": "getCandidateDetails",
      "outputs": [
        {
          "internalType": "string",
          "name": "",
          "type": "string"
        },
        {
          "internalType": "uint256",
          "name": "",
          "type": "uint256"
        },
        {
          "internalType": "string",
          "name": "",
          "type": "string"
        },
        {
          "internalType": "string",
          "name": "",
          "type": "string"
        },
        {
          "internalType": "uint256",
          "name": "",
          "type": "uint256"
        }
      ],
      "stateMutability": "view",
      "type": "function",
      "constant": true
    },
    {
      "inputs": [
        {
          "internalType": "uint256",
          "name": "_electionId",
          "type": "uint256"
        }
      ],
      "name": "getElectionDetails",
      "outputs": [
        {
          "internalType": "string",
          "name": "",
          "type": "string"
        },
        {
          "internalType": "enum VotingSystem.ElectionType",
          "name": "",
          "type": "uint8"
        },
        {
          "internalType": "string",
          "name": "",
          "type": "string"
        },
        {
          "internalType": "uint256",
          "name": "",
          "type": "uint256"
        },
        {
          "internalType": "uint256",
          "name": "",
          "type": "uint256"
        }
      ],
      "stateMutability": "view",
      "type": "function",
      "constant": true
    },
    {
      "inputs": [],
      "name": "getElectionCount",
      "outputs": [
        {
          "internalType": "uint256",
          "name": "",
          "type": "uint256"
        }
      ],
      "stateMutability": "view",
      "type": "function",
      "constant": true
    },
    {
      "inputs": [],
      "name": "getCandidateCount",
      "outputs": [
        {
          "internalType": "uint256",
          "name": "",
          "type": "uint256"
        }
      ],
      "stateMutability": "view",
      "type": "function",
      "constant": true
    },
    {
      "inputs": [],
      "name": "electionEnded",
      "outputs": [
        {
          "internalType": "bool",
          "name": "",
          "type": "bool"
        }
      ],
      "stateMutability": "view",
      "type": "function",
      "constant": true
    },
    {
      "inputs": [],
      "name": "getActiveElections",
      "outputs": [
        {
          "components": [
            {
              "internalType": "string",
              "name": "name",
              "type": "string"
            },
            {
              "internalType": "enum VotingSystem.ElectionType",
              "name": "electionType",
              "type": "uint8"
            },
            {
              "internalType": "string",
              "name": "organizedBy",
              "type": "string"
            },
            {
              "internalType": "uint256",
              "name": "startDate",
              "type": "uint256"
            },
            {
              "internalType": "uint256",
              "name": "endDate",
              "type": "uint256"
            }
          ],
          "internalType": "struct VotingSystem.Election[]",
          "name": "",
          "type": "tuple[]"
        }
      ],
      "stateMutability": "view",
      "type": "function",
      "constant": true
    }
  ],
  "bytecode": "0x608060405234801561001057600080fd5b506122e5806100206000396000f3fe608060405234801561001057600080fd5b50600436106100a95760003560e01c80635e6fef01116100715780635e6fef011461018357806369b5b8fe146101b75780638a3b63b0146101d3578063a632f26f146101f1578063c94ca9e31461020d578063f60499241461022b576100a9565b8063213785a0146100ae57806327f9fd50146100cc57806330a56347146101005780633477ee2e1461011e5780634a3b887714610153575b600080fd5b6100b661025f565b6040516100c39190611341565b60405180910390f35b6100e660048036038101906100e1919061139c565b61026b565b6040516100f7959493929190611459565b60405180910390f35b610108610506565b6040516101159190611341565b60405180910390f35b6101386004803603810190610133919061139c565b610513565b60405161014a969594939291906114c1565b60405180910390f35b61016d6004803603810190610168919061139c565b6106f7565b60405161017a9190611552565b60405180910390f35b61019d6004803603810190610198919061139c565b610717565b6040516101ae9594939291906115e4565b60405180910390f35b6101d160048036038101906101cc919061177a565b61087a565b005b6101db610ac2565b6040516101e891906119f0565b60405180910390f35b61020b60048036038101906102069190611a37565b610e09565b005b610215610f70565b6040516102229190611552565b60405180910390f35b6102456004803603810190610240919061139c565b610fcb565b6040516102569594939291906115e4565b60405180910390f35b60008080549050905090565b6060600060608060006002600087815260200190815260200160002060009054906101000a900460ff166102d4576040517f08c379a00000000000000000000000000000000000000000000000000000000081526004016102cb90611b36565b60405180910390fd5b6000600187815481106102ea576102e9611b56565b5b90600052602060002090600602016040518060c00160405290816000820154815260200160018201805461031d90611bb4565b80601f016020809104026020016040519081016040528092919081815260200182805461034990611bb4565b80156103965780601f1061036b57610100808354040283529160200191610396565b820191906000526020600020905b81548152906001019060200180831161037957829003601f168201915b50505050508152602001600282015481526020016003820180546103b990611bb4565b80601f01602080910402602001604051908101604052809291908181526020018280546103e590611bb4565b80156104325780601f1061040757610100808354040283529160200191610432565b820191906000526020600020905b81548152906001019060200180831161041557829003601f168201915b5050505050815260200160048201805461044b90611bb4565b80601f016020809104026020016040519081016040528092919081815260200182805461047790611bb4565b80156104c45780601f10610499576101008083540402835291602001916104c4565b820191906000526020600020905b8154815290600101906020018083116104a757829003601f168201915b50505050508152602001600582015481525050905080602001518160400151826060015183608001518460a00151955095509550955095505091939590929450565b6000600180549050905090565b6001818154811061052357600080fd5b906000526020600020906006020160009150905080600001549080600101805461054c90611bb4565b80601f016020809104026020016040519081016040528092919081815260200182805461057890611bb4565b80156105c55780601f1061059a576101008083540402835291602001916105c5565b820191906000526020600020905b8154815290600101906020018083116105a857829003601f168201915b5050505050908060020154908060030180546105e090611bb4565b80601f016020809104026020016040519081016040528092919081815260200182805461060c90611bb4565b80156106595780601f1061062e57610100808354040283529160200191610659565b820191906000526020600020905b81548152906001019060200180831161063c57829003601f168201915b50505050509080600401805461066e90611bb4565b80601f016020809104026020016040519081016040528092919081815260200182805461069a90611bb4565b80156106e75780601f106106bc576101008083540402835291602001916106e7565b820191906000526020600020905b8154815290600101906020018083116106ca57829003601f168201915b5050505050908060050154905086565b60026020528060005260406000206000915054906101000a900460ff1681565b6000818154811061072757600080fd5b906000526020600020906005020160009150905080600001805461074a90611bb4565b80601f016020809104026020016040519081016040528092919081815260200182805461077690611bb4565b80156107c35780601f10610798576101008083540402835291602001916107c3565b820191906000526020600020905b8154815290600101906020018083116107a657829003601f168201915b5050505050908060010160009054906101000a900460ff16908060020180546107eb90611bb4565b80601f016020809104026020016040519081016040528092919081815260200182805461081790611bb4565b80156108645780601f1061083957610100808354040283529160200191610864565b820191906000526020600020905b81548152906001019060200180831161084757829003601f168201915b5050505050908060030154908060040154905085565b60008080549050116108c1576040517f08c379a00000000000000000000000000000000000000000000000000000000081526004016108b890611c57565b60405180910390fd5b6108c9610f70565b15610909576040517f08c379a000000000000000000000000000000000000000000000000000000000815260040161090090611ce9565b60405180910390fd5b60026000600180549050815260200190815260200160002060009054906101000a900460ff161561096f576040517f08c379a000000000000000000000000000000000000000000000000000000000815260040161096690611d55565b60405180910390fd5b60016040518060c0016040528060018054905081526020018781526020018681526020018581526020018481526020018381525090806001815401808255809150506001900390600052602060002090600602016000909190919091506000820151816000015560208201518160010190816109eb9190611f21565b50604082015181600201556060820151816003019081610a0b9190611f21565b506080820151816004019081610a219190611f21565b5060a08201518160050155505060016002600060018080549050610a459190612022565b815260200190815260200160002060006101000a81548160ff0219169083151502179055507f28ed2caf3cc55f9932b59fd5384dc3756cc2d9331c68878e6ff198f93089ee5c60018080549050610a9c9190612022565b8686868686604051610ab3969594939291906114c1565b60405180910390a15050505050565b60606000805b600080549050811015610b565760008181548110610ae957610ae8611b56565b5b9060005260206000209060050201600301544210158015610b2f575060008181548110610b1957610b18611b56565b5b9060005260206000209060050201600401544211155b15610b43578180610b3f90612056565b9250505b8080610b4e90612056565b915050610ac8565b5060008167ffffffffffffffff811115610b7357610b7261164f565b5b604051908082528060200260200182016040528015610bac57816020015b610b996112e7565b815260200190600190039081610b915790505b5090506000805b600080549050811015610dff5760008181548110610bd457610bd3611b56565b5b9060005260206000209060050201600301544210158015610c1a575060008181548110610c0457610c03611b56565b5b9060005260206000209060050201600401544211155b15610dec5760008181548110610c3357610c32611b56565b5b90600052602060002090600502016040518060a0016040529081600082018054610c5c90611bb4565b80601f0160208091040260200160405190810160405280929190818152602001828054610c8890611bb4565b8015610cd55780601f10610caa57610100808354040283529160200191610cd5565b820191906000526020600020905b815481529060010190602001808311610cb857829003601f168201915b505050505081526020016001820160009054906101000a900460ff166002811115610d0357610d0261156d565b5b6002811115610d1557610d1461156d565b5b8152602001600282018054610d2990611bb4565b80601f0160208091040260200160405190810160405280929190818152602001828054610d5590611bb4565b8015610da25780601f10610d7757610100808354040283529160200191610da2565b820191906000526020600020905b815481529060010190602001808311610d8557829003601f168201915b5050505050815260200160038201548152602001600482015481525050838381518110610dd257610dd1611b56565b5b60200260200101819052508180610de890612056565b9250505b8080610df790612056565b915050610bb3565b5081935050505090565b610e148583836111eb565b15610e54576040517f08c379a0000000000000000000000000000000000000000000000000000000008152600401610e4b90612136565b60405180910390fd5b60006040518060a00160405280878152602001866002811115610e7a57610e7961156d565b5b81526020018581526020018481526020018381525090806001815401808255809150506001900390600052602060002090600502016000909190919091506000820151816000019081610ecd9190611f21565b5060208201518160010160006101000a81548160ff02191690836002811115610ef957610ef861156d565b5b02179055506040820151816002019081610f139190611f21565b50606082015181600301556080820151816004015550507f436cbed5d8c2731f98106d37171c19de4920035161753be55e8e2e342af2749c8585858585604051610f619594939291906115e4565b60405180910390a15050505050565b60008060008054905003610f875760009050610fc8565b6000806001600080549050610f9c9190612022565b81548110610fad57610fac611b56565b5b90600052602060002090600502019050806004015442119150505b90565b606060006060600080600080549050861061101b576040517f08c379a0000000000000000000000000000000000000000000000000000000008152600401611012906121a2565b60405180910390fd5b60008087815481106110305761102f611b56565b5b90600052602060002090600502016040518060a001604052908160008201805461105990611bb4565b80601f016020809104026020016040519081016040528092919081815260200182805461108590611bb4565b80156110d25780601f106110a7576101008083540402835291602001916110d2565b820191906000526020600020905b8154815290600101906020018083116110b557829003601f168201915b505050505081526020016001820160009054906101000a900460ff166002811115611100576110ff61156d565b5b60028111156111125761111161156d565b5b815260200160028201805461112690611bb4565b80601f016020809104026020016040519081016040528092919081815260200182805461115290611bb4565b801561119f5780601f106111745761010080835404028352916020019161119f565b820191906000526020600020905b81548152906001019060200180831161118257829003601f168201915b5050505050815260200160038201548152602001600482015481525050905080600001518160200151826040015183606001518460800151955095509550955095505091939590929450565b600080600090505b6000805490508110156112da57600080828154811061121557611214611b56565b5b906000526020600020906005020190508560405160200161123691906121fe565b60405160208183030381529060405280519060200120816000016040516020016112609190612298565b604051602081830303815290604052805190602001201480156112b6575080600301548510158015611296575080600401548511155b806112b55750806003015484101580156112b4575080600401548411155b5b5b156112c6576001925050506112e0565b5080806112d290612056565b9150506111f3565b50600090505b9392505050565b6040518060a00160405280606081526020016000600281111561130d5761130c61156d565b5b81526020016060815260200160008152602001600081525090565b6000819050919050565b61133b81611328565b82525050565b60006020820190506113566000830184611332565b92915050565b6000604051905090565b600080fd5b600080fd5b61137981611328565b811461138457600080fd5b50565b60008135905061139681611370565b92915050565b6000602082840312156113b2576113b1611366565b5b60006113c084828501611387565b91505092915050565b600081519050919050565b600082825260208201905092915050565b60005b838110156114035780820151818401526020810190506113e8565b60008484015250505050565b6000601f19601f8301169050919050565b600061142b826113c9565b61143581856113d4565b93506114458185602086016113e5565b61144e8161140f565b840191505092915050565b600060a08201905081810360008301526114738188611420565b90506114826020830187611332565b81810360408301526114948186611420565b905081810360608301526114a88185611420565b90506114b76080830184611332565b9695505050505050565b600060c0820190506114d66000830189611332565b81810360208301526114e88188611420565b90506114f76040830187611332565b81810360608301526115098186611420565b9050818103608083015261151d8185611420565b905061152c60a0830184611332565b979650505050505050565b60008115159050919050565b61154c81611537565b82525050565b60006020820190506115676000830184611543565b92915050565b7f4e487b7100000000000000000000000000000000000000000000000000000000600052602160045260246000fd5b600381106115ad576115ac61156d565b5b50565b60008190506115be8261159c565b919050565b60006115ce826115b0565b9050919050565b6115de816115c3565b82525050565b600060a08201905081810360008301526115fe8188611420565b905061160d60208301876115d5565b818103604083015261161f8186611420565b905061162e6060830185611332565b61163b6080830184611332565b9695505050505050565b600080fd5b600080fd5b7f4e487b7100000000000000000000000000000000000000000000000000000000600052604160045260246000fd5b6116878261140f565b810181811067ffffffffffffffff821117156116a6576116a561164f565b5b80604052505050565b60006116b961135c565b90506116c5828261167e565b919050565b600067ffffffffffffffff8211156116e5576116e461164f565b5b6116ee8261140f565b9050602081019050919050565b82818337600083830152505050565b600061171d611718846116ca565b6116af565b9050828152602081018484840111156117395761173861164a565b5b6117448482856116fb565b509392505050565b600082601f83011261176157611760611645565b5b813561177184826020860161170a565b91505092915050565b600080600080600060a0868803121561179657611795611366565b5b600086013567ffffffffffffffff8111156117b4576117b361136b565b5b6117c08882890161174c565b95505060206117d188828901611387565b945050604086013567ffffffffffffffff8111156117f2576117f161136b565b5b6117fe8882890161174c565b935050606086013567ffffffffffffffff81111561181f5761181e61136b565b5b61182b8882890161174c565b925050608061183c88828901611387565b9150509295509295909350565b600081519050919050565b600082825260208201905092915050565b6000819050602082019050919050565b600082825260208201905092915050565b6000611891826113c9565b61189b8185611875565b93506118ab8185602086016113e5565b6118b48161140f565b840191505092915050565b6118c8816115c3565b82525050565b6118d781611328565b82525050565b600060a08301600083015184820360008601526118fa8282611886565b915050602083015161190f60208601826118bf565b50604083015184820360408601526119278282611886565b915050606083015161193c60608601826118ce565b50608083015161194f60808601826118ce565b508091505092915050565b600061196683836118dd565b905092915050565b6000602082019050919050565b600061198682611849565b6119908185611854565b9350836020820285016119a285611865565b8060005b858110156119de57848403895281516119bf858261195a565b94506119ca8361196e565b925060208a019950506001810190506119a6565b50829750879550505050505092915050565b60006020820190508181036000830152611a0a818461197b565b905092915050565b60038110611a1f57600080fd5b50565b600081359050611a3181611a12565b92915050565b600080600080600060a08688031215611a5357611a52611366565b5b600086013567ffffffffffffffff811115611a7157611a7061136b565b5b611a7d8882890161174c565b9550506020611a8e88828901611a22565b945050604086013567ffffffffffffffff811115611aaf57611aae61136b565b5b611abb8882890161174c565b9350506060611acc88828901611387565b9250506080611add88828901611387565b9150509295509295909350565b7f43616e64696461746520646f6573206e6f742065786973742e00000000000000600082015250565b6000611b206019836113d4565b9150611b2b82611aea565b602082019050919050565b60006020820190508181036000830152611b4f81611b13565b9050919050565b7f4e487b7100000000000000000000000000000000000000000000000000000000600052603260045260246000fd5b7f4e487b7100000000000000000000000000000000000000000000000000000000600052602260045260246000fd5b60006002820490506001821680611bcc57607f821691505b602082108103611bdf57611bde611b85565b5b50919050565b7f4e6f20656c656374696f6e7320617661696c61626c652e20506c65617365206360008201527f726561746520616e20656c656374696f6e2066697273742e0000000000000000602082015250565b6000611c416038836113d4565b9150611c4c82611be5565b604082019050919050565b60006020820190508181036000830152611c7081611c34565b9050919050565b7f456c656374696f6e2068617320656e6465642e204e6f206d6f72652063616e6460008201527f6964617465732063616e2062652061646465642e000000000000000000000000602082015250565b6000611cd36034836113d4565b9150611cde82611c77565b604082019050919050565b60006020820190508181036000830152611d0281611cc6565b9050919050565b7f43616e64696461746520616c7265616479206578697374732e00000000000000600082015250565b6000611d3f6019836113d4565b9150611d4a82611d09565b602082019050919050565b60006020820190508181036000830152611d6e81611d32565b9050919050565b60008190508160005260206000209050919050565b60006020601f8301049050919050565b600082821b905092915050565b600060088302611dd77fffffffffffffffffffffffffffffffffffffffffffffffffffffffffffffffff82611d9a565b611de18683611d9a565b95508019841693508086168417925050509392505050565b6000819050919050565b6000611e1e611e19611e1484611328565b611df9565b611328565b9050919050565b6000819050919050565b611e3883611e03565b611e4c611e4482611e25565b848454611da7565b825550505050565b600090565b611e61611e54565b611e6c818484611e2f565b505050565b5b81811015611e9057611e85600082611e59565b600181019050611e72565b5050565b601f821115611ed557611ea681611d75565b611eaf84611d8a565b81016020851015611ebe578190505b611ed2611eca85611d8a565b830182611e71565b50505b505050565b600082821c905092915050565b6000611ef860001984600802611eda565b1980831691505092915050565b6000611f118383611ee7565b9150826002028217905092915050565b611f2a826113c9565b67ffffffffffffffff811115611f4357611f4261164f565b5b611f4d8254611bb4565b611f58828285611e94565b600060209050601f831160018114611f8b5760008415611f79578287015190505b611f838582611f05565b865550611feb565b601f198416611f9986611d75565b60005b82811015611fc157848901518255600182019150602085019450602081019050611f9c565b86831015611fde5784890151611fda601f891682611ee7565b8355505b6001600288020188555050505b505050505050565b7f4e487b7100000000000000000000000000000000000000000000000000000000600052601160045260246000fd5b600061202d82611328565b915061203883611328565b92508282039050818111156120505761204f611ff3565b5b92915050565b600061206182611328565b91507fffffffffffffffffffffffffffffffffffffffffffffffffffffffffffffffff820361209357612092611ff3565b5b600182019050919050565b7f456c656374696f6e2077697468207468652073616d65206e616d65206f72206f60008201527f7665726c617070696e672074696d6520706572696f6420616c7265616479206560208201527f78697374732e0000000000000000000000000000000000000000000000000000604082015250565b60006121206046836113d4565b915061212b8261209e565b606082019050919050565b6000602082019050818103600083015261214f81612113565b9050919050565b7f456c656374696f6e20646f6573206e6f742065786973742e0000000000000000600082015250565b600061218c6018836113d4565b915061219782612156565b602082019050919050565b600060208201905081810360008301526121bb8161217f565b9050919050565b600081905092915050565b60006121d8826113c9565b6121e281856121c2565b93506121f28185602086016113e5565b80840191505092915050565b600061220a82846121cd565b915081905092915050565b6000815461222281611bb4565b61222c81866121c2565b94506001821660008114612247576001811461225c5761228f565b60ff198316865281151582028601935061228f565b61226585611d75565b60005b8381101561228757815481890152600182019150602081019050612268565b838801955050505b50505092915050565b60006122a48284612215565b91508190509291505056fea26469706673582212209161b3198b0ee539e23ebcc9bd251a9cb7438b7d782701ee9197c97cb13e050264736f6c63430008130033",
  "immutableReferences": {},
  "source": "// SPDX-License-Identifier: MIT\r\npragma solidity ^0.8.0;\r\n\r\ncontract VotingSystem {\r\n\r\n    enum ElectionType { Political, Corporation, Academics }\r\n    \r\n    struct Candidate {\r\n        uint id;\r\n        string fullName;\r\n        uint age;\r\n        string description;\r\n        string image;\r\n        uint electionId;\r\n    }\r\n\r\n    struct Election {\r\n        string name;\r\n        ElectionType electionType;\r\n        string organizedBy;\r\n        uint startDate;\r\n        uint endDate;\r\n    }\r\n\r\n    Election[] public elections;\r\n    Candidate[] public candidates;\r\n    mapping(uint => bool) public candidateExists;\r\n\r\n    event NewElection(\r\n        string name,\r\n        ElectionType electionType,\r\n        string organizedBy,\r\n        uint startDate,\r\n        uint endDate\r\n    );\r\n    event NewCandidate(\r\n        uint candidateId,\r\n        string fullName,\r\n        uint age,\r\n        string description,\r\n        string image,\r\n        uint electionId\r\n    );\r\n\r\n    function addElection(\r\n        string memory _name,\r\n        ElectionType _electionType,\r\n        string memory _organizedBy,\r\n        uint _startDate,\r\n        uint _endDate\r\n    ) public {\r\n        require(\r\n            !electionExists(_name, _startDate, _endDate),\r\n            \"Election with the same name or overlapping time period already exists.\"\r\n        );\r\n\r\n        elections.push(\r\n            Election(_name, _electionType, _organizedBy, _startDate, _endDate)\r\n        );\r\n\r\n        emit NewElection(_name, _electionType, _organizedBy, _startDate, _endDate);\r\n    }\r\n\r\n    function addCandidate(\r\n        string memory _fullName,\r\n        uint _age,\r\n        string memory _description,\r\n        string memory _image,\r\n        uint _electionId\r\n    ) public {\r\n        require(\r\n            elections.length > 0, \r\n            \"No elections available. Please create an election first.\");\r\n       \r\n        require(\r\n            !electionEnded(), \r\n            \"Election has ended. No more candidates can be added.\");\r\n        \r\n        require(\r\n            !candidateExists[candidates.length],\r\n            \"Candidate already exists.\"\r\n        );\r\n\r\n        candidates.push(\r\n            Candidate(\r\n                candidates.length,\r\n                _fullName,\r\n                _age,\r\n                _description,\r\n                _image,\r\n                _electionId\r\n            )\r\n        );\r\n        candidateExists[candidates.length - 1] = true;\r\n\r\n        emit NewCandidate(\r\n            candidates.length - 1,\r\n            _fullName,\r\n            _age,\r\n            _description,\r\n            _image,\r\n            _electionId\r\n        );\r\n    }\r\n\r\n    function getCandidateDetails(uint _candidateId)\r\n        public\r\n        view\r\n        returns (\r\n            string memory,\r\n            uint,\r\n            string memory,\r\n            string memory,\r\n            uint\r\n        )\r\n    {\r\n        require(candidateExists[_candidateId], \"Candidate does not exist.\");\r\n        Candidate memory candidate = candidates[_candidateId];\r\n        return (\r\n            candidate.fullName,\r\n            candidate.age,\r\n            candidate.description,\r\n            candidate.image,\r\n            candidate.electionId\r\n        );\r\n    }\r\n\r\n    function getElectionDetails(uint _electionId)\r\n        public\r\n        view\r\n        returns (\r\n            string memory,\r\n            ElectionType,\r\n            string memory,\r\n            uint,\r\n            uint\r\n        )\r\n    {\r\n        require(_electionId < elections.length, \"Election does not exist.\");\r\n        Election memory election = elections[_electionId];\r\n        return (\r\n            election.name,\r\n            election.electionType,\r\n            election.organizedBy,\r\n            election.startDate,\r\n            election.endDate\r\n        );\r\n    }\r\n\r\n    function getElectionCount() public view returns (uint) {\r\n        return elections.length;\r\n    }\r\n\r\n    function getCandidateCount() public view returns (uint) {\r\n        return candidates.length;\r\n    }\r\n\r\n    function electionEnded() public view returns (bool) {\r\n        if (elections.length == 0) {\r\n            return false;\r\n        }\r\n        Election storage currentElection = elections[elections.length - 1];\r\n        return block.timestamp > currentElection.endDate;\r\n    }\r\n\r\n    function getActiveElections() public view returns (Election[] memory) {\r\n        uint activeElectionCount = 0;\r\n        for (uint i = 0; i < elections.length; i++) {\r\n            if (block.timestamp >= elections[i].startDate && block.timestamp <= elections[i].endDate) {\r\n                activeElectionCount++;\r\n            }\r\n        }\r\n        Election[] memory activeElections = new Election[](activeElectionCount);\r\n        uint currentIndex = 0;\r\n        for (uint i = 0; i < elections.length; i++) {\r\n            if (block.timestamp >= elections[i].startDate && block.timestamp <= elections[i].endDate) {\r\n                activeElections[currentIndex] = elections[i];\r\n                currentIndex++;\r\n            }\r\n        }\r\n        return activeElections;\r\n    }\r\n\r\n    function electionExists(\r\n        string memory _name,\r\n        uint _startDate,\r\n        uint _endDate\r\n    ) internal view returns (bool) {\r\n        for (uint i = 0; i < elections.length; i++) {\r\n            Election storage existingElection = elections[i];\r\n            if (\r\n                keccak256(abi.encodePacked(existingElection.name)) == keccak256(abi.encodePacked(_name)) &&\r\n                ((_startDate >= existingElection.startDate && _startDate <= existingElection.endDate) ||\r\n                    (_endDate >= existingElection.startDate && _endDate <= existingElection.endDate))\r\n            ) {\r\n                return true;\r\n            }\r\n        }\r\n        return false;\r\n    }\r\n}\r\n",
  "sourcePath": "D:\\repos\\License\\voting-app\\src\\contracts\\VotingSystem.sol",
  "compiler": {
    "name": "solc",
    "version": "0.8.19+commit.7dd6d404.Emscripten.clang"
  },
  "schemaVersion": "3.4.13",
  "updatedAt": "2023-05-23T16:28:09.230Z",
  "networkType": "ethereum",
  "devdoc": {
    "kind": "dev",
    "methods": {},
    "version": 1
  },
  "userdoc": {
    "kind": "user",
    "methods": {},
    "version": 1
  }
}