{
  "contractName": "VotingSystem",
  "abi": [
    {
      "anonymous": false,
      "inputs": [
        {
          "indexed": false,
          "internalType": "uint256",
          "name": "candidateId",
          "type": "uint256"
        },
        {
          "indexed": false,
          "internalType": "string",
          "name": "fullName",
          "type": "string"
        },
        {
          "indexed": false,
          "internalType": "uint256",
          "name": "age",
          "type": "uint256"
        },
        {
          "indexed": false,
          "internalType": "string",
          "name": "description",
          "type": "string"
        },
        {
          "indexed": false,
          "internalType": "string",
          "name": "image",
          "type": "string"
        }
      ],
      "name": "NewCandidate",
      "type": "event"
    },
    {
      "anonymous": false,
      "inputs": [
        {
          "indexed": false,
          "internalType": "string",
          "name": "name",
          "type": "string"
        },
        {
          "indexed": false,
          "internalType": "enum VotingSystem.ElectionType",
          "name": "electionType",
          "type": "uint8"
        },
        {
          "indexed": false,
          "internalType": "string",
          "name": "organizedBy",
          "type": "string"
        },
        {
          "indexed": false,
          "internalType": "uint256",
          "name": "startDate",
          "type": "uint256"
        },
        {
          "indexed": false,
          "internalType": "uint256",
          "name": "endDate",
          "type": "uint256"
        }
      ],
      "name": "NewElection",
      "type": "event"
    },
    {
      "inputs": [
        {
          "internalType": "uint256",
          "name": "",
          "type": "uint256"
        }
      ],
      "name": "candidateExists",
      "outputs": [
        {
          "internalType": "bool",
          "name": "",
          "type": "bool"
        }
      ],
      "stateMutability": "view",
      "type": "function",
      "constant": true
    },
    {
      "inputs": [
        {
          "internalType": "uint256",
          "name": "",
          "type": "uint256"
        }
      ],
      "name": "candidates",
      "outputs": [
        {
          "internalType": "uint256",
          "name": "id",
          "type": "uint256"
        },
        {
          "internalType": "string",
          "name": "fullName",
          "type": "string"
        },
        {
          "internalType": "uint256",
          "name": "age",
          "type": "uint256"
        },
        {
          "internalType": "string",
          "name": "description",
          "type": "string"
        },
        {
          "internalType": "string",
          "name": "image",
          "type": "string"
        }
      ],
      "stateMutability": "view",
      "type": "function",
      "constant": true
    },
    {
      "inputs": [
        {
          "internalType": "uint256",
          "name": "",
          "type": "uint256"
        }
      ],
      "name": "elections",
      "outputs": [
        {
          "internalType": "string",
          "name": "name",
          "type": "string"
        },
        {
          "internalType": "enum VotingSystem.ElectionType",
          "name": "electionType",
          "type": "uint8"
        },
        {
          "internalType": "string",
          "name": "organizedBy",
          "type": "string"
        },
        {
          "internalType": "uint256",
          "name": "startDate",
          "type": "uint256"
        },
        {
          "internalType": "uint256",
          "name": "endDate",
          "type": "uint256"
        }
      ],
      "stateMutability": "view",
      "type": "function",
      "constant": true
    },
    {
      "inputs": [
        {
          "internalType": "string",
          "name": "_name",
          "type": "string"
        },
        {
          "internalType": "enum VotingSystem.ElectionType",
          "name": "_electionType",
          "type": "uint8"
        },
        {
          "internalType": "string",
          "name": "_organizedBy",
          "type": "string"
        },
        {
          "internalType": "uint256",
          "name": "_startDate",
          "type": "uint256"
        },
        {
          "internalType": "uint256",
          "name": "_endDate",
          "type": "uint256"
        }
      ],
      "name": "addElection",
      "outputs": [],
      "stateMutability": "nonpayable",
      "type": "function"
    },
    {
      "inputs": [
        {
          "internalType": "string",
          "name": "_fullName",
          "type": "string"
        },
        {
          "internalType": "uint256",
          "name": "_age",
          "type": "uint256"
        },
        {
          "internalType": "string",
          "name": "_description",
          "type": "string"
        },
        {
          "internalType": "string",
          "name": "_image",
          "type": "string"
        }
      ],
      "name": "addCandidate",
      "outputs": [],
      "stateMutability": "nonpayable",
      "type": "function"
    },
    {
      "inputs": [
        {
          "internalType": "uint256",
          "name": "_candidateId",
          "type": "uint256"
        }
      ],
      "name": "getCandidateDetails",
      "outputs": [
        {
          "internalType": "string",
          "name": "",
          "type": "string"
        },
        {
          "internalType": "uint256",
          "name": "",
          "type": "uint256"
        },
        {
          "internalType": "string",
          "name": "",
          "type": "string"
        },
        {
          "internalType": "string",
          "name": "",
          "type": "string"
        }
      ],
      "stateMutability": "view",
      "type": "function",
      "constant": true
    },
    {
      "inputs": [
        {
          "internalType": "uint256",
          "name": "_electionId",
          "type": "uint256"
        }
      ],
      "name": "getElectionDetails",
      "outputs": [
        {
          "internalType": "string",
          "name": "",
          "type": "string"
        },
        {
          "internalType": "enum VotingSystem.ElectionType",
          "name": "",
          "type": "uint8"
        },
        {
          "internalType": "string",
          "name": "",
          "type": "string"
        },
        {
          "internalType": "uint256",
          "name": "",
          "type": "uint256"
        },
        {
          "internalType": "uint256",
          "name": "",
          "type": "uint256"
        }
      ],
      "stateMutability": "view",
      "type": "function",
      "constant": true
    },
    {
      "inputs": [],
      "name": "getElectionCount",
      "outputs": [
        {
          "internalType": "uint256",
          "name": "",
          "type": "uint256"
        }
      ],
      "stateMutability": "view",
      "type": "function",
      "constant": true
    },
    {
      "inputs": [],
      "name": "electionEnded",
      "outputs": [
        {
          "internalType": "bool",
          "name": "",
          "type": "bool"
        }
      ],
      "stateMutability": "view",
      "type": "function",
      "constant": true
    }
  ],
  "bytecode": "0x608060405234801561001057600080fd5b50611cd5806100206000396000f3fe608060405234801561001057600080fd5b50600436106100935760003560e01c80634a3b8877116100665780634a3b8877146101395780635e6fef0114610169578063a632f26f1461019d578063c94ca9e3146101b9578063f6049924146101d757610093565b80631c1d3baf14610098578063213785a0146100b457806327f9fd50146100d25780633477ee2e14610105575b600080fd5b6100b260048036038101906100ad91906110a1565b61020b565b005b6100bc610440565b6040516100c9919061116b565b60405180910390f35b6100ec60048036038101906100e79190611186565b61044c565b6040516100fc9493929190611232565b60405180910390f35b61011f600480360381019061011a9190611186565b6106d2565b60405161013095949392919061128c565b60405180910390f35b610153600480360381019061014e9190611186565b6108b0565b604051610160919061130f565b60405180910390f35b610183600480360381019061017e9190611186565b6108d0565b6040516101949594939291906113a1565b60405180910390f35b6101b760048036038101906101b29190611427565b610a33565b005b6101c1610b9a565b6040516101ce919061130f565b60405180910390f35b6101f160048036038101906101ec9190611186565b610bf5565b6040516102029594939291906113a1565b60405180910390f35b6000808054905011610252576040517f08c379a00000000000000000000000000000000000000000000000000000000081526004016102499061154c565b60405180910390fd5b61025a610b9a565b1561029a576040517f08c379a0000000000000000000000000000000000000000000000000000000008152600401610291906115de565b60405180910390fd5b60026000600180549050815260200190815260200160002060009054906101000a900460ff1615610300576040517f08c379a00000000000000000000000000000000000000000000000000000000081526004016102f79061164a565b60405180910390fd5b60016040518060a0016040528060018054905081526020018681526020018581526020018481526020018381525090806001815401808255809150506001900390600052602060002090600502016000909190919091506000820151816000015560208201518160010190816103769190611876565b506040820151816002015560608201518160030190816103969190611876565b5060808201518160040190816103ac9190611876565b505050600160026000600180805490506103c69190611977565b815260200190815260200160002060006101000a81548160ff0219169083151502179055507fa3e251e06421d3ca36b55f39908f4ef84f4ce9c6064524de74976680685c78f76001808054905061041d9190611977565b8585858560405161043295949392919061128c565b60405180910390a150505050565b60008080549050905090565b606060006060806002600086815260200190815260200160002060009054906101000a900460ff166104b3576040517f08c379a00000000000000000000000000000000000000000000000000000000081526004016104aa906119f7565b60405180910390fd5b6000600186815481106104c9576104c8611a17565b5b90600052602060002090600502016040518060a0016040529081600082015481526020016001820180546104fc90611699565b80601f016020809104026020016040519081016040528092919081815260200182805461052890611699565b80156105755780601f1061054a57610100808354040283529160200191610575565b820191906000526020600020905b81548152906001019060200180831161055857829003601f168201915b505050505081526020016002820154815260200160038201805461059890611699565b80601f01602080910402602001604051908101604052809291908181526020018280546105c490611699565b80156106115780601f106105e657610100808354040283529160200191610611565b820191906000526020600020905b8154815290600101906020018083116105f457829003601f168201915b5050505050815260200160048201805461062a90611699565b80601f016020809104026020016040519081016040528092919081815260200182805461065690611699565b80156106a35780601f10610678576101008083540402835291602001916106a3565b820191906000526020600020905b81548152906001019060200180831161068657829003601f168201915b505050505081525050905080602001518160400151826060015183608001519450945094509450509193509193565b600181815481106106e257600080fd5b906000526020600020906005020160009150905080600001549080600101805461070b90611699565b80601f016020809104026020016040519081016040528092919081815260200182805461073790611699565b80156107845780601f1061075957610100808354040283529160200191610784565b820191906000526020600020905b81548152906001019060200180831161076757829003601f168201915b50505050509080600201549080600301805461079f90611699565b80601f01602080910402602001604051908101604052809291908181526020018280546107cb90611699565b80156108185780601f106107ed57610100808354040283529160200191610818565b820191906000526020600020905b8154815290600101906020018083116107fb57829003601f168201915b50505050509080600401805461082d90611699565b80601f016020809104026020016040519081016040528092919081815260200182805461085990611699565b80156108a65780601f1061087b576101008083540402835291602001916108a6565b820191906000526020600020905b81548152906001019060200180831161088957829003601f168201915b5050505050905085565b60026020528060005260406000206000915054906101000a900460ff1681565b600081815481106108e057600080fd5b906000526020600020906005020160009150905080600001805461090390611699565b80601f016020809104026020016040519081016040528092919081815260200182805461092f90611699565b801561097c5780601f106109515761010080835404028352916020019161097c565b820191906000526020600020905b81548152906001019060200180831161095f57829003601f168201915b5050505050908060010160009054906101000a900460ff16908060020180546109a490611699565b80601f01602080910402602001604051908101604052809291908181526020018280546109d090611699565b8015610a1d5780601f106109f257610100808354040283529160200191610a1d565b820191906000526020600020905b815481529060010190602001808311610a0057829003601f168201915b5050505050908060030154908060040154905085565b610a3e858383610e15565b15610a7e576040517f08c379a0000000000000000000000000000000000000000000000000000000008152600401610a7590611ade565b60405180910390fd5b60006040518060a00160405280878152602001866002811115610aa457610aa361132a565b5b81526020018581526020018481526020018381525090806001815401808255809150506001900390600052602060002090600502016000909190919091506000820151816000019081610af79190611876565b5060208201518160010160006101000a81548160ff02191690836002811115610b2357610b2261132a565b5b02179055506040820151816002019081610b3d9190611876565b50606082015181600301556080820151816004015550507f436cbed5d8c2731f98106d37171c19de4920035161753be55e8e2e342af2749c8585858585604051610b8b9594939291906113a1565b60405180910390a15050505050565b60008060008054905003610bb15760009050610bf2565b6000806001600080549050610bc69190611977565b81548110610bd757610bd6611a17565b5b90600052602060002090600502019050806004015442119150505b90565b6060600060606000806000805490508610610c45576040517f08c379a0000000000000000000000000000000000000000000000000000000008152600401610c3c90611b4a565b60405180910390fd5b6000808781548110610c5a57610c59611a17565b5b90600052602060002090600502016040518060a0016040529081600082018054610c8390611699565b80601f0160208091040260200160405190810160405280929190818152602001828054610caf90611699565b8015610cfc5780601f10610cd157610100808354040283529160200191610cfc565b820191906000526020600020905b815481529060010190602001808311610cdf57829003601f168201915b505050505081526020016001820160009054906101000a900460ff166002811115610d2a57610d2961132a565b5b6002811115610d3c57610d3b61132a565b5b8152602001600282018054610d5090611699565b80601f0160208091040260200160405190810160405280929190818152602001828054610d7c90611699565b8015610dc95780601f10610d9e57610100808354040283529160200191610dc9565b820191906000526020600020905b815481529060010190602001808311610dac57829003601f168201915b5050505050815260200160038201548152602001600482015481525050905080600001518160200151826040015183606001518460800151955095509550955095505091939590929450565b600080600090505b600080549050811015610f04576000808281548110610e3f57610e3e611a17565b5b9060005260206000209060050201905085604051602001610e609190611ba6565b6040516020818303038152906040528051906020012081600001604051602001610e8a9190611c40565b60405160208183030381529060405280519060200120148015610ee0575080600301548510158015610ec0575080600401548511155b80610edf575080600301548410158015610ede575080600401548411155b5b5b15610ef057600192505050610f0a565b508080610efc90611c57565b915050610e1d565b50600090505b9392505050565b6000604051905090565b600080fd5b600080fd5b600080fd5b600080fd5b6000601f19601f8301169050919050565b7f4e487b7100000000000000000000000000000000000000000000000000000000600052604160045260246000fd5b610f7882610f2f565b810181811067ffffffffffffffff82111715610f9757610f96610f40565b5b80604052505050565b6000610faa610f11565b9050610fb68282610f6f565b919050565b600067ffffffffffffffff821115610fd657610fd5610f40565b5b610fdf82610f2f565b9050602081019050919050565b82818337600083830152505050565b600061100e61100984610fbb565b610fa0565b90508281526020810184848401111561102a57611029610f2a565b5b611035848285610fec565b509392505050565b600082601f83011261105257611051610f25565b5b8135611062848260208601610ffb565b91505092915050565b6000819050919050565b61107e8161106b565b811461108957600080fd5b50565b60008135905061109b81611075565b92915050565b600080600080608085870312156110bb576110ba610f1b565b5b600085013567ffffffffffffffff8111156110d9576110d8610f20565b5b6110e58782880161103d565b94505060206110f68782880161108c565b935050604085013567ffffffffffffffff81111561111757611116610f20565b5b6111238782880161103d565b925050606085013567ffffffffffffffff81111561114457611143610f20565b5b6111508782880161103d565b91505092959194509250565b6111658161106b565b82525050565b6000602082019050611180600083018461115c565b92915050565b60006020828403121561119c5761119b610f1b565b5b60006111aa8482850161108c565b91505092915050565b600081519050919050565b600082825260208201905092915050565b60005b838110156111ed5780820151818401526020810190506111d2565b60008484015250505050565b6000611204826111b3565b61120e81856111be565b935061121e8185602086016111cf565b61122781610f2f565b840191505092915050565b6000608082019050818103600083015261124c81876111f9565b905061125b602083018661115c565b818103604083015261126d81856111f9565b9050818103606083015261128181846111f9565b905095945050505050565b600060a0820190506112a1600083018861115c565b81810360208301526112b381876111f9565b90506112c2604083018661115c565b81810360608301526112d481856111f9565b905081810360808301526112e881846111f9565b90509695505050505050565b60008115159050919050565b611309816112f4565b82525050565b60006020820190506113246000830184611300565b92915050565b7f4e487b7100000000000000000000000000000000000000000000000000000000600052602160045260246000fd5b6003811061136a5761136961132a565b5b50565b600081905061137b82611359565b919050565b600061138b8261136d565b9050919050565b61139b81611380565b82525050565b600060a08201905081810360008301526113bb81886111f9565b90506113ca6020830187611392565b81810360408301526113dc81866111f9565b90506113eb606083018561115c565b6113f8608083018461115c565b9695505050505050565b6003811061140f57600080fd5b50565b60008135905061142181611402565b92915050565b600080600080600060a0868803121561144357611442610f1b565b5b600086013567ffffffffffffffff81111561146157611460610f20565b5b61146d8882890161103d565b955050602061147e88828901611412565b945050604086013567ffffffffffffffff81111561149f5761149e610f20565b5b6114ab8882890161103d565b93505060606114bc8882890161108c565b92505060806114cd8882890161108c565b9150509295509295909350565b7f4e6f20656c656374696f6e7320617661696c61626c652e20506c65617365206360008201527f726561746520616e20656c656374696f6e2066697273742e0000000000000000602082015250565b60006115366038836111be565b9150611541826114da565b604082019050919050565b6000602082019050818103600083015261156581611529565b9050919050565b7f456c656374696f6e2068617320656e6465642e204e6f206d6f72652063616e6460008201527f6964617465732063616e2062652061646465642e000000000000000000000000602082015250565b60006115c86034836111be565b91506115d38261156c565b604082019050919050565b600060208201905081810360008301526115f7816115bb565b9050919050565b7f43616e64696461746520616c7265616479206578697374732e00000000000000600082015250565b60006116346019836111be565b915061163f826115fe565b602082019050919050565b6000602082019050818103600083015261166381611627565b9050919050565b7f4e487b7100000000000000000000000000000000000000000000000000000000600052602260045260246000fd5b600060028204905060018216806116b157607f821691505b6020821081036116c4576116c361166a565b5b50919050565b60008190508160005260206000209050919050565b60006020601f8301049050919050565b600082821b905092915050565b60006008830261172c7fffffffffffffffffffffffffffffffffffffffffffffffffffffffffffffffff826116ef565b61173686836116ef565b95508019841693508086168417925050509392505050565b6000819050919050565b600061177361176e6117698461106b565b61174e565b61106b565b9050919050565b6000819050919050565b61178d83611758565b6117a16117998261177a565b8484546116fc565b825550505050565b600090565b6117b66117a9565b6117c1818484611784565b505050565b5b818110156117e5576117da6000826117ae565b6001810190506117c7565b5050565b601f82111561182a576117fb816116ca565b611804846116df565b81016020851015611813578190505b61182761181f856116df565b8301826117c6565b50505b505050565b600082821c905092915050565b600061184d6000198460080261182f565b1980831691505092915050565b6000611866838361183c565b9150826002028217905092915050565b61187f826111b3565b67ffffffffffffffff81111561189857611897610f40565b5b6118a28254611699565b6118ad8282856117e9565b600060209050601f8311600181146118e057600084156118ce578287015190505b6118d8858261185a565b865550611940565b601f1984166118ee866116ca565b60005b82811015611916578489015182556001820191506020850194506020810190506118f1565b86831015611933578489015161192f601f89168261183c565b8355505b6001600288020188555050505b505050505050565b7f4e487b7100000000000000000000000000000000000000000000000000000000600052601160045260246000fd5b60006119828261106b565b915061198d8361106b565b92508282039050818111156119a5576119a4611948565b5b92915050565b7f43616e64696461746520646f6573206e6f742065786973742e00000000000000600082015250565b60006119e16019836111be565b91506119ec826119ab565b602082019050919050565b60006020820190508181036000830152611a10816119d4565b9050919050565b7f4e487b7100000000000000000000000000000000000000000000000000000000600052603260045260246000fd5b7f456c656374696f6e2077697468207468652073616d65206e616d65206f72206f60008201527f7665726c617070696e672074696d6520706572696f6420616c7265616479206560208201527f78697374732e0000000000000000000000000000000000000000000000000000604082015250565b6000611ac86046836111be565b9150611ad382611a46565b606082019050919050565b60006020820190508181036000830152611af781611abb565b9050919050565b7f456c656374696f6e20646f6573206e6f742065786973742e0000000000000000600082015250565b6000611b346018836111be565b9150611b3f82611afe565b602082019050919050565b60006020820190508181036000830152611b6381611b27565b9050919050565b600081905092915050565b6000611b80826111b3565b611b8a8185611b6a565b9350611b9a8185602086016111cf565b80840191505092915050565b6000611bb28284611b75565b915081905092915050565b60008154611bca81611699565b611bd48186611b6a565b94506001821660008114611bef5760018114611c0457611c37565b60ff1983168652811515820286019350611c37565b611c0d856116ca565b60005b83811015611c2f57815481890152600182019150602081019050611c10565b838801955050505b50505092915050565b6000611c4c8284611bbd565b915081905092915050565b6000611c628261106b565b91507fffffffffffffffffffffffffffffffffffffffffffffffffffffffffffffffff8203611c9457611c93611948565b5b60018201905091905056fea2646970667358221220e6eb939cfb3220636c34693523d1fa09d7bd1a98d9c899171a0f59c98a3b6eea64736f6c63430008130033",
  "immutableReferences": {},
  "source": "// SPDX-License-Identifier: MIT\r\npragma solidity ^0.8.0;\r\n\r\ncontract VotingSystem {\r\n\r\n    enum ElectionType { Political, Corporation, Academics }\r\n    \r\n    struct Candidate {\r\n        uint id;\r\n        string fullName;\r\n        uint age;\r\n        string description;\r\n        string image;\r\n    }\r\n\r\n    struct Election {\r\n        string name;\r\n        ElectionType electionType;\r\n        string organizedBy;\r\n        uint startDate;\r\n        uint endDate;\r\n    }\r\n\r\n    Election[] public elections;\r\n    Candidate[] public candidates;\r\n    mapping(uint => bool) public candidateExists;\r\n\r\n    event NewElection(string name, ElectionType electionType, string organizedBy, uint startDate, uint endDate );\r\n    event NewCandidate(uint candidateId, string fullName, uint age, string description, string image);\r\n\r\n    function addElection(\r\n        string memory _name,\r\n        ElectionType _electionType,\r\n        string memory _organizedBy,\r\n        uint _startDate,\r\n        uint _endDate\r\n    ) public {\r\n        require(!electionExists(_name, _startDate, _endDate), \"Election with the same name or overlapping time period already exists.\");\r\n\r\n        elections.push(Election(_name, _electionType, _organizedBy, _startDate, _endDate));\r\n\r\n        emit NewElection(_name, _electionType, _organizedBy, _startDate, _endDate);\r\n    }\r\n\r\n    function addCandidate(\r\n        string memory _fullName,\r\n        uint _age,\r\n        string memory _description,\r\n        string memory _image\r\n    ) public {\r\n        require(elections.length > 0, \"No elections available. Please create an election first.\");\r\n        require(!electionEnded(), \"Election has ended. No more candidates can be added.\");\r\n        require(!candidateExists[candidates.length], \"Candidate already exists.\");\r\n\r\n        candidates.push(Candidate(candidates.length, _fullName, _age, _description, _image));\r\n        candidateExists[candidates.length - 1] = true;\r\n\r\n        emit NewCandidate(candidates.length - 1, _fullName, _age, _description, _image);\r\n    }\r\n\r\n    function getCandidateDetails(uint _candidateId) public view returns (\r\n        string memory,\r\n        uint,\r\n        string memory,\r\n        string memory\r\n    ) {\r\n        require(candidateExists[_candidateId], \"Candidate does not exist.\");\r\n        Candidate memory candidate = candidates[_candidateId];\r\n        return (\r\n            candidate.fullName,\r\n            candidate.age,\r\n            candidate.description,\r\n            candidate.image\r\n        );\r\n    }\r\n\r\n    function getElectionDetails(uint _electionId) public view returns (\r\n    string memory,\r\n    ElectionType,\r\n    string memory,\r\n    uint,\r\n    uint\r\n      ) {\r\n    require(_electionId < elections.length, \"Election does not exist.\");\r\n    Election memory election = elections[_electionId];\r\n    return (\r\n        election.name,\r\n        election.electionType,\r\n        election.organizedBy,\r\n        election.startDate,\r\n        election.endDate\r\n    );\r\n    }\r\n\r\n    function getElectionCount() public view returns (uint) {\r\n    return elections.length;\r\n    }\r\n\r\n    function electionEnded() public view returns (bool) {\r\n        if (elections.length == 0) {\r\n            return false;\r\n        }\r\n        Election storage currentElection = elections[elections.length - 1];\r\n        return block.timestamp > currentElection.endDate;\r\n    }\r\n\r\n\r\n   function electionExists(\r\n    string memory _name,\r\n    uint _startDate,\r\n    uint _endDate\r\n    ) internal view returns (bool) {\r\n    for (uint i = 0; i < elections.length; i++) {\r\n        Election storage existingElection = elections[i];\r\n        if (\r\n            keccak256(abi.encodePacked(existingElection.name)) == keccak256(abi.encodePacked(_name)) &&\r\n            (\r\n                (_startDate >= existingElection.startDate && _startDate <= existingElection.endDate) ||\r\n                (_endDate >= existingElection.startDate && _endDate <= existingElection.endDate)\r\n            )\r\n        ) {\r\n            return true;\r\n        }\r\n    }\r\n    return false;\r\n  }\r\n \r\n\r\n}\r\n",
  "sourcePath": "D:\\repos\\License\\voting-app\\src\\contracts\\VotingSystem.sol",
  "compiler": {
    "name": "solc",
    "version": "0.8.19+commit.7dd6d404.Emscripten.clang"
  },
  "schemaVersion": "3.4.13",
  "updatedAt": "2023-05-14T19:46:37.823Z",
  "networkType": "ethereum",
  "devdoc": {
    "kind": "dev",
    "methods": {},
    "version": 1
  },
  "userdoc": {
    "kind": "user",
    "methods": {},
    "version": 1
  }
}